:100000000C94600E0C940D210C94E2200C94B720FB
:100010000C948C200C9461200C9436200C940B20B2
:100020000C94E01F0C94910E0C94910E0C94910E74
:100030000C94910E0C94910E0C94910E0C94910EC4
:100040000C94910E0C94910E0C94910E0C94910EB4
:100050000C94910E0C94910E0C94910E0C94961F8E
:100060000C94910E0C94601F0C94361F0C94910EFE
:100070000C94910E0C94910E0C94910E0C94910E84
:100080000C94910E0C94910E0C94910E0C94910E74
:100090000C94910E0C94910E0C94910E0C943821AA
:1000A0000C94910E0C94910E0C94910E0C94910E54
:1000B0000C94910E0C94910E0C94910E0C94910E44
:1000C0000C94910E0C94910E0C94910E0C94910E34
:1000D0000C94910E0C94910E0C94910E0C94910E24
:1000E0000C94910E0C946F1D0C94A40F0C94841E10
:1000F0000C94810F0C9448130C94EB100C94D613B1
:100100000C9436120C94E1130C94AB130C944D1D0B
:100110000C94EE160C9491130C9411140C94182852
:100120000C94CB100C94421E0C94900F0C94AC10B9
:100130000C9428140C94E1100C947D1D0C947F1EDB
:100140000C9483130C941E140C94B4100C94B012E1
:100150000C94CF100C94B0100C94D7120C94781609
:100160000C94F3130C9484160C94CF1C0C94EA0F8B
:100170000C94E0130C94D61E0C94421D0C94FB1BA3
:100180000C946D1D0C94DA110C94C91E0C94D21EA3
:100190000C9497130C94B8100C94B20F0C94431D4C
:1001A0000C94020F0C949D0E0C94B3120C94A61098
:1001B0000C9494130C94E6100C94C5100C94D91064
:1001C0000C9433230C94930E0C94C1100C942F13A5
:1001D0000C947B1D0C94641C0C94DD100C949913EE
:1001E0000C94540F0C94470F0C948E130C94000F26
:1001F0000C94611D0C94F71C0C94270F0C94871D14
:100200000C94571D0C94791D0C94C9130C9416135F
:100210000C94E7100C94D3100C94BB100C940E1695
:100220000C94A7140C943710000021002400270020
:100230002A002D00300033000101000004010701F5
:100240000A0100002200250028002B002E003100AA
:10025000340002010000050108010B01000020002C
:100260002300260029002C002F003200000100008E
:100270000301060109010505050507050808080829
:10028000020202020A0A080804040404010101012E
:100290000101010103030303030303030407070729
:1002A0000C0C0C0C0C0C0C0C0202020206060606CE
:1002B000060606060B0B0B0B0B0B0B0B010210209B
:1002C000200808102040102040800201020108048C
:1002D0000201010204081020408080402010080420
:1002E0000201800402018040201008040201080479
:1002F00002010102040810204080010204081020BD
:10030000408000000A0B02090C0D0E0807030401CF
:1003100000000000000000000000000000000000DD
:1003200000000000000000000000000000001211AA
:1003300010000000000000000000000000000000AD
:1003400000000000000000004D0002030303010351
:1003500004050600FF05FF05FF009501510200207E
:100360000440262106692A53002206D3339114261D
:10037000086C3653AA8A082705D12B022B07DB729B
:10038000D114012C05512A022D054B33032E0549AA
:100390002A0130076B32948A0031066A2E520E32DF
:1003A000066B32633933066B32230334076B3291A9
:1003B000442635066B32E44836066B322445370650
:1003C0006B32630E38066B32544539066B32144972
:1003D0003A06592A51003B06E12991003D06DB32DD
:1003E00033303F096B32632443110040096D3A36C4
:1003F0002051510541076B3294540542066B32542B
:100400004543076B3264720044086B3252A49A0071
:1004100045066B32243946076B3224190247076BB5
:100420003264241148076B3291AA0A49076B325390
:10043000981A4A076BB24989004B076B32916A4A96
:100440004C076B3261E6004D076B3251A50A4E072F
:100450006B329456004F076B32948A0050076B3210
:1004600094540251086B329444450052076B329405
:10047000342553066B32E44854076B3253980555C4
:10048000076B3291160156086B3291560A005707D6
:100490006B3291EA0058086B329194250559086B2C
:1004A00032912A19015A066B3263395F054B3203C8
:1004B00061065B72130162076B3261481163065B70
:1004C00032E40064066BB2614565065B32D40466B3
:1004D000096B7252348511006707E3311415016806
:1004E000086B32614849016906692AD1006A076AC6
:1004F0006E31100D6B076B32616A4A6C05692A0513
:100500006D075D3A5624256E075B325224056F064F
:100510005B3214017006E33154097106E33114199A
:1005200072065B32640873075B7252240174086BB5
:1005300072D114860275065B32914476075B329164
:10054000940277085D3A5124E50278065B32510E39
:100550007907E3319144067A065B32533400000098
:1005600004FFFF00005F0002020303030404050709
:1005700000FF06FF06000112022F032C200500BD1C
:10058000012106B1B1192922075BB7495600230A98
:100590002DB1AB86AA86AA00240A2DB15B35D820DE
:1005A000A505250934B1C920F6060126092CB18B11
:1005B00029563105270599B719280772B153CD007F
:1005C000290872B189A952002A076BB149D56A2B53
:1005D0000A2DB1CD280E9951042C075BAF5325008D
:1005E0002D060CB519012E0652B119012F0724B39F
:1005F00007B10D300873B1AB5C1500310773B14B17
:10060000B235320A34B1533183588E00330B34B1D2
:100610001919248D645200340A34B18DAA1A318319
:1006200004350A34B1191A6C249302360A34B153D2
:1006300019AC289302370B34B11919C40C62061196
:10064000380A34B15331A9289302390A34B15351CD
:10065000A60D92023A076AB11971043B0833AFB391
:10066000912A013C086BB14D35C8203D081CB319D7
:10067000198D003E096BB1C9208354023F0973B143
:100680006BA60C1300400934B15351DD48014109F8
:1006900034B153518E2903420A34B15971A4284709
:1006A00002430B34B15351830C625200440934B1FC
:1006B00059D1391200450B34B1191AAC0C3218015A
:1006C000460B34B1191AAC0C32C800470A34B15386
:1006D000518334D300480834B189724C33490773CD
:1006E000B159B1354A0B34B107196490814C0A4BAA
:1006F0000A34B1892A4999CA004C0C34B1C9208303
:100700000C32C860044D0934B189E38866004E0894
:1007100034B1896BA9334F0934B153D199140050C6
:100720000A34B159518E944106510A3CAF53D15C01
:1007300049A300520934B159518ED40C530A34B133
:10074000533165542605540773B159B10B5508341C
:10075000B1899E4901560934B189CE241500570943
:1007600034B189E6386200580A34B18932491565D6
:1007700000590873B1495659015A0A34B11919C4BC
:100780003618015B0773B119B1395C0924B3C92864
:10079000A38C025D0773B199CD115E0553B96B5FF0
:1007A000060CB11901600652B98901610824B11B18
:1007B00051A902620B34B1C9208315E548006307D3
:1007C00023B19B1908640A34B10719A411651A658D
:1007D0000924B1536964A000660934B1ADCA9941D6
:1007E0000467092CAF1B31A98C06680A34B1C920F3
:1007F0008315CD00690873B1CB4856036A097BAFF6
:10080000CDB05415006B0B34B1C9208394642A0316
:100810006C0773B1915D036D0824B1496948196E85
:100820000724B159D10C6F0824B153512605700922
:100830002CAF59518E940171092CAF1B51A60D029A
:10084000720824B15951830C730824B11B1A0D0589
:10085000740A34B1CB20CE0C3212750724B18966EC
:100860001A760763B1495605770724B189721C7857
:100870000824B18949AA1879092CAF893295250035
:100880007A0824B119B11C017B0873B14D49D620F7
:100890007C05B1B1397D0A73B1C920AA9822007EC6
:1008A0000714B94B2A0100000004FFFF0000BF003D
:1008B00003020304030504050D00FE09FE0AFF01FF
:1008C0005F02C408642005006E0721074943C72161
:1008D0000922079B5A476209230E3D464F294906C4
:1008E000A53228A52401240F4D4257362851926D78
:1008F00049940C5A04250D4D424FA474CC8A498B5F
:100900009400260E45424F9644495689A229520228
:100910002706195BC700280BDB3E57122551B72865
:100920000B290CDB3E47166551972889002A0A2DB2
:100930005257A5B23445002B0A2D4A57180D5218AC
:10094000012C079B3E8F52022D060D52C7202E0808
:100950009B3E4FB224002F0B4D42672DCC8A591875
:1009600002300B4D425796D4BC25B508310B4D4291
:10097000572625614F8300320B4D42CF926961D6D5
:100980007110330C4D42C72066B535D49205340F33
:100990004D425F984949949492410B1300350C4D98
:1009A00042C7B1620A432D5900360D4D42CF92899C
:1009B000E19064B66401370C4D42C720666116664B
:1009C000610D380D4D42CF92D99225B3250B0039D8
:1009D0000D4D42CF92D992210CB564013A0BC33E22
:1009E0004FB2E448B224003B0AC33E4FB2E48852FF
:1009F000023C084D4267D6B5033D09254AC7A063AE
:100A000083003E094D4247DAAD23003F0C4D42CFF3
:100A100092696156CCA108400D4D42CF92999644FF
:100A2000492CE910410C4D425796D46CC390D90221
:100A300042104D42C71055A2244AA64A944483024C
:100A4000430B4D42CF9289BD250B0044124D42C746
:100A50001055A2244AA2244AA2241A1400450B4D80
:100A600042C7B13824617110460B4D42C7B13824DA
:100A7000612300470C4D42CF92894D9B962C004834
:100A80000B4D4247E6360C995B004908CB42C71232
:100A9000F5654A0B4D42D716F6124512004B0D4D27
:100AA0004247664A4A5A1255322D4C094D4247D8A0
:100AB0008F83004D0D4D4247A62D4BA2249A5B001B
:100AC0004E0D4D4247364D4AA224D24D0B4F0A4D92
:100AD00042CF92F92D5900500C4D42C79064B64157
:100AE000091B01510A553ECF92F9A5B206520D4D90
:100AF00042C79064B6412955322D530C4D42CF92D6
:100B000089E91A6AC90254094D42C72085FD045576
:100B1000094D4247E66FC902560D4D4247E696948D
:100B20009228C9C208570D4D4247E625511225515A
:100B3000BA00580E4D4247A625A524AB44494D0B9B
:100B4000590C4D4247A625A5240B3B015A0C4D429A
:100B5000C720666156CCC2415B09DB3EC710F5A7D2
:100B6000015C0B4D4247988669310D035D09DB3E00
:100B7000C7D49F86005E081D5A5796D4025F060DA3
:100B80003EC720600612634714610B3542CF9A0CB2
:100B90009AA42801620C4D4247581C92CC6D50001B
:100BA000630A3542CF9289B56401640B4D4267CB2D
:100BB000A0B9254300650C3542CF920D4398250B13
:100BC00000660C4D42975409B3210ADB00670C45BF
:100BD0003ACF92D99221D49205680A4D4247D86201
:100BE000D2DC026908C3424F2875196A0B543A5F78
:100BF000ACB54952A2006B0D4D4247D89494B42431
:100C0000AA64016C08CB4287D42F036D0D3542874F
:100C1000D2A2244AA2245A006E0935424762D2DC8D
:100C2000026F0A3542CF92B9250B00700C453AC7C6
:100C30009064B641098B00710A453ACFA0D9922140
:100C40006C720935424762121B01730C3542CF9218
:100C5000256A92250B00740C45424F980D51D8140B
:100C600029007509354247E6495102760B3542475E
:100C7000664B4A491601770B35424766499444E969
:100C800002780B35424796D4C22CA905790C453A17
:100C900047E6A428A1962C007A093542C7A0751C06
:100CA000047B0B5D3E9F1436A961AB007C06494373
:100CB000C7037D0B5D3E871AB64A6193067E091D08
:100CC0005A4FA4245202A005006E07A108494347C9
:100CD000320C01A20E454657B65494288992CA1682
:100CE00001A30D4D42975409B32D2C290A00A40CE1
:100CF000354647964C4994444B16A50F4D4247A69E
:100D000025A52419A46890C208A6084943C7900CD9
:100D100001A70ED4428F12894A2425A2942800A844
:100D200007936247A204A90F4D46CF9229C9215AC1
:100D300096444B1600AA0C3D4ACF9A0C5A32A48313
:100D400000AB0B354657D25392255912AC071D4ABA
:100D5000C72016AD068B52C700AE0E4D46CF920D82
:100D6000C92119945BB200AF060D62C720B009A477
:100D7000568F12498902B10C3D4657180D529803FF
:100D80008300B2082B564F53920CB3072B564FB724
:100D900005B40612638F02B50A453A47E66950C4A6
:100DA00010B6124D42CF30244332244392285112C0
:100DB000255112B7060A538700B806123B8F02B9B5
:100DC000082B564F225506BA0A3D4ACF92D992793E
:100DD00010BB0C35464792255912253D01BC0C55D8
:100DE000424F26D6E64C4AA231BD0C55424F26D67C
:100DF000D62C09B36CBE0F55424F9664699464516A
:100E00002625D118BF0C4D42570E855931D3920576
:100E1000C00E55424F9A435952D38621D302C10D79
:100E200055425F1DCA929A360C9916C20E554297CA
:100E30005407B2A4A60D43A605C30E554257D28E41
:100E400064494D1B864C0BC40F55424F29C9912C48
:100E5000A969C3906901C50F55425796646196D43C
:100E6000B461C8B400C6114D424FB244499444899C
:100E7000322551122503C70B5D3ACF9289BD255B00
:100E80000DC80D55424F9A03C77048C27010C90D66
:100E900055425F1D38864312868300CA0D5542971E
:100EA000541DC67048C27010CB0E55424F29898719
:100EB000311C92301C04CC0AD34247162E519701A4
:100EC000CD0AD34257122E519701CE0BD4428F1226
:100ED0008553D66901CF0AD34247A2644BD465D06B
:100EE000114D42C71055A2241A92521225D1A000CA
:100EF000D10D554257D29C699392489B16D20C55FE
:100F0000424F9A234BE62D5900D30B55425F1D5992
:100F1000326FC902D40B554297545E326FC902D565
:100F20000C554257D20E2C99B76401D60D55424F3D
:100F300029C98125F3962C00D70A2D464796D42A35
:100F4000B500D8105D3E67B24497444994649A92C4
:100F50002504D90B55424F9A03996FC902DA0B55F4
:100F6000425F1DC87C4B1600DB0B55429754CD7C6D
:100F70004B1600DC0B55424F298933DF9205DD0CFF
:100F800055425F1DC8B4A4163601DE0D4D424738E8
:100F900024996D50C22200DF0E4D428F5489925227
:100FA0001255328B02E00D4D424F9A236B326892FC
:100FB000A204E10C4D425F1D599341931425E20CAC
:100FC0004D4297545E9341931425E30D4D4257D201
:100FD0000EACC9A0498A12E40E4D424F29C9813591
:100FE0001934495102E50E55429754D281351934CE
:100FF000495102E60B3542CF96244B29E902E70B13
:10100000453ACF9289B564AB01E80E4D424F9A2321
:101010004B360C61962C00E90D4D425F1D59B261B3
:1010200008B36401EA0D4D4297545EB26108B3649F
:1010300001EB0F4D424F29C981251B86304B16000D
:10104000EC09CB4247164A5D06ED09CB4257124ADE
:101050005D06EE0ACC428F12855AA705EF0ACB42F5
:1010600047A264529701F00D55424F2D53A32573AB
:101070004B1600F10B4D4257D29C9834B700F20C3E
:101080004D424F9A234BE6962C00F30B4D425F1DC9
:101090005932B76401F40B4D4297545E32B7640184
:1010A000F50C4D4257D20E2C995BB200F60D4D4215
:1010B0004F29C98125734B1600F70C3D46579803FD
:1010C000830E841100F80E453E67B2444BA22453B0
:1010D000B28400F90B4D424F9A0399274509FA0B48
:1010E0004D425F1DC83C294A00FB0B4D429754CD31
:1010F0003C294A00FC0B4D424F2989334F8A12FD8F
:101100000D5D3A5F1DC89C1425D49205FE0D553A1D
:1011100047583169DAA4286108FF0E5D3A4F2989E2
:1011200033274509B5640100000004FFFF0000DF1C
:101130000003030404030305080800000800080076
:10114000000E01B109A9400E782C5E1D100C5D82C5
:10115000A1382056410E782C5E1D10895E52E38026
:10116000580142085536C6504D0143095535D644FD
:10117000245303440E782CC6210EB2830E719005C1
:1011800000450E782CC6210EB1C30E7188090046A9
:101190000D782CC6210EB3430E7198014711882497
:1011A000DE2C329A11C5923840328B8800480A856D
:1011B000255630A7CA2C04490F8824164D241999A6
:1011C000C843894846024A0F8824164D321195C5F6
:1011D000238A6446024B0F8824166D22218DC52573
:1011E000C94446024C0F8824164D24118E49A68905
:1011F0004846024D0C583456587A88C80151004E62
:101200000C58346E1C203944C521004F0A84268EA8
:1012100048178A2C02500A483456F8700845015184
:101220000A4834AEE470088700520A84264E6842A9
:1012300011E902530A8525566C520AE604540E58E9
:10124000344E3012968422925064285512872466B8
:101250004A301291A44832459222E11000560B7494
:101260002E8EE410118B240057118824162D260988
:10127000D242A21831228B91005811782C4650127C
:10128000944454222A119538E010591288249E580B
:101290001A0A1D22A688241491842C005A0C682C4A
:1012A000C6251A89AE462E005B0A682CC6E5E141C8
:1012B00072015C0F88248E2D140CC544A260E4F0EA
:1012C000305D0D88249E94C86639C48132005E0E5C
:1012D00085255650228A8C26A2902C045F108824E3
:1012E000864DA4C92493C824B2830400600B652DE5
:1012F00056307688054300610A872406A9E9F02064
:101300003E6208742EC6075200630B8824C6210E65
:10131000191DFE10640E88241631143A3CCC218726
:101320008300650C8625962C941AA405A306660CEA
:101330008824C641123C8C351F04670D88243E204A
:101340002A9D0AA58B5300680B772C5E7474A9AC98
:10135000A82C690E772C764CE212A18462A12000A1
:101360006A0F8724C6212A3D48522C929443006B71
:101370000E8724C63BE0104939482287016C0F884C
:1013800024A6947290882A128AA474186D08363D97
:10139000868526026E09632F56E41011056F0A63D5
:1013A0002E46487288840070073635968C62710D1F
:1013B000682CC61C6023D2A1A10800720A683446BA
:1013C0004D2CB9D41A730C682C7678129AD8A8428E
:1013D00000740C58344E30329AD8A8320075096423
:1013E0002E964449A600760A85254E6CD3642D06B8
:1013F00077094635968C221A06780E882416CD5227
:1014000031D10E141B0900790E882416CDA2523258
:1014100055546C24007A0B87245ECA447AF8210064
:101420007B0F8824162D1809AB85C491608C047C31
:101430000B682CDEB064391C24077D0E8824DEB0D6
:1014400064995522C2F038067E0E8824DEB064A16D
:10145000D884E1710C007F0E8824CE702A19962C56
:101460008783E4008010682C6E2C14490B896291EC
:10147000A4581400810E88249ED06419992626A3AE
:101480000C00820B8824C6831C28C77C08830C8828
:101490002446745B641699AE0A840C882486744BC7
:1014A0006C129BAE06850C8824C6218E590E3C1CFE
:1014B000048610772CC684927208454287480A65D4
:1014C000008709782CC63FD8010188118824162D81
:1014D00018094644BA0423C1180900890E88241645
:1014E0006D14A1758B8C6224008A0E8824C6210E8F
:1014F000A9A31EE2104B008B0D682CC6210E391CCF
:10150000269143018C1288244EF4108A895242910C
:101510005048163A47008D118824162D18094B4261
:101520001191A6483046028E0B88249E58952A4772
:101530003D048F0C8824C6218E2AA58AD500900CE4
:10154000682C9645A56492A8840C910E682C162DE3
:101550001809A95042541900920F8724C670128AA4
:101560004424C3C8C17810930B852556C846A49956
:101570004200940B5834C6C8A926098600950A581B
:101580002C5630222B390D960C682C8E8C26098611
:10159000464E03970D682CC6C869148CC8681200A3
:1015A000980C7625968C72B058261400990D7824E4
:1015B0009E946639C4218783009A0A642E8E840E15
:1015C000A148009B08283C864442519C0D682CC6CB
:1015D00021620989488743019D0F88249E50240970
:1015E0004B282211E970289E0D87241E291AAD452B
:1015F0008B7100019F0D782CC61D54071EE2906C64
:1016000000A00C8824C6210E94633E1C04A10C8803
:101610002446744B6C129BAE0AA20C882486745B21
:10162000641699AE06A30B8824C6831CB31C7808E5
:10163000A40E8824868CC8960E8803C20701A50EC6
:10164000682C164D249184289A642400A6118824BD
:101650005E64488B8C62A1586414234E01A70C87EA
:1016600024C670129A4886870FA80E87245658B849
:101670001219554A930801A90F8724466414B150E2
:10168000229418391900AA0C742E8E28448A4526F3
:101690002200AB0B8824C6F410871C7E28AC0D8773
:1016A00024C6C465120B55868B00AD098824C67408
:1016B0001DEB06AE09662DC66C79B600AF0F882407
:1016C000164D2491116946892C4602B00B78247678
:1016D000E2301C473904B10F772C46243B20921D81
:1016E00010C90E8864B21088248644425187A850DD
:1016F000D4212A1405B30B8824C6C8698E34721A03
:10170000B40A8724C6EF8043E510B50F772CC66472
:10171000120BC542A558281659B60E782C164D2422
:101720000A86821121A300B70D682C8E48723848B2
:101730006C541900B80B762D968C7238984802B903
:101740000B8824C641AC4C733A08BA0B8824C6C334
:101750005879783810BB0C48348E4812D21411498D
:1017600000BC0A842696E22C148B0DBD0D872456EE
:101770006D28154A85B31200BE0E782CC6210E398D
:10178000C4218738C802BF0E782CC6210E39C42167
:101790008738C404C00E782CC6210E39C42187387E
:1017A000CC00C10E8824E6501413852C26DA740A66
:1017B000C20E682C8E29180A868291D18100C3102E
:1017C000882406912544890322214A1C1024C40C34
:1017D00085259664689CCC212100C515882456482F
:1017E0002514078462A158280E084544A21000C69B
:1017F000118824AE1C1213A58562A1902C0E9102B3
:10180000C70E782C46C40E89D821113B2462C80E1D
:10181000782CC6E43A998326D7C90400C90B662DF3
:10182000A6E820A2494300CA0A762D962C94E5F03A
:1018300030CB0B8625962C144D393C0CCC0E782CD5
:1018400076E4208DC3A207491800CD0E682C96546B
:10185000168AD94231A90800CE1188248E2918078A
:101860008462B6501C100C5900CF108824D6301654
:101870008A46A291682826330BD0108824C6412CB2
:10188000194992242351847C10D10D762D0E4534B4
:10189000148E24341100D208662D86884F02D30A94
:1018A000652D467074300501D40A662D0EE5F030C2
:1018B000A100D50E672D562C22AA582622512C00A5
:1018C000D60E672C462CA432B19424B11000D70A4E
:1018D000672C867046712306D80B672C469066B13C
:1018E000D08602D907662DC61F02DA0C882416910D
:1018F00074F840229200DB0C7824C6218E74882371
:101900001D02DC0E8625965014D13292106314000D
:10191000DD07283CC68300DE0C8824C641ACF920D4
:10192000135A00DF0B77248E709176B18900E00A9C
:10193000772C5E38ED164E03E10D88245EC9140C39
:10194000054321AF00E2118724A630941689453261
:101950004564A2D80C00E30B7724761C269C2D4A04
:1019600001E40F88246E30249A8826C1A02CF20648
:10197000E50D88249E94C82A8C490E0701E6098546
:1019800025864DB70301E70F88249658128DA89934
:101990004A34E20800E80B772C4E6D38BA85D30044
:1019A000E90D882416CD3239B9506C2400EA0C8830
:1019B000249E58ED709089D500EB1087245E38186E
:1019C000C914924A23B1D80800EC0E882416910E4F
:1019D0003B882594109104ED0E782C465822138BE9
:1019E0009465127100EE0C58345E584C9A502431B4
:1019F00000EF0D8824965868321D0E244D00F00E1D
:101A00008526CE24168CC56471500800F10F8824F9
:101A1000DEB06439CC6629D9224900F210882476D8
:101A2000443691A489A59214D93802F3108824165B
:101A30002D38A403E28038240E2101F40B8824EE13
:101A4000C65828385D05F50D8525566C520A862A3C
:101A5000B31000F60E5834569A4872888864A11064
:101A600000F7138824CE1C201445252149442489DD
:101A70004C52C600F80F8824C6B44A124D283209C9
:101A8000494251F91188249629428A90E2804AA459
:101A900012A95C00FA0D68346E1C20B35864A1389A
:101AA00000FB0F782CC63456A2C40171403064028A
:101AB000FC1088249E6C52AB5142A3D02C2295017D
:101AC000FD1387247630128C842249918824459214
:101AD00022C900FE0B85255668541A053301FF0FF5
:101AE00087254E44168E8CC2114A741A05000000D8
:101AF00004FFFF01001087254E84128E8CC21159FD
:101B0000741A0501010F782CC641123C4C8287499A
:101B1000F02001020B562D96C84222A50001030DAC
:101B2000662D46302423D144C10001040B8724C60E
:101B300021AAEBE11001050E772CC630140BC9DA8F
:101B400088120001060D473C862825141A85440199
:101B50000107158824162D1809A9842292504424BF
:101B60008A0463240001080F772C46292A8C8444B8
:101B700051E9210001090E8824C641728858648702
:101B80000F05010A0D8824C641248A8975250101A3
:101B90000B0F772C468412A1442C35A93804010C74
:101BA0000D772C665429E242895000010D118724DB
:101BB000D670168D4544216924161B01010E0F783D
:101BC0002C76E4108EC3C287481800010F118724B9
:101BD000D6E80EC914498A2445922A0001101187BB
:101BE000248E28240A8942A2902836071D01110F4D
:101BF000782C869045429150D421870001120F78AD
:101C00002C8690A20E39C4212A4401011310782C8D
:101C1000C6210E51A148281222510001140C58343B
:101C200086C97238444E0001151188245E5822215D
:101C3000592295484945180401160C86255E50C462
:101C4000D2280D0101170B84265EE87020C902011D
:101C5000180F87245E743893C424A2CAE430011993
:101C60000D87244E251A07CD519500011A0D8824A1
:101C70006658B9541A4EC500011B1188244E3032E3
:101C80009AD88834CB68128C00011C108724463403
:101C9000124B09DD62B7700C00011D108824D6308C
:101CA00016CA12992465939905011E118824D6300D
:101CB000168A462293D4504C661600003323182807
:101CC00011241FBECFEFD1E2DEBFCDBF00E00CBFBD
:101CD00013E0A0E0B2E0EAEEF3E500E00BBF02C0E3
:101CE00007900D92AA3FB107D9F72AE0AAEFB3E017
:101CF00001C01D92A334B207E1F71EE0CFE5DEE09C
:101D000000E006C021970109802FFE010E94DB2917
:101D1000CE35D10780E00807A9F70E9482240C94F1
:101D2000E3290C940000662329F06A3019F0862F0D
:101D300090E008958FEF9FEF0895CF92DF92EF929A
:101D4000FF920F931F93CF93DF93EC01842F877043
:101D5000E1E0F0E0082E01C0EE0F0A94EAF73E2F12
:101D60007E0199E7E90EF11CD7019C9110E09230B9
:101D700018F41E2F913029F150E0487FE8ADF9ADFD
:101D8000C880D980D60150969C91949F6001959F00
:101D9000D00C11246C0D7D2D711DDF01A60FB71F16
:101DA000011115C08C91812B83278D932150D1F780
:101DB000DF91CF911F910F91FF90EF90DF90CF9027
:101DC000089530E0D9CF110F330F222389F39C916E
:101DD000912B93279C938F5F877021508111F3CFB4
:101DE0009CADA90FB11DF7019081923028F491307C
:101DF00009F031E011E0E9CF31E0E7CF80E008956C
:101E000080E008951F93CF93DF93182FC0919A0419
:101E1000D0919B048A3041F4E881F9810190F081EE
:101E2000E02D6DE0CE011995E881F9810190F081F6
:101E3000E02D612FCE01199521E030E0019711F4DA
:101E400030E020E0C901DF91CF911F910895CF9339
:101E5000DF93C0919A04D0919B04E881F9810084BA
:101E6000F185E02DCE011995892BB9F3E881F9812F
:101E70000284F385E02DCE01DF91CF9119949B016F
:101E8000DC011896ED91FC9141E067E119948B58C3
:101E90009F4FFC0180818F5F0895DC01ED91FC91E3
:101EA0000190F081E02D1994AF92BF92CF92DF9212
:101EB000EF92FF920F931F93CF93DF936C017B01FF
:101EC0008B01040F151FEB015E01AE18BF08C01790
:101ED000D10759F06991D601ED91FC910190F08103
:101EE000E02DC6011995892B79F7C501DF91CF91B6
:101EF0001F910F91FF90EF90DF90CF90BF90AF9028
:101F00000895FC01538D448D252F30E0842F90E0FF
:101F1000821B930B541710F0CF96089501970895E4
:101F2000FC01918D828D981761F0A28DAE0FBF2FAD
:101F3000B11D5D968C91928D9F5F9F73928F90E003
:101F400008958FEF9FEF0895FC01918D828D981772
:101F500031F0828DE80FF11D858D90E008958FEFAF
:101F60009FEF0895FC01918D228D892F90E0805C78
:101F70009F4F821B91098F73992708958EE994E0F2
:101F80000E94B20F21E0892B09F420E0822F0895EE
:101F9000FC01A48DA80FB92FB11DA35ABF4F2C91DE
:101FA000848D90E001968F739927848FA689B789D5
:101FB0002C93A089B1898C91837080648C93938DCC
:101FC000848D981306C00288F389E02D80818F7D6F
:101FD00080830895EF92FF920F931F93CF93DF9327
:101FE000EC0181E0888F9B8D8C8D98131AC0E88955
:101FF000F989808185FF15C09FB7F894EE89FF8924
:102000006083E889F98980818370806480839FBFC1
:1020100081E090E0DF91CF911F910F91FF90EF90C1
:102020000895F62E0B8D10E00F5F1F4F0F731127D1
:10203000E02E8C8D8E110CC00FB607FCFACFE8890C
:10204000F989808185FFF5CFCE010E94C80FF1CFBD
:10205000EB8DEC0FFD2FF11DE35AFF4FF0829FB780
:10206000F8940B8FEA89FB8980818062CFCFCF9370
:10207000DF93EC01888D8823B9F0AA89BB89E889B0
:10208000F9898C9185FD03C0808186FD0DC00FB656
:1020900007FCF7CF8C9185FFF2CF808185FFEDCFD4
:1020A000CE010E94C80FE9CFDF91CF91089580E063
:1020B00090E0892B29F00E94BE0F81110E94000040
:1020C00080E090E0892B49F080E090E0892B29F0B6
:1020D0000E94000081110E94000080E090E0892BA6
:1020E00049F080E090E0892B29F00E9400008111E6
:1020F0000E94000080E090E0892B49F080E090E0B1
:10210000892B29F00E94000081110C940000089591
:102110008150823108F05AC0E82FF0E08827EC5651
:10212000FF4E8F4F0C94DB29B410B810A610AC10E2
:10213000B010E610BB10C110C510CB10CF10D310DB
:10214000D910DD10E610E110E710EB10809180004F
:102150008F77809380000895809180008F7DF9CFE4
:1021600080918000877FF5CF84B58F7784BD0895F7
:1021700084B58F7DFBCF8091B0008F778093B000C6
:1021800008958091B0008F7DF9CF809190008F7776
:10219000809390000895809190008F7DF9CF809179
:1021A0009000877FF5CF8091A0008F778093A0006B
:1021B00008958091A0008F7DF9CF8091A000877F46
:1021C000F5CF809120018F77809320010895809131
:1021D00020018F7DF9CF80912001877FF5CFCF93AC
:1021E000DF93282F30E0F901EE5FFC4F8491F90175
:1021F000E454FD4FD491F901EA58FD4FC491CC232A
:10220000A1F081110E948810EC2FF0E0EE0FFF1F6B
:10221000E45AFD4FA591B491EC91ED2381E090E05B
:1022200009F480E0DF91CF91089580E090E0FACF4B
:102230001F93CF93DF93282F30E0F901EE5FFC4F1F
:102240008491F901E454FD4FD491F901EA58FD4F0E
:10225000C491CC23A9F0162F81110E948810EC2F75
:10226000F0E0EE0FFF1FEE5BFD4FA591B4918FB72D
:10227000F894EC91111108C0D095DE23DC938FBF48
:10228000DF91CF911F910895DE2BF8CFCF93DF938D
:1022900090E0FC01E454FD4F24918A589D4FFC01CD
:1022A00084918823C9F090E0880F991FFC01E85DB4
:1022B000FD4FA591B491FC01EE5BFD4FC591D4910A
:1022C00061110DC09FB7F8948C91209582238C9357
:1022D0008881282328839FBFDF91CF9108956230A2
:1022E00051F49FB7F8943C91822F809583238C936F
:1022F000E8812E2BEFCF8FB7F894EC912E2B2C93F7
:102300008FBFEACF3FB7F8948091910490919204E7
:10231000A0919304B091940426B5A89B05C02F3FCB
:1023200019F00196A11DB11D3FBFBA2FA92F982FFB
:102330008827BC01CD01620F711D811D911D42E0F6
:10234000660F771F881F991F4A95D1F708958F92BE
:102350009F92AF92BF92CF92DF92EF92FF926B016A
:102360007C010E9482114B015C01C114D104E10483
:10237000F104B9F00E948211681979098A099B0950
:10238000683E73408105910580F321E0C21AD108AF
:10239000E108F10888EE880E83E0981EA11CB11CAC
:1023A000E4CFFF90EF90DF90CF90BF90AF909F90E1
:1023B0008F900895089585ED8093BC008091BC00B6
:1023C00084FDFCCF10926604089520914204260FEC
:1023D0003327331F21323105ECF420916604FC01D0
:1023E00090E080E0243069F082E00895A0914204FA
:1023F0002191AC014E5D5B4FA40FB52FB11D2C9305
:102400000196861798F380914204680F6093420406
:1024100080E0089581E0089508958FEF9FEF08957B
:102420008FEF9FEF08958091210490E09195819521
:1024300091090895CF93DF93CB01EA01642F0E94A5
:10244000E511CE01DF91CF910895CF93DF931F92D5
:10245000CDB7DEB7698361E0CE0101960E94E51138
:1024600081E090E00F90DF91CF910895CB01089526
:102470004F925F926F927F92BF92CF92DF92EF92D4
:10248000FF920F931F93CF93DF93EC0129013A0141
:102490008B01C12CD12C7601C414D504E604F704B9
:1024A0000CF03FC0F801B1908F018F8580FF0BC009
:1024B000E881F9810084F185E02D20E144E070E0BD
:1024C00060E0CE011995EB85FC858D859E85E8172A
:1024D000F90760F4B0828B859C8501969C878B8779
:1024E0002FEFC21AD20AE20AF20AD6CF6B2D70E0A1
:1024F000E881F981028CF38DE02DCE0119950196CA
:1025000079F7C701B601DF91CF911F910F91FF902D
:10251000EF90DF90CF90BF907F906F905F904F9043
:10252000089573016201EDCFCF93DF93EC01E88151
:10253000F9810288F389E02D19958F3F980731F0D2
:102540002D813E812F5F3F4F3E832D83DF91CF91C1
:1025500008958FEF9FEF089560E070E0CB0108953C
:1025600090E080E00895FF920F931F93CF93DF9345
:102570008C01EB016F3F7607B9F0F62EEAE06E139F
:1025800006C06DE0F801808991890E944D0F6F2D82
:10259000F801808991890E944D0FCE01DF91CF9182
:1025A0001F910F91FF900895D0E0C0E0F6CF7F9289
:1025B0008F929F92AF92BF92CF92DF92EF92FF9253
:1025C0000F931F93CF93DF938C0149015A01EB01C5
:1025D000C12CD12C7601C814D904EA04FB04B4F44C
:1025E00079908AE0781206C06DE0F80180899189BF
:1025F0000E944D0F672DF801808991890E944D0F2F
:10260000FFEFCF1ADF0AEF0AFF0AE5CFC501B401D9
:10261000DF91CF911F910F91FF90EF90DF90CF90BE
:10262000BF90AF909F908F907F900895CF93DF934E
:10263000EC0188899989DC01ED91FC910084F18598
:10264000E02D1995892BA9F388899989DC01ED91F1
:10265000FC910284F385E02DDF91CF911994CF9303
:10266000DF93EC0188899989DC01ED91FC9100846C
:10267000F185E02D1995892BA9F388899989DC01C9
:10268000ED91FC910484F585E02DDF91CF911994B3
:102690008F929F92AF92BF92CF92DF92EF92FF9272
:1026A0000F931F93CF93DF938C0149015A01EB01E4
:1026B000C12CD12C7601D80150968D919C91DC01D2
:1026C000ED91FC910284F385E02D19958F3F61F027
:1026D000C814D904EA04FB043CF48993BFEFCB1A75
:1026E000DB0AEB0AFB0AE7CFC701B601DF91CF9106
:1026F0001F910F91FF90EF90DF90CF90BF90AF9020
:102700009F908F900895DC0150968D919C91DC01F3
:10271000ED91FC910084F185E02D199490E080E02A
:10272000089590E080E0089590E080E00895089595
:102730000895DC01ED91FC9136970190F081E02D38
:10274000E80FF91F83E093E0918380838DE093E0AD
:1027500097838683089523E033E0FC01318320834F
:102760002DE033E0378326830895FB0120813181FA
:10277000FC0131832083FB014281538126503109C2
:10278000F90120813181820F931FFC015183408325
:1027900008952FE133E0FC013183208329E233E007
:1027A000318F208F63E173E00C94B513DC01ED9160
:1027B000FC91369720813181820F931F0C94C913AD
:1027C0000895DC01ED91FC9136970190F081E02DA8
:1027D000E80FF91F8FEE92E09183808389EF92E0FA
:1027E0009383828308952FEE32E0FC0131832083AE
:1027F00029EF32E0338322830895FB012081318168
:10280000FC0131832083FB01428153812650310931
:10281000F90120813181820F931FFC015183408394
:1028200008952BE333E0FC013183208325E433E07A
:10283000358B248B6FE273E00C94FD13DC01ED917A
:10284000FC91369720813181820F931F0C941114D3
:102850000895DC011A96ED91FC9130E020E0199486
:10286000DC011696ED91FC9130E020E040E069E15A
:102870001994DC011696ED91FC9130E020E040E0E7
:1028800068E119949A01DC011696ED91FC91462FAE
:1028900067E11994EF92FF920F931F93CF93DF9309
:1028A0001F92CDB7DEB77C018B01D8016C916731E7
:1028B00029F150F46531A0F40F90DF91CF911F9171
:1028C0000F91FF90EF9008956A3118F16E3FA1F7D4
:1028D000F8014181498369E2C7010E9429140BC0B4
:1028E000F80141814983D7011696ED91FC9130E0C2
:1028F00020E0C70119950E5F1F4FD7CFF8018181E6
:102900008983AE014F5F5F4F61E0C7010E944214AF
:10291000F2CF0F5F1F4FD7011696ED91FC9130E07B
:1029200020E040E0C7011995C0CF462FDC01169684
:10293000ED91FC9130E020E066E11994462FDC0136
:102940001696ED91FC9130E020E065E11994EF924C
:10295000FF920F931F93CF93DF93EC01042F790124
:102960006D3009F446C050F46B30C9F1693009F498
:102970009FC06A3009F465C080E046C06E3009F43B
:1029800052C06F3099F70E943914F7011381110F6B
:10299000110F110F6C89160F60E4CE010E949E1476
:1029A000612F62956F706061CE010E949E14612F4D
:1029B0006F70CE010E949514F7016481606BCE01A7
:1029C0000E949514F701408151816281660F660F64
:1029D000660FCE010E9442140150A1F72EC06FE68F
:1029E00072E0442311F06AE672E0CE010E944A14BC
:1029F0000AC0411110C063E672E00E944A14E881E7
:102A0000F98182898C8B81E0DF91CF911F910F91A9
:102A1000FF90EF9008956CE572E00E944A14E881FF
:102A2000F9818389EFCF0E94391461E8CE010E94B9
:102A30009E14602FCE010E949514CE010E94301486
:102A4000E2CFEA85FB8530E020E040E068E2CE019D
:102A50001995EE81FF8130E020E040E064E1CE0195
:102A6000199541E06BE4CE010E942914E881F981B7
:102A7000448169E2CE010E94291440E06BE4CE015A
:102A80000E942914E881F981448169E2CE010E9403
:102A9000291441E06BE4CE010E942914E881F981F8
:102AA000458169E2CE010E94291464E772E09DCF5E
:102AB00089EA92E0998388831C8AA5CF41E06DE47E
:102AC0000C942914DC01ED91FC9145856DE20C9488
:102AD0002914CF93DF93EC0141E06CE40E942914A8
:102AE000CE01DF91CF910C946215CF93DF93EC016F
:102AF000662379F00E945E15CE010E946215CE0118
:102B00000E94691540E06CE4CE01DF91CF910C94F6
:102B1000291440E06DE40E942914EECF1F93CF9357
:102B2000DF93EC01162F60780E947515612F607499
:102B3000CE010E947515612F6072CE010E9475153D
:102B4000612F6071CE010E947515612F6870CE01F2
:102B50000E947515612F6470CE010E947515612F5A
:102B60006270CE010E947515612F6170CE010E94C6
:102B70007515CE010E945E15CE010E946215CE0130
:102B80000E946915CE010E945E15CE010E94621559
:102B900040E06CE4CE01DF91CF911F910C94291499
:102BA000DC011896ED91FC9130E020E040E069E115
:102BB0001994DC011896ED91FC9130E020E040E0A2
:102BC00068E11994CF93DF931F92CDB7DEB7698385
:102BD000BE016F5F7F4F0E943F0F0F90DF91CF913B
:102BE0000895EF92FF921F93CF93DF93EC01162F7E
:102BF0007A010E94D91560E4CE010E94E215E885B1
:102C0000F9859701412F67E1CE011995CE01DF913A
:102C1000CF911F91FF90EF900C94D015EF92FF92FF
:102C20001F93CF93DF93EC01142F7901663181F16B
:102C300038F4643109F44BC0653179F080E022C08A
:102C40006831C9F150F16931C9F7809120048823B6
:102C500091F1CE010E94D0152EC0809120048823CE
:102C600019F0CE010E94D015CE010E94D91560E066
:102C7000CE010E94E215612FCE010E94E21581E093
:102C800080932004DF91CF911F91FF90EF900895E2
:102C9000642F0E94E21581E0F5CF80912004882303
:102CA00019F0CE010E94D015A701193138F4612F17
:102CB000CE010E94F11510922004EDCF68E1CE0103
:102CC0000E94F115185188E1E80EF11CEDCF8E89B4
:102CD0008F3F11F488E78E8BE885F9859701412FA6
:102CE00064E1CE01DF91CF911F91FF90EF90199495
:102CF0000F93DC01DE963C91DE97431BD496ED9159
:102D0000FC9119950F910895CF93DF93FC01A08159
:102D1000B18182AD982F990F990F990F95AF509669
:102D20009C915097903208F09FE1990F990F990F5D
:102D300094AF23AD922F990F990F990F96AF51969B
:102D40003C915197682F620F7727771F3617170628
:102D500014F4832F821B97AFEF01C05CDF4F880F05
:102D6000880F880F890F8883219680EF8883549677
:102D70008D919C915597813F910508F48883EE5B76
:102D8000FF4F56968C918083DF91CF9108950F93DA
:102D9000FC01EB5BFF4F308131965081451730F4D9
:102DA000301738F0041728F080E013C03017D0F344
:102DB000FBCFFC01ED5BFF4F30818C5B9F4FFC0133
:102DC0008081681740F481E0321718F081E02617FF
:102DD00058F70F9108953217C8F3E6CF2F923F921C
:102DE0004F925F926F927F928F929F92AF92BF921B
:102DF000CF92DF92EF92FF920F931F93CF93DF93C7
:102E0000EC014C0183E4880E911CF401108232978E
:102E100020805E01F4E4AF0EB11CF50120823FACCE
:102E20006E01F5E4CF0ED11CF6013082359740805B
:102E30007E01F6E4EF0EF11CF7014082349610811A
:102E4000329760803196708032975080012F262D06
:102E5000472D652DCE010E94C716CD58DF4F811139
:102E600014C01882DF91CF911F910F91FF90EF90C6
:102E7000DF90CF90BF90AF909F908F907F906F909A
:102E80005F904F903F902F90089581E08883552068
:102E900011F0F4015082621410F4F50160823714CD
:102EA00010F4F60170821415E8F6F7011083DACFFA
:102EB0000F93DC01802FFD01ED58FF4F9081992386
:102EC000E9F12223D9F1223020F0023079F56F5F49
:102ED000621B082F0170FD0180FD32C0EB5BFF4FCC
:102EE0008081481758F131968081481738F532971C
:102EF000908131978081260F2617F0F46917D8F456
:102F00002FEF290F8217D0F4681708F4682F2917BC
:102F100008F4922F961BD696ED91FC91D7970480DA
:102F2000F581E02D292FCD01199508C0033089F6D0
:102F30004F5F421BCECF682F691720F30F91089582
:102F4000ED5BFF4F80816817C8F331968081681769
:102F5000A8F73296908131978081240F241778F456
:102F6000491760F42FEF290F821740F7481708F42C
:102F7000482F291708F4922F941BCDCF482F4917BB
:102F8000E8F6F2CF0F93909184096917A0F0909121
:102F90008509691780F490918209891760F09091F2
:102FA0008309891740F4462F682F00E021E08FE362
:102FB00099E00E9458170F910895CF92DF92EF92F7
:102FC000FF920F931F93CF93DF93C82F162FD42F09
:102FD000082F041B481710F0042F081B113150F064
:102FE00080EFF82EF10E0F15E0F0DC17A0F1D12CD8
:102FF00080E110C080E1F82EF11A0F1508F042C0F0
:10300000802F0F2DF82E8D2F9C2FC12F192FDD24EF
:10301000D394D0E1E02EE694181720F1CC24CA9482
:1030200023C0802F0F2DF82E8C2F912F1D2FD92FDD
:10303000DD24D394C0E1EECF612F8C2FDD2011F081
:103040006C2F812F0E94C217EF18E7FE02C01C0DE3
:10305000E00ECF5F0CC0E02EE6948D2FDC2FC82F42
:10306000D12C10E1CC24C394DF3F09F4DEEFDC1750
:1030700018F7DF91CF911F910F91FF90EF90DF90A4
:10308000CF900895DC1708F0B2CFE02EE6948D2F94
:10309000DC2FC82FD12C10E1C1CF213039F020F026
:1030A000223031F0840F0895860F0895841B08950F
:1030B000861B0895213039F020F0223031F0861B34
:1030C0000895840F0895860F0895841B08955F92D4
:1030D0006F927F928F929F92AF92BF92CF92DF9228
:1030E000EF92FF920F931F93CF93DF935C01162F04
:1030F000642EEC01C15BDF4FDC80ED804C0189E781
:10310000880E911CFE80FD18C12EF11608F4CF2CFC
:103110005B800C85202F4E2D6D2D8A810E944D18CD
:10312000782E202F4E2D6D2D852D0E945A18482F58
:10313000662071F08A85F40180832C2D672DC501EE
:103140000E9458171F1548F01F19E394D12CDACFAD
:1031500089858111F7CF8B85EECF1D0D1C83ED8204
:10316000DF91CF911F910F91FF90EF90DF90CF9063
:10317000BF90AF909F908F907F906F905F900895D9
:10318000DC0118964C911897ED91FC9111972491C0
:1031900030E0042E02C0359527950A94E2F7842F7B
:1031A000860F883068F031961196FC93EE93E49187
:1031B00098E0941B01C0EE0F9A95EAF72E2B8850E9
:1031C00018968C938FEF9FEF01C0880F6A95EAF7EE
:1031D000809582230895FC01E60FF11D849190E013
:1031E000982F88273196E4918E0F911D0895CF93E3
:1031F000DF9320918A0930918B092817390709F448
:1032000090C0EC0190938B0980938A09FC01849112
:1032100080939B093196E491E0939C09FE013296DC
:10322000E491E0939D09FE013396E491E0939E09B9
:10323000FE013496E491E0939F09FE013596E491F6
:10324000E093A009FE013696E491E093A109FE0106
:103250003796E491E093A209FE013896E491E09359
:10326000A309FE013996E491E093A409FE013A9680
:10327000E491E093A509FE013B96E491E093A60951
:10328000FE013C96E491E093A709FE013D96E4918E
:10329000E093A809FE013E96E491E093A909FE019E
:1032A0003F96E491E093AA09FE017096E491E093C1
:1032B000AB0961E1CE010E94EB189093AD098093B8
:1032C000AC0963E1CE010E94EB189093AF098093A3
:1032D000AE0965E1CE010E94EB189093B10980938D
:1032E000B00980918A0990918B09892BD1F0809146
:1032F000A8098093B4094091A9094093B509909118
:10330000B309992371F0913079F49091AA09891742
:1033100014F49093B4098091AB09841714F480934A
:10332000B509DF91CF9108953091A5092091A709A2
:10333000082E000C990B622F022E000C770B630FE6
:10334000711D37FD7A95861797071CF4320F30935D
:10335000B409241734F72093B509E3CF6F927F9215
:103360008F929F92AF92BF92CF92DF92EF92FF9295
:103370000F931F93CF93DF93EC01062F142F790146
:10338000FC01E55AFF4F8081813009F445C0D0F13E
:10339000823009F44BC0833009F452C0FE01EF5A69
:1033A000FF4F008331961083379780819181479634
:1033B0002FEFE216F10411F008F0E6C0E1E6EE1698
:1033C000F10408F447C0FE01E159FF4F208131812B
:1033D000820F931F9C012F5F3F4FF90144914111D0
:1033E00042C0712C872DDF91CF911F910F91FF90DB
:1033F000EF90DF90CF90BF90AF909F908F907F9095
:103400006F900895FE01E35BFF4F0190F081E02D86
:10341000CE011995180FC2CFFE01E35BFF4F01905B
:10342000F081E02DCE011995081BB8CFFE01E35BBA
:10343000FF4F0190F081E02DCE011995181BAECF02
:10344000FE01E35BFF4F0190F081E02DCE01199565
:10345000080FA4CFF1E4EF16F10408F4BBCFFE018E
:10346000E359FF4FB3CFFC0144914E151F0409F0FF
:1034700086C00296009709F4B4CF7E01FFE4EF0EF8
:10348000F11CF70191838083108671966081C701DA
:103490000E94C018F701868372966081C7010E945E
:1034A000C018A82EF70187836E01F9E7CF0ED11C53
:1034B000F6019081F701928781E0911180E0F70198
:1034C0008387FE01EE59FF4FB0806B2DC7010E942C
:1034D000C018882EFE01ED59FF4F1081612FC701E2
:1034E0000E94C018982EFE01EC59FF4F0081602FFA
:1034F000C7010E94C018015041E050E09A0101C08C
:10350000220F0A95EAF7782E721AF7010681101633
:103510000CF068CFBA94CA0101C0880FBA94EAF7D8
:10352000881AB4849A0C115001C0440F1A95EAF716
:10353000F42FF9199F2E2B2D4F2F682DF701828123
:103540000E944D18182FF70182832B2D492D682DCD
:1035500083810E945A18F7018383F1E0BF1609F4B2
:103560007CC0BF1608F43FC022E0B21609F47BC04D
:1035700093E0B91609F482C0082F212F38C0F90151
:103580002491820F911D26CFFE01EF58FF4F00813D
:103590001181080F191F680160E0C6010E94EB1835
:1035A000080F191F62E0C6010E94EB18F4E0CF0E6D
:1035B000D11C8E159F0580F3F801849190E0982F1F
:1035C00088273196E4918E2B009709F40ACFE816EC
:1035D000F90619F4C80103964DCFF8013296E4912B
:1035E0000E0F111DE9CF202F210F082F0A0D482F94
:1035F000612FCE010E94C716882309F4F3CEF7018C
:10360000148215828E01025A1F4F4E01FFE58F0E64
:10361000911CF8016081C7010E94C018682EF40156
:103620006081C7010E94C018B82E40E0662DCE010F
:103630000E94671841E06B2DCE010E94671861E07F
:10364000C7010E94C0188111F0CFF70185818A154A
:1036500004F38285F6018083C5CEBA1821E0210FDC
:10366000080F1B0DC4CF91E0392F301B21E0210F33
:103670009A1901E0080F890F130FB9CF212F2A0DD6
:10368000982F901B01E0080F81E0890FB0CFFF92C7
:103690000F931F93CF93DF93C82FD62F1092570904
:1036A0008A01F12CF80161918F01E0914109F091BB
:1036B00042098FE399E019958F3F9807F1F08E3F0B
:1036C0002FEF920779F39C014D2F6C2F8FE399E038
:1036D0000E94AE1990919A09913049F030F09230E1
:1036E00041F0933041F0F80EDDCFC80FFCCFD80F7A
:1036F000FACFC81BF8CFD81BF6CF8F2DDF91CF9113
:103700001F910F91FF90089523E93EE03093420905
:10371000209341090C94471BCF93DF93EC016BAFCF
:10372000EEA9FFA90190F081E02D1995EEA9FFA95E
:103730000280F381E02DCE01DF91CF911994AF92F9
:10374000BF92CF92DF92EF92FF920F931F93CF938E
:10375000DF9300D01F921F92CDB7DEB78C01DC0142
:10376000DA96AC90DA97DB96EC90DB97ED91FC91D2
:10377000B188FE2CD12CC12CD801ED91FC91119770
:103780008089D8962D913C911C82FD828B83B8E074
:103790008B9FC00111248C9DA0018D9D500D9C9D7F
:1037A000500D1124240F351F3A832983D801149614
:1037B000ED91FC919E012F5F3F4F41E06FE0C8010A
:1037C0001995F3948F2D8E198A1528F4BFEFCB1A13
:1037D000DB0AFB1488F20F900F900F900F900F9060
:1037E000DF91CF911F910F91FF90EF90DF90CF90DD
:1037F000BF90AF900895EF92FF921F93CF93DF9306
:10380000EC01142F7901683151F130F46431D1F0B9
:103810006731A9F080E006C0693109F443C0603225
:10382000C9F781E0DF91CF911F91FF90EF9008954C
:10383000F70161917F01CE010E948E151150111187
:10384000F7CFEFCF41E06CE40E94291441E06DE432
:10385000CE010E942914CE010E946215E2CF8F8909
:10386000882349F0CE010E945E15CE010E946215A8
:10387000CE010E946915CE010E945E1540E06DE404
:10388000CE010E942914CE010E94621540E06CE432
:10389000CE010E94291481E08F8B6E89CE010E9497
:1038A0008E15BFCF40E06DE40E942914CE010E9426
:1038B0006215CE010E946915CE010E945E15CE01EF
:1038C0000E9462151F8AADCF0F931F93CF93DF9392
:1038D0008C01C62F642FCC32E8F4CA3208F041C004
:1038E000C83271F1C93209F442C080E0C034D0F16D
:1038F000CF73F801EC0FF11D868D8F3F91F1C03130
:10390000E0F00E94EF1021E0892B09F420E0F8019B
:10391000218F27C0CD3289F140F384EB8C0F8230A8
:1039200020F7CF73C00FD12FD11D8E8D411133C021
:1039300061E00E94461160E08E8D0E94181111C056
:10394000025E1F4FD0E0F80181918F018F3F31F06F
:1039500061E0D03108F062E00E944611DF5FD631AD
:1039600091F781E0DF91CF911F910F91089570E061
:1039700090E080E00E94A711F4CF85E090E0433012
:1039800010F082E090E0880F991F880F991F05972B
:103990000197F1F7E6CF62E00E944611E2CFCF92A5
:1039A000DF92EF92FF920F931F93CF93DF936C01FF
:1039B000EB017B01E40EF51E10E000E0CE15DF0503
:1039C00061F06991D601ED91FC910190F081E02DBB
:1039D000C6011995080F191FF1CFC801DF91CF91CA
:1039E0001F910F91FF90EF90DF90CF900895CF92AD
:1039F000DF92EF92FF920F931F93CF93DF93EC012F
:103A00006C0124E0C20ED11CFC01E158FF4F019073
:103A1000F081E02DC60119958E3FEFEF9E07C8F4A7
:103A20008E010E571F4F7E01F1E8EF0EF11C9C0135
:103A3000F8014081F7016081C6010E94AE19C15AA8
:103A4000DF4F98819130A9F078F09230A1F0933057
:103A5000B9F081E090E0DF91CF911F910F91FF903D
:103A6000EF90DF90CF900895F7019081890F8083C8
:103A7000F0CFF801FACFF7019081981B892FF7CF8B
:103A8000F801FACF0895CF93DF93EC010E9411144F
:103A9000CE01DF91CF910C942929DC01ED91FC91AD
:103AA000369720813181820F931F0C94431DCF9351
:103AB000DF93EC010E94C913CE01DF91CF910C94EA
:103AC0002929DC01ED91FC91369720813181820F0B
:103AD000931F0C94571D0C9429290C942929DC015F
:103AE000ED91FC91369720813181820F931F0C94C8
:103AF0006D1D0C9429290C942929DC01ED91FC9170
:103B0000369720813181820F931F0C947B1D0C947A
:103B10002929FB0101900020E9F73197AF01461BED
:103B2000570BDC01ED91FC910280F381E02D19949B
:103B30008F929F92AF92BF92EF92FF920F931F933B
:103B4000CF93DF93CDB7DEB7A1970FB6F894DEBF62
:103B50000FBECDBF7C01FA01CB0119A2223008F4BF
:103B60002AE08E010F5D1F4F822E912CB12CA12CCB
:103B7000BF01A50194010E94B929F901CA016A3067
:103B80000CF5605DD8016E938D01232B242B252B22
:103B900079F790E080E0109721F0BD01C7010E9405
:103BA000891DA1960FB6F894DEBF0FBECDBFDF9181
:103BB000CF911F910F91FF90EF90BF90AF909F908A
:103BC0008F900895695CDECFCF92DF92EF92FF92E3
:103BD000CF93DF936C01990FEE08FF08F7FE1BC02F
:103BE0006DE28BE399E00E944D0FEC0144275527CD
:103BF000BA014C195D096E097F092AE08BE399E04F
:103C00000E94981D8C0F9D1FDF91CF91FF90EF9028
:103C1000DF90CF9008952AE0B701A6018BE399E0E9
:103C2000DF91CF91FF90EF90DF90CF900C94981D93
:103C3000CF93DF93482F50E070E060E02AE08EE9F8
:103C400094E00E94981DEC016DE673E08EE994E02B
:103C50000E94891D8C0F9D1FDF91CF910895CF93F6
:103C6000DF93BC018EE994E00E94891DEC016DE6B2
:103C700073E08EE994E00E94891D8C0F9D1FDF91F7
:103C8000CF91089580911F04811113C083E00E9499
:103C9000EF10892B09F098C010921E0482E00E9458
:103CA000EF10892B19F081E080931E0481E080934E
:103CB0001F0483E00E94EF10892B09F485C082E085
:103CC0000E94EF10892B39F580911E04813019F57F
:103CD0009091000221E0290FE0910102E150E730CC
:103CE000A8F4F0E08827E858F14E8F4F0C94DB29B8
:103CF0007F1EC91EC91E841EC91ED21ED61E943028
:103D000029F02093000202C09230D9F7809100027E
:103D10008F5F8093000282E00E94EF10892B81F078
:103D200080911E0481110CC080E793E00E942F1E39
:103D3000809100028130F1F584E793E00E942F1E0C
:103D400080919904811107C081E080939904809348
:103D500001028093000210921F048BE793E00E94FF
:103D60002F1E809100020E94181E87E893E00E9497
:103D70002F1E809101020E94181E83E993E00E9489
:103D80002F1E80911E040E94181E8FE693E00C9453
:103D90002F1E4091DE095091DF099417150609F096
:103DA000B0CFB4CF953009F0ACCFB0CF923309F09B
:103DB000A8CFACCF87E793E00E942F1E809100022E
:103DC000815080930002BCCF0895FC01A081B18195
:103DD00050962C9182AD38E0839FC0011124289F1A
:103DE000A001299F500D112470E060E080AD91ADDD
:103DF0000C94B2291F93CF93DF93EC010E949F1B79
:103E00001BAD8AAD180FE881F9818189181768F018
:103E1000EC81FD8130E020E040E060E1CE011995C9
:103E200080E0DF91CF911F910895FE01E658FF4F8A
:103E30008081882319F0CE010E94E51E612FCE01FA
:103E40000E948C1B81E0EDCFCF93DF93EC01FC014E
:103E5000E658FF4F8081882319F0CE010E94E51EAD
:103E600060E0CE01DF91CF910C948C1B1F920F92DA
:103E70000FB60F9211240BB60F922F933F934F93CF
:103E80005F936F937F938F939F93AF93BF93EF93C2
:103E9000FF938EE994E00E94C80FFF91EF91BF91CC
:103EA000AF919F918F917F916F915F914F913F91D2
:103EB0002F910F900BBE0F900FBE0F901F90189573
:103EC0001F920F920FB60F9211240BB60F922F93E1
:103ED0008F939F93EF93FF93E091AE04F091AF0423
:103EE0008081E091B404F091B50482FD1DC0908101
:103EF0008091B7048F5F8F732091B804821741F0CF
:103F0000E091B704F0E0E256FB4F958F8093B70441
:103F1000FF91EF919F918F912F910F900BBE0F907A
:103F20000FBE0F901F9018958081F2CF1F920F92B5
:103F30000FB60F9211242F933F938F939F93AF93BC
:103F4000BF9380918D0490918E04A0918F04B091C5
:103F5000900430918C0423E0230F2D3758F50196FF
:103F6000A11DB11D20938C0480938D0490938E0429
:103F7000A0938F04B0939004809191049091920447
:103F8000A0919304B09194040196A11DB11D80935A
:103F9000910490939204A0939304B0939404BF91DE
:103FA000AF919F918F913F912F910F900FBE0F90E6
:103FB0001F90189526E8230F0296A11DB11DD2CFA0
:103FC0001F920F920FB60F9211240BB60F922F93E0
:103FD0003F934F935F936F937F938F939F93AF9391
:103FE000BF93EF93FF93E0911002F09111021995A6
:103FF000FF91EF91BF91AF919F918F917F916F91C1
:104000005F914F913F912F910F900BBE0F900FBE7C
:104010000F901F9018951F920F920FB60F921124B8
:104020000BB60F922F933F934F935F936F937F93B2
:104030008F939F93AF93BF93EF93FF93E0910E0203
:10404000F0910F021995FF91EF91BF91AF919F9160
:104050008F917F916F915F914F913F912F910F9031
:104060000BBE0F900FBE0F901F9018951F920F92CE
:104070000FB60F9211240BB60F922F933F934F93CD
:104080005F936F937F938F939F93AF93BF93EF93C0
:10409000FF93E0910402F09105021995FF91EF91D1
:1040A000BF91AF919F918F917F916F915F914F9150
:1040B0003F912F910F900BBE0F900FBE0F901F904E
:1040C00018951F920F920FB60F9211240BB60F92F4
:1040D0002F933F934F935F936F937F938F939F9310
:1040E000AF93BF93EF93FF93E0910202F09103022D
:1040F0001995FF91EF91BF91AF919F918F917F9112
:104100006F915F914F913F912F910F900BBE0F9048
:104110000FBE0F901F9018951F920F920FB60F921F
:1041200011240BB60F922F933F934F935F936F938E
:104130007F938F939F93AF93BF93EF93FF93E09100
:104140000C02F0910D021995FF91EF91BF91AF9183
:104150009F918F917F916F915F914F913F912F919F
:104160000F900BBE0F900FBE0F901F9018951F92CF
:104170000F920FB60F9211240BB60F922F933F930D
:104180004F935F936F937F938F939F93AF93BF935F
:10419000EF93FF93E0910A02F0910B021995FF91C2
:1041A000EF91BF91AF919F918F917F916F915F91AF
:1041B0004F913F912F910F900BBE0F900FBE0F901C
:1041C0001F9018951F920F920FB60F9211240BB6E5
:1041D0000F922F933F934F935F936F937F938F93A0
:1041E0009F93AF93BF93EF93FF93E0910802F091F9
:1041F00009021995FF91EF91BF91AF919F918F9116
:104200007F916F915F914F913F912F910F900BBED6
:104210000F900FBE0F901F9018951F920F920FB620
:104220000F9211240BB60F922F933F934F935F93EE
:104230006F937F938F939F93AF93BF93EF93FF936E
:10424000E0910602F09107021995FF91EF91BF915D
:10425000AF919F918F917F916F915F914F913F911E
:104260002F910F900BBE0F900FBE0F901F901895BF
:104270001F920F920FB60F9211240BB60F922F932D
:104280003F934F935F936F937F938F939F93AF93DE
:10429000BF93EF93FF938091B900887F803609F434
:1042A0004DC008F040C0883209F4A7C028F580311D
:1042B00009F49BC0C8F4882309F4F7C0883009F4D6
:1042C00094C0FF91EF91BF91AF919F918F917F919A
:1042D0006F915F914F913F912F910F900BBE0F9077
:1042E0000FBE0F901F901895883109F486C0803258
:1042F00041F78093650414C0803409F49BC040F4F6
:104300008033B9F38833E9F68093650485ECAEC059
:10431000803509F483C0883509F494C0883489F65F
:104320000E94DB11CECF883909F48AC038F588376E
:1043300029F050F4883611F0803719F683E0809325
:1043400066041092640455C0883809F479C0803935
:1043500019F0803809F0B5CF80916404803208F0FC
:104360006FC0E091640481E08E0F809364048091BB
:10437000BB00F0E0EC5BFB4F80833BC0803B39F03F
:10438000D0F4803A09F477C0883A09F09ACF84E0F3
:10439000809366041092430410924204F0E0E0E03F
:1043A00019958091420481110FC081E080934204ED
:1043B0001092220409C0803C09F4A8CF883C09F47B
:1043C000A5CF883B09F07DCFE091430481E08E0FBB
:1043D00080934304F0E0EE5DFB4F80818093BB004F
:1043E000909143048091420429C080918B04809372
:1043F000BB0085EC8093BC0064CF90918A048091CF
:104400008904981758F5E0918A0481E08E0F809313
:104410008A04F0E0E759FB4F8081E9CFE0918A04FC
:1044200081E08E0F80938A048091BB00F0E0E75911
:10443000FB4F808390918A04809189049817C8F279
:1044400085E8D8CFE0918A0481E08E0F80938A04BA
:104450008091BB00F0E0E759FB4F808380916804B6
:1044600081115ECF81E08093670484EA8093BC0071
:104470001092660426CF85EC8093BC0010926604EF
:1044800080916404803230F4E0916404F0E0EC5BED
:10449000FB4F10826091640470E084E494E0F0E0EB
:1044A000E0E01995109264040CCF1092650438CFA7
:1044B000CF93DF93EB0188819981ABE0BAE011964D
:1044C0009C938E932A813B810697EC01E881F981C8
:1044D000E55FF54F3183208312961D921D921D9248
:1044E0001C92159781E290E09483838381E19AE0A6
:1044F000948B838B1582158ADF91CF910895CF938A
:10450000DF93CBE0DAE081E290E09C8F8B8F1D8E11
:104510001E8E1F8E86E090E0A0E0B0E088A399A3F5
:10452000AAA3BBA31CA21DA21EA21FA285EC92E0FF
:10453000998F888F80E288A71AA619A681E19AE050
:104540009CA78BA71DA6AC0163E173E0CE010E947E
:1045500058228FE193E09983888389E293E0998FD1
:10456000888F1A8619861C861B861E861D86188AC9
:104570001F861A8A198A1C8A1B8A8DEC92E09F83F7
:104580008E838EE994E09F8B8E8B88E08D8BDF91FC
:10459000CF910895DB018D919C9111979093E20941
:1045A0008093E10912962D913C910697DC01ED91E3
:1045B000FC91EF51F64F3183208381E290E09483A8
:1045C000838383EE99E0948B838B1582158A0895FB
:1045D000CF93DF93C1EED9E081E290E0988F8F8B8B
:1045E000198E1A8E1B8E86E090E0A0E0B0E08C8FD2
:1045F0009D8FAE8FBF8F18A219A21AA21BA285ECA5
:1046000092E09D8B8C8B80E28CA31EA21DA283EE78
:1046100099E098A78FA319A6AC016FE273E0CE01D1
:104620000E94CA228BE393E09983888385E493E018
:104630009D8B8C8B1E821D8218861F821A8619867E
:104640001C861B861E861D86188A1F868DEC92E0AE
:104650009B838A838EE994E09B8B8A8B80E1898B94
:10466000DF91CF910895CF93DF931092A104109220
:10467000A00488EE93E0A0E0B0E08093A2049093C1
:10468000A304A093A404B093A5048DE493E09093B5
:104690009F0480939E0485EC90E09093AB048093FC
:1046A000AA0484EC90E09093AD048093AC0480EC79
:1046B00090E09093AF048093AE0481EC90E09093EF
:1046C000B1048093B00482EC90E09093B3048093A3
:1046D000B20486EC90E09093B5048093B4041092F9
:1046E000B7041092B8041092B9041092BA046EE99B
:1046F00074E081EE99E00E94E8226EE974E08BE0BC
:104700009AE00E947F2210929D0410929C048EE9F0
:1047100094E090939B0480939A0467E27FE082E0A8
:104720009FE00E94262890939D0480939C04809192
:10473000180290911902A0911A02B0911B02809365
:10474000BE099093BF09A093C009B093C10988E046
:10475000ECE1F2E0A2ECB9E001900D928A95E1F76C
:1047600088E0E4E2F2E0AAECB9E001900D928A95CB
:10477000E1F788E0ECE2F2E0A2EDB9E001900D9201
:104780008A95E1F7C2ECD9E08881229660E00E9428
:10479000461161E08E810E94461189E0CA3CD8072B
:1047A00099F710923E0910923D0983E99EE090939B
:1047B000BB098093BA091092BC091092BD091092EE
:1047C00057098FE593E090933C0980933B09109241
:1047D000400910923F091092540910924B0910920F
:1047E0004C0910924D0910924E098FEF8093550994
:1047F00080935909EDE5F9E083E799E0CFEFC193A4
:104800008E179F07E1F787EA94E19093440980931C
:1048100043098EE096E190934609809345098BEF1A
:104820009BE1909348098093470984E69CE190932B
:104830004A098093490930E020E040E069E08FE3D5
:1048400099E00E94A71410928B0910928A098DE9B1
:104850009EE090937409809373098BE395E09093A5
:1048600078098093770988E08093790910927A0912
:10487000109297091092B70981E08093B80980934C
:10488000B90987E693E090937609809375098FE3E1
:1048900099E00E9484161092860910928809C093AC
:1048A0008709C0938909E0917509F0917609028022
:1048B000F381E02D8FE399E0199580E09FE09093DC
:1048C0008D0980938C0910929A0985E1809369097A
:1048D00084E180936A09C093680988E090E090932E
:1048E000DD098093DC091092DF091092DE0988EB64
:1048F00090E00E948D289093DB098093DA09DF9184
:10490000CF910895CF93DF93CDB7DEB767970FB6FA
:10491000F894DEBF0FBECDBF789484B5826084BDAD
:1049200084B5816084BD85B5826085BD85B58160B3
:1049300085BD80916E00816080936E001092810031
:1049400080918100826080938100809181008160EC
:1049500080938100809180008160809380008091AD
:10496000B10084608093B1008091B0008160809339
:10497000B0008091910082608093910080919100BD
:10498000816080939100809190008160809390007D
:104990008091A10082608093A1008091A10081603C
:1049A0008093A1008091A00081608093A0008091FD
:1049B0002101826080932101809121018160809397
:1049C00021018091200181608093200180917A00F3
:1049D000846080937A0080917A00826080937A006C
:1049E00080917A00816080937A0080917A0080685B
:1049F00080937A001092C100E091AE04F091AF0470
:104A000082E08083E091AA04F091AB041082E091EF
:104A1000AC04F091AD048FEC80831092B604E09169
:104A2000B204F091B30486E08083E091B004F09189
:104A3000B104808180618083E091B004F091B10481
:104A4000808188608083E091B004F091B10480811E
:104A500080688083E091B004F091B10480818F7D03
:104A6000808361E085E00E94461160E083E00E945F
:104A7000461160E082E00E94461160E085E00E94FD
:104A8000461182E49EE1909303028093020280919A
:104A90006A008C7F816080936A00EC9AE091430900
:104AA000F091440930E020E040E06AE08FE399E0D3
:104AB00019958FE399E00E94241F8FE399E00E94EB
:104AC000FA1E8111FACF60E08FE399E00E948C1BFF
:104AD000E0914309F091440930E020E040E06BE0D0
:104AE0008FE399E01995F4E0EF2EF12CA7E1DA2E8F
:104AF00090E080E0FC01E254F64F2081222309F48B
:104B00007DC01082880F991FFC01EE53F64F208163
:104B1000318190E080E0FC01E254F64F4081442373
:104B200009F474C0880F991FFC01E053F64F4081CF
:104B3000518190E080E0FC01E254F64F60816623F1
:104B400009F475C0880F991FFC01E853F64F808166
:104B500091811D8A1E8A1F8A3A8B298B9C8B8B8B95
:104B60001A8619861C861B861E861D86588B4F87C3
:104B70008090DE099090DF0954012FEFA21AB20A4B
:104B80008A149B0408F09DC12091DC093091DD0955
:104B90002A153B0508F060C0C4010996281739079B
:104BA00008F05AC07090DA09C090DB099093DD09D3
:104BB0008093DC09FC01DE9EC001DF9E900D112474
:104BC0000E948D288093DA099093DB09472D5C2D94
:104BD0009C0190E080E088169906D1F121153105FD
:104BE00039F067E1FA01D90101900D926A95E1F778
:104BF0000196495E5F4F295E3F4FEDCF01968430AD
:104C0000910509F077CF2FEF3FEF83CF4091C10996
:104C1000411105C04091D8095091D9098ACF019618
:104C20008430910509F077CF48EB53E082CF609153
:104C3000C109611105C08091D0099091D10989CF36
:104C400001968430910509F076CF8FEF9FEF81CFE9
:104C5000872D9C2D0E9429298091DE099091DF09E2
:104C6000D89E9001D99E300D11248A159B0598F489
:104C7000A091DA09B091DB09A20FB31F109739F0A8
:104C800047E1FE01319601900D924A95E1F70196B8
:104C9000295E3F4FEACFB092DF09A092DE09F1E032
:104CA000EF1AF10809F024CF22242394312CB7E421
:104CB0008B2EBFE09B2E80919904882321F08FE3F7
:104CC00099E00E94241F809199048111A2C1109241
:104CD000B30980918A0990918B09892B41F08091C9
:104CE000A8098093B4098091A9098093B50990928D
:104CF0008D0980928C098FE291E10E94F71828EFCC
:104D000030E042E060E08FE399E00E94AE198EEA65
:104D100098E00E94F7184BEB53E062E082E30E94B8
:104D2000841B40E060E1809180090E94DD1740E52E
:104D30006091810980E50E94DD1719821A821B8229
:104D40001C821D8261E085E00E94461160E085E0E2
:104D50000E94181162E170E080E090E00E94A711CB
:104D600061E085E00E9418118BE990E00197F1F76E
:104D700060E085E00E944611F1E1EF2EF7E2FF2EA0
:104D800085E00E94EF10892B09F0A0C021E0E21A13
:104D9000F108B1F7EEEFEE2EFF24FA9485E695E0E8
:104DA0000E94F718D090B4098091B509D81A2FEF56
:104DB000E216F20609F403C1EF2809F014C181E1FB
:104DC000E82EED0C9AE5F92EF092BC09E092BD09AF
:104DD00080919504909196040E94E41D40EC53E06C
:104DE0006E2D84E60E94841B35E2D30EF092BC093E
:104DF000D092BD0980919704909198040E94E41D7F
:104E000042EC53E06D2D84E60E94841B88E493E01D
:104E10000E94F71845EC53E061E182E50E94841B93
:104E20004EEC53E065E282E50E94841B85E695E046
:104E30000E94F718C090B4098091B509C81AD12C06
:104E40008091DE099091DF09D816190608F0E1C0BB
:104E500081E0D81609F4D6C0D81608F4D0C0E2E034
:104E6000DE1609F4D2C0F3E0DF1609F4D0C00093D7
:104E7000BC091093BD0927E1D29E70011124E09175
:104E8000DA09F091DB09EE0DFF1D66857785611566
:104E9000710521F08BE399E00E94891D0093BC0904
:104EA0008C2D810F8093BD098091DA099091DB09E7
:104EB000E80EF91EF701828593850E94E41DD394C4
:104EC000BFCF1092DF091092DE09E9CE71E1E72E23
:104ED00077E2F72E85E00E94EF10019729F431E088
:104EE000E31AF108B9F756CFE12C58E2C52ED12CC0
:104EF00067E0F62E41E1A42E47E2B42E85E00E9441
:104F0000EF10892B29F481E0A81AB108B9F742CF34
:104F10000E9482112B013C0131E1A32E37E2B32E16
:104F200085E00E94EF10019729F4E1E0AE1AB10884
:104F3000B9F730CF0E948211641975098609970963
:104F4000693271058105910578F0E1E0F0E0EC0F40
:104F5000FD1FEE0DF11D808191010F2C01C0220F6C
:104F60000A94EAF7822B8083F11027C0E39427E0AC
:104F7000F22EF1E0CF1AD10809F0BCCF8981282F99
:104F800030E030939604209395049B81292F30E0E4
:104F90003093980420939704890F9A81890F9C81FC
:104FA000890F21E030E09D81891302C030E020E0CC
:104FB000EE24FF24E21AF30AF1CEFA94DACF6FE07E
:104FC0006D0D4AED53E085E50E94841B6EE16D0D89
:104FD00041EE53E085E50E94841B6DE26D0D4AEEC3
:104FE00053E085E521CF6FE06D0D4AED53E085E597
:104FF0000E94841B6EE16D0D40EF53E0F2CF11E192
:1050000002E035CF11E10AE232CF15E2F9CF15E225
:10501000FACF8FE399E00E94FA1E811154CE68EE18
:1050200073E080E090E00E94A7110E94571043CEE9
:105030008091DA099091DB090E9429298BE09AE09E
:105040000E94C91381EE99E00C9411140F931F93E1
:10505000CF93DF93009759F46115710541F4F0E0A7
:10506000E0E0CF01DF91CF911F910F9108958B0167
:10507000EC016EE070E081E090E00E947128FC019C
:10508000892B69F380E883830115110571F013877B
:10509000028781E883838091390A90913A0A892BAB
:1050A00021F4F0933A0AE093390A2097D1F2D1879C
:1050B000C08783818260838380913B0A90913C0A00
:1050C000892B79F6F0933C0AE0933B0A80913D0AE4
:1050D00090913E0A892B29F6F0933E0AE0933D0A0F
:1050E000C0CF0F931F93CF93DF93869F8001879F3D
:1050F000100D969F100D1124C8010E948D28EC01FF
:10510000009729F0A80170E060E00E94B229CE016A
:10511000DF91CF911F910F9108950F931F93CF931C
:10512000DF938230910510F482E090E0E091410A33
:10513000F091420A30E020E0B0E0A0E0309799F42E
:105140002115310509F44AC0281B390B24303105DB
:10515000D8F58A819B816115710589F1FB019383E3
:105160008283FE0111C04081518102811381481761
:105170005907E0F04817590799F4109761F0129613
:105180000C93129713961C933296CF01DF91CF9117
:105190001F910F9108950093410A1093420AF4CF92
:1051A0002115310551F04217530738F0A901DB01F1
:1051B0009A01BD01DF01F801C1CFEF01F9CF909352
:1051C000420A8093410ACDCFFE01E20FF31F819383
:1051D00091932250310939832883D7CF20913F0AF8
:1051E0003091400A232B41F4209114023091150292
:1051F0003093400A20933F0A20911202309113020B
:105200002115310541F42DB73EB74091160250915A
:105210001702241B350BE0913F0AF091400AE21778
:10522000F307A0F42E1B3F0B2817390778F0AC01C9
:105230004E5F5F4F2417350748F04E0F5F1F5093A6
:10524000400A40933F0A819391939FCFF0E0E0E0C2
:105250009CCFCF93DF930097E9F0FC013297138244
:105260001282A091410AB091420AED0130E020E0A3
:105270001097A1F420813181820F931F20913F0A62
:105280003091400A2817390709F061C0F093400AAD
:10529000E0933F0ADF91CF910895EA01CE17DF072F
:1052A000E8F54A815B819E0141155105B1F7E9019D
:1052B000FB83EA8349915991C40FD51FEC17FD0771
:1052C00061F4808191810296840F951FE901998391
:1052D0008883828193819B838A83F0E0E0E0129649
:1052E0008D919C9113970097B9F52D913C91119751
:1052F000CD010296820F931F20913F0A3091400A00
:105300002817390739F6309751F51092420A109252
:10531000410AB093400AA0933F0ABCCFD383C28313
:1053200040815181840F951FC817D90761F44E5FE2
:105330005F4F88819981480F591F518340838A812B
:105340009B81938382832115310509F0B0CFF093BF
:10535000420AE093410A9ECFFD01DC01C0CF1382D7
:105360001282D7CFDC0101C06D9341505040E0F76D
:105370000895A1E21A2EAA1BBB1BFD010DC0AA1F96
:10538000BB1FEE1FFF1FA217B307E407F50720F0AE
:10539000A21BB30BE40BF50B661F771F881F991F29
:1053A0001A9469F760957095809590959B01AC0172
:1053B000BD01CF010895EE0FFF1F881F8BBF07901F
:1053C000F691E02D19941EE0CFE5DEE000E006C086
:1053D000802FFE010E94DB292196011DC036D107D6
:0A53E00080E00807A9F7F894FFCF5A
:1053EA000101DA11DA11DA11DA11DA11DA11DA1144
:1053FA00DA110000430A8000010101010E000F00CA
:10540A0010001100080009000A000B009803A0030D
:10541A00A803B00318000000000000000000E8FF25
:10542A00E8FF000000000000140000000000000077
:10543A000000ECFFECFF0000000000001815A015AA
:10544A00C019FF1815A115C819FF1815AE19FF18AC
:10545A0015AF19FF1815AE15D5168015A8163F15E4
:10546A00D316001540158D16141520160015A11512
:10547A00C815DA1612158116CF15D916F115DB16CD
:10548A0040152E15A415A619FF0001140A646432EA
:10549A003200127A000004289610080000800040AA
:1054AA0000000000002814871D00000000E01379A6
:1054BA001D9713941391138E13B012831348132F4D
:1054CA001316133612D712B312020000000000F3AB
:1054DA00137B1DFEFFFEFF0000E1137D1D06000089
:1054EA00000000AB136D1DFAFFFAFF000099136F5D
:1054FA001D1F033A0244022903180000000000C9D4
:10550A0013571DE8FFE8FF0000D613611D3B034E49
:10551A0002580245031400000000001114431DEC58
:10552A00FFECFF00001E144D1D00000000EA0F549E
:10553A000F810F3710B20F900FA40F00000000F771
:10554A001CCF1CB012421D8416EE1678160D0A00E6
:10555A004F4B21003121002D2D21004375727265B8
:10556A006E744974656D0043757272656E744D652B
:10557A006E7500666C61670053656E736F723100F9
:10558A0053656E736F72320053656E736F723300B8
:10559A0053656E736F7234002D310054696D650066
:1055AA0025006F430048756D696469747900546514
:1055BA006D70657261747572650053656E736F7292
:1055CA0000636865636B73756D006572726F720054
:0A55DA0054696D65206F75740000C0
:00000001FF
