:100000000C9434240C94493B0C941E3B0C94F33A0E
:100010000C94C83A0C949D3A0C94723A0C94473A5A
:100020000C941C3A0C9465240C9465240C9465245F
:100030000C9465240C9465240C9465240C9465241C
:100040000C9465240C9465240C9465240C9465240C
:100050000C9465240C9465240C9465240C94D2397A
:100060000C9465240C949C390C9472390C9465247E
:100070000C9465240C9465240C9465240C946524DC
:100080000C9465240C9465240C9465240C946524CC
:100090000C9465240C9465240C9465240C94743B96
:1000A0000C9465240C9465240C9465240C946524AC
:1000B0000C9465240C9465240C9465240C9465249C
:1000C0000C9465240C9465240C9465240C9465248C
:1000D0000C9465240C9465240C943C390C941239CE
:1000E0000C9465240C944C380C9419290C944E2DC6
:1000F0000C94C8260C945E350C94EF290C94D424EF
:100100000C9468350C9437370C94F0280C945537C0
:100110000C943F380C9467240C9468330C94D624C8
:100120000C9450350C94D82A0C94F2290C94D326B4
:100130000C94BE260C94D9260C949B2D0C944F380D
:100140000C94DD260C9446290C94082B0C94733DDA
:100150000C94C4250C94EB260C9471370C94EE2867
:100160000C94A2250C94EA2A0C94FB240C94052EE2
:100170000C94F9360C94EF2B0C941F2B0C945A35DD
:100180000C9445340C94F9260C9449380C9466254B
:100190000C9412290C94FE260C9475290C94243589
:1001A0000C9493250C9438350C94322B0C948F2D91
:1001B0000C9446380C944E350C94CC260C949F37F6
:1001C0000C94872A0C9423350C94162A0C94672BD4
:1001D0000C94ED280C94C4260C94CD2A0C949A38D7
:1001E0000C94F5260C94202B0C94D62A0C94D32A2C
:1001F0000C94F8380C94FF280C94E42C0C9455388B
:100200000C945D2B0C94F1260C94EF280C94E326AF
:100210000C942E350C9494380C94BB280C94552ACD
:100220000C94B6250C94E7260C9403270C945C35AB
:100230000C94EB380C9481370C94D0260C94D02A73
:100240000C945A380C94C22A0C94502B0C94F646F9
:100250000C94D8340C94B0340C9442350C9452382D
:100260000C9459250C9471240C94FF260C9453265D
:100270000C94152B0C9406260C946E2A0C94F438CE
:100280000C948E370C94B83700002100240027000E
:100290002A002D0030003300010100000401070195
:1002A0000A0100002200250028002B002E0031004A
:1002B000340002010000050108010B0100002000CC
:1002C0002300260029002C002F003200000100002E
:1002D00003010601090105050505070508080808C9
:1002E000020202020A0A08080404040401010101CE
:1002F00001010101030303030303030304070707C9
:100300000C0C0C0C0C0C0C0C02020202060606066D
:10031000060606060B0B0B0B0B0B0B0B010210203A
:10032000200808102040102040800201020108042B
:1003300002010102040810204080804020100804BF
:100340000201800402018040201008040201080418
:10035000020101020408102040800102040810205C
:10036000408000000A0B02090C0D0E08070304016F
:10037000000000000000000000000000000000007D
:10038000000000000000000000000000000012114A
:10039000100000000000000000000000000000004D
:1003A00000000000000000004D00020303030103F1
:1003B00004050600FF05FF05FF009501510200201E
:1003C0000440262106692A53002206D333911426BD
:1003D000086C3653AA8A082705D12B022B07DB723B
:1003E000D114012C05512A022D054B33032E05494A
:1003F0002A0130076B32948A0031066A2E520E327F
:10040000066B32633933066B32230334076B329148
:10041000442635066B32E44836066B3224453706EF
:100420006B32630E38066B32544539066B32144911
:100430003A06592A51003B06E12991003D06DB327C
:1004400033303F096B32632443110040096D3A3663
:100450002051510541076B3294540542066B3254CA
:100460004543076B3264720044086B3252A49A0011
:1004700045066B32243946076B3224190247076B55
:100480003264241148076B3291AA0A49076B325330
:10049000981A4A076BB24989004B076B32916A4A36
:1004A0004C076B3261E6004D076B3251A50A4E07CF
:1004B0006B329456004F076B32948A0050076B32B0
:1004C00094540251086B329444450052076B3294A5
:1004D000342553066B32E44854076B325398055564
:1004E000076B3291160156086B3291560A00570776
:1004F0006B3291EA0058086B329194250559086BCC
:1005000032912A19015A066B3263395F054B320367
:1005100061065B72130162076B3261481163065B0F
:1005200032E40064066BB2614565065B32D4046652
:10053000096B7252348511006707E33114150168A5
:10054000086B32614849016906692AD1006A076A65
:100550006E31100D6B076B32616A4A6C05692A05B2
:100560006D075D3A5624256E075B325224056F06EF
:100570005B3214017006E33154097106E33114193A
:1005800072065B32640873075B7252240174086B55
:1005900072D114860275065B32914476075B329104
:1005A000940277085D3A5124E50278065B32510ED9
:1005B0007907E3319144067A065B32533400000038
:1005C00004FFFF0000DF0003030404030305080821
:1005D000000008000800000E01B109A9400E782CA7
:1005E0005E1D100C5D82A1382056410E782C5E1DD8
:1005F00010895E52E380580142085536C6504D01BD
:1006000043095535D644245303440E782CC6210E95
:10061000B2830E71900500450E782CC6210EB1C331
:100620000E71880900460D782CC6210EB3430E7159
:10063000980147118824DE2C329A11C59238403235
:100640008B8800480A85255630A7CA2C04490F8894
:1006500024164D241999C843894846024A0F882414
:10066000164D321195C5238A6446024B0F88241615
:100670006D22218DC525C94446024C0F8824164D94
:1006800024118E49A6894846024D0C583456587A92
:1006900088C80151004E0C58346E1C203944C521C5
:1006A000004F0A84268E48178A2C02500A48345676
:1006B000F870084501510A4834AEE47008870052CA
:1006C0000A84264E684211E902530A8525566C5267
:1006D0000AE604540E58344E301296842292506426
:1006E0002855128724664A301291A4483245922236
:1006F000E11000560B742E8EE410118B240057115C
:100700008824162D2609D242A21831228B91005836
:1007100011782C465012944454222A119538E01036
:10072000591288249E581A0A1D22A68824149184DE
:100730002C005A0C682CC6251A89AE462E005B0A7E
:10074000682CC6E5E14172015C0F88248E2D140CE3
:10075000C544A260E4F0305D0D88249E94C86639DB
:10076000C48132005E0E85255650228A8C26A290C6
:100770002C045F108824864DA4C92493C824B28316
:100780000400600B652D56307688054300610A87AA
:100790002406A9E9F0203E6208742EC607520063C1
:1007A0000B8824C6210E191DFE10640E88241631F4
:1007B000143A3CCC21878300650C8625962C941A2C
:1007C000A405A306660C8824C641123C8C351F0480
:1007D000670D88243E202A9D0AA58B5300680B775D
:1007E0002C5E7474A9ACA82C690E772C764CE2129E
:1007F000A18462A120006A0F8724C6212A3D4852A5
:100800002C929443006B0E8724C63BE01049394874
:100810002287016C0F8824A6947290882A128AA4D9
:1008200074186D08363D868526026E09632F56E4DE
:100830001011056F0A632E464872888400700736CF
:1008400035968C62710D682CC61C6023D2A1A1085C
:1008500000720A6834464D2CB9D41A730C682C7691
:1008600078129AD8A84200740C58344E30329AD874
:10087000A832007509642E964449A600760A85259B
:100880004E6CD3642D0677094635968C221A06786D
:100890000E882416CD5231D10E141B0900790E8812
:1008A0002416CDA2523255546C24007A0B87245E54
:1008B000CA447AF821007B0F8824162D1809AB85CD
:1008C000C491608C047C0B682CDEB064391C240756
:1008D0007D0E8824DEB064995522C2F038067E0E63
:1008E0008824DEB064A1D884E1710C007F0E8824D6
:1008F000CE702A19962C8783E4008010682C6E2C09
:1009000014490B896291A4581400810E88249ED04A
:100910006419992626A30C00820B8824C6831C2800
:10092000C77C08830C882446745B641699AE0A84DD
:100930000C882486744B6C129BAE06850C8824C6EA
:10094000218E590E3C1C048610772CC684927208A6
:10095000454287480A65008709782CC63FD80101BF
:1009600088118824162D18094644BA0423C1180991
:1009700000890E8824166D14A1758B8C6224008A60
:100980000E8824C6210EA9A31EE2104B008B0D6811
:100990002CC6210E391C269143018C1288244EF45A
:1009A000108A895242915048163A47008D11882486
:1009B000162D18094B421191A6483046028E0B881D
:1009C000249E58952A473D048F0C8824C6218E2AE0
:1009D000A58AD500900C682C9645A56492A8840C35
:1009E000910E682C162D1809A95042541900920F27
:1009F0008724C670128A4424C3C8C17810930B851B
:100A00002556C846A4994200940B5834C6C8A92656
:100A1000098600950A582C5630222B390D960C6801
:100A20002C8E8C260986464E03970D682CC6C86905
:100A3000148CC8681200980C7625968C72B05826D3
:100A40001400990D78249E946639C4218783009AF6
:100A50000A642E8E840EA148009B08283C864442DE
:100A6000519C0D682CC621620989488743019D0F5E
:100A700088249E5024094B282211E970289E0D8756
:100A8000241E291AAD458B7100019F0D782CC61DBF
:100A900054071EE2906C00A00C8824C6210E9463BB
:100AA0003E1C04A10C882446744B6C129BAE0AA217
:100AB0000C882486745B641699AE06A30B8824C642
:100AC000831CB31C7808A40E8824868CC8960E88D4
:100AD00003C20701A50E682C164D249184289A6440
:100AE0002400A61188245E64488B8C62A15864148B
:100AF000234E01A70C8724C670129A4886870FA838
:100B00000E87245658B81219554A930801A90F8721
:100B100024466414B150229418391900AA0C742E7A
:100B20008E28448A45262200AB0B8824C6F4108701
:100B30001C7E28AC0D8724C6C465120B55868B001D
:100B4000AD098824C6741DEB06AE09662DC66C7906
:100B5000B600AF0F8824164D2491116946892C46A2
:100B600002B00B782476E2301C473904B10F772CA1
:100B700046243B20921D10C90E8864B2108824863A
:100B800044425187A850D4212A1405B30B8824C6A7
:100B9000C8698E34721AB40A8724C6EF8043E51000
:100BA000B50F772CC664120BC542A558281659B646
:100BB0000E782C164D240A86821121A300B70D68E9
:100BC0002C8E487238486C541900B80B762D968CD0
:100BD0007238984802B90B8824C641AC4C733A0865
:100BE000BA0B8824C6C35879783810BB0C48348EA9
:100BF0004812D214114900BC0A842696E22C148BA8
:100C00000DBD0D8724566D28154A85B31200BE0E02
:100C1000782CC6210E39C4218738C802BF0E782C23
:100C2000C6210E39C4218738C404C00E782CC621D1
:100C30000E39C4218738CC00C10E8824E650141325
:100C4000852C26DA740AC20E682C8E29180A868230
:100C500091D18100C3108824069125448903222163
:100C60004A1C1024C40C85259664689CCC21210064
:100C7000C515882456482514078462A158280E08F3
:100C80004544A21000C6118824AE1C1213A585622B
:100C9000A1902C0E9102C70E782C46C40E89D82143
:100CA000113B2462C80E782CC6E43A998326D7C932
:100CB0000400C90B662DA6E820A2494300CA0A76A3
:100CC0002D962C94E5F030CB0B8625962C144D39BF
:100CD0003C0CCC0E782C76E4208DC3A2074918007A
:100CE000CD0E682C9654168AD94231A90800CE112F
:100CF00088248E2918078462B6501C100C5900CF26
:100D0000108824D630168A46A291682826330BD044
:100D1000108824C6412C194992242351847C10D177
:100D20000D762D0E4534148E24341100D208662D14
:100D300086884F02D30A652D467074300501D40AA7
:100D4000662D0EE5F030A100D50E672D562C22AA97
:100D5000582622512C00D60E672C462CA432B19472
:100D600024B11000D70A672C867046712306D80B71
:100D7000672C469066B1D08602D907662DC61F0241
:100D8000DA0C8824169174F840229200DB0C782447
:100D9000C6218E7488231D02DC0E8625965014D140
:100DA000329210631400DD07283CC68300DE0C88F5
:100DB00024C641ACF920135A00DF0B77248E7091C2
:100DC00076B18900E00A772C5E38ED164E03E10D0E
:100DD00088245EC9140C054321AF00E2118724A6C4
:100DE0003094168945324564A2D80C00E30B772471
:100DF000761C269C2D4A01E40F88246E30249A88A4
:100E000026C1A02CF206E50D88249E94C82A8C49A0
:100E10000E0701E6098525864DB70301E70F8824F3
:100E20009658128DA8994A34E20800E80B772C4EA8
:100E30006D38BA85D300E90D882416CD3239B95002
:100E40006C2400EA0C88249E58ED709089D500EB44
:100E50001087245E3818C914924A23B1D80800ECD0
:100E60000E882416910E3B882594109104ED0E787F
:100E70002C465822138B9465127100EE0C58345E88
:100E8000584C9A50243100EF0D8824965868321D32
:100E90000E244D00F00E8526CE24168CC5647150AC
:100EA0000800F10F8824DEB06439CC6629D92249C4
:100EB00000F210882476443691A489A59214D9387A
:100EC00002F3108824162D38A403E28038240E2162
:100ED00001F40B8824EEC65828385D05F50D8525EC
:100EE000566C520A862AB31000F60E5834569A48A9
:100EF00072888864A11000F7138824CE1C20144542
:100F00002521494424894C52C600F80F8824C6B4D0
:100F10004A124D283209494251F911882496294232
:100F20008A90E2804AA412A95C00FA0D68346E1C13
:100F300020B35864A13800FB0F782CC63456A2C4E5
:100F4000017140306402FC1088249E6C52AB514207
:100F5000A3D02C229501FD1387247630128C842295
:100F600049918824459222C900FE0B852556685474
:100F70001A053301FF0F87254E44168E8CC2114A85
:100F8000741A0500000004FFFF01001087254E843D
:100F9000128E8CC21159741A0501010F782CC641AA
:100FA000123C4C828749F02001020B562D96C84214
:100FB00022A50001030D662D46302423D144C10033
:100FC00001040B8724C621AAEBE11001050E772C42
:100FD000C630140BC9DA88120001060D473C86287A
:100FE00025141A8544010107158824162D1809A90E
:100FF0008422925044248A0463240001080F772C31
:1010000046292A8C844451E9210001090E8824C60E
:101010004172885864870F05010A0D8824C641244F
:101020008A89752501010B0F772C468412A1442C67
:1010300035A93804010C0D772C665429E2428950F9
:1010400000010D118724D670168D454421692416A0
:101050001B01010E0F782C76E4108EC3C28748184E
:1010600000010F118724D6E80EC914498A2445923D
:101070002A0001101187248E28240A8942A2902870
:1010800036071D01110F782C869045429150D421CE
:10109000870001120F782C8690A20E39C4212A44B1
:1010A00001011310782CC6210E51A148281222519B
:1010B0000001140C583486C97238444E00011511D1
:1010C00088245E5822215922954849451804011662
:1010D0000C86255E50C4D2280D0101170B84265EB4
:1010E000E87020C90201180F87245E743893C42465
:1010F000A2CAE43001190D87244E251A07CD519557
:1011000000011A0D88246658B9541A4EC500011BF7
:101110001188244E30329AD88834CB68128C000162
:101120001C1087244634124B09DD62B7700C000195
:101130001D108824D63016CA12992465939905018A
:101140001E118824D630168A462293D4504C661637
:101150000000130003020505040506101000FE0A36
:10116000FE0BFF019B03340EA4200600A0470121C3
:1011700008413144714804220885284691B9052365
:101180000F462544D5D3302451CB30443D012412A1
:10119000472544170E4A1449E13C46526510330076
:1011A0002514472544A34949298994344E13298994
:1011B0009292A6002612472544B595B24A28269158
:1011C000968849264D0127078130463104280C8333
:1011D000ED43954449D45B9405290D83E94391453A
:1011E00059D44B9444002A0DE7644457AAB46D497E
:1011F000532D032B0CE7644417D786218B6B002CEF
:101200000982AC43A1240A002D0724284531042E6D
:1012100007422C4431042F0C4625445BAC866958A8
:101220004D013012462544A54549A84D89126D62ED
:1012300012651200310B452944954949D8A741321E
:101240000F4625443324A198665A584D8701331020
:101250004625443324A19846732A8AC99000341045
:10126000462544196A4954C9922C19C6B402350F4F
:101270004625447148AB839CA662322400360F4653
:1012800025443585693A28A163322400370B462569
:1012900044712DA6C5B40938104625443324A13124
:1012A0001992D031191200390E4625443324A13148
:1012B00019D4C668023A09E26C4431C443003B0ABF
:1012C00022ED4331C44AA2003C092529449975ED19
:1012D000003D09A6A44471270E033E09252544912B
:1012E00076EB083F0F4625443324A19886D51C4C45
:1012F00023004012462544356552A2244BA4444A9B
:10130000242DF110410E462544A5452DA1380CA2EF
:101310006300420E4625443128A1715842C761013D
:10132000430E4625443324A1B5A3980C0900440E6E
:1013300046254431445912FA2D192200450D4625FF
:10134000447148AB8392B60E03460C46254471485F
:10135000AB83927605470E4625443324A1B53484E9
:10136000366509480B462544113A0E83E831490B8E
:101370004529443148613F0D024A0E4725443588CE
:10138000714F5994651B004B11462544116A49540D
:10139000C94431C9A25A12064C0946254491F6D7D0
:1013A000614D0D462544118AD3102D1E1D034E108C
:1013B000462544116E9B122991944889760C4F0C56
:1013C0004625443324A13F264302500D462544318F
:1013D00028A17158D2AE00511767E543334461121A
:1013E00026611226611226899248D2900302521079
:1013F0004625443128A17158A25A9225A118530DAF
:101400004625443324A1D9514C8604540A47254427
:1014100071C8E2FE06550B46254411FAC764480020
:101420005611472544915A932CCAA2AC1226699CA6
:1014300001570D462544117A719986681403580F97
:10144000462544118A49D4266A514B2806590E472D
:10145000254491AA4916659534EE065A0B46254453
:10146000712DF69A0E035B0A83F1433144FDD300DC
:101470005C0C46254491C6D5388DAB015D0A83E5E9
:101480004331F54F43005E09666446A54549185F40
:101490000727E4437108600763A8469115610E06AB
:1014A00025443324619A0CA34D5902620E662544EB
:1014B00091B62C9AE8B8290B00630D062544332415
:1014C000A1DA31191200640C662544DBB268A33737
:1014D0006509650F0625443324A1380C6A311912B9
:1014E00000660C6525442785A5410A7B02671366C3
:1014F000A5439B2C5A922559B4A543128AC9900042
:10150000680C66254491B62C9AE86300690B65293E
:101510004415E688D8A7416A0CA5A5435947C43E9F
:101520004A91046B1166254491B625512513932CDD
:10153000AA2561006C0A65294423F64F83006D12C9
:10154000072544B1285124455224455224455201CF
:101550006E0B062544912C9AE863006F0C06254417
:101560003324A18FC99000700E46A543912C9AE8B0
:10157000B8294B9A02710C46A543B368A337654955
:101580000B720B062544912C9AA87605730D06253F
:10159000443324A1EC980C0900740B45254415969E
:1015A0000629EC2A750A06254411FA4D5902760CD3
:1015B000062544111A93A837510277110725449143
:1015C0004A9114499114499154B100780F06254469
:1015D000118A4994895A94846200790E46A5431170
:1015E0007A4C224B5A1912007A0A062544710D7B57
:1015F0001D067B0EA4A943A5646116156B51160A3E
:101600007C07C1B143F1417D0FA4A9432166511666
:10161000966A619648007E0A672446A34991A6000F
:101620007F2310A28391F43B49E7A4930E4936250A
:10163000611A2543924D49984E4332EC9C744E3AC0
:1016400029E907802410A28391F43B49E7A493364B
:101650006999922889A243120D619444C52859744E
:101660004E3A279D94F403812510A28391F43B49BF
:10167000E7A4934AD23225511245431225A7244AA2
:10168000D22892329D93CE492725FD00822210A2B6
:101690008391F43B49E7A4934ED110255112450F95
:1016A000439484513485D1CE49E7A493927E832418
:1016B00010A28391F43B49E7A4932A533428A5242C
:1016C000AA28D330444994442D53B473D239E9A4A1
:1016D000A41F842510A28391F43B49E7A493962884
:1016E000999448298551A244891255A26C8992493E
:1016F000E7A473D249493F852510A28391F43B4961
:10170000E7A4932A43920D49314D9421C9A6244C54
:10171000A36448869D93CE492725FD00861F10A20D
:101720008391F43B49E7A4D3A649194B9969D8C2E0
:10173000248A4ED1CE49E7A493927E872410A283B7
:1017400091F43B49E7A493866852C6523444D230A0
:10175000E44012454332453B279D934E4AFA0188A7
:101760002010A28391F43B49E7A4932AD332350F8A
:1017700051264DD52C2A4D3A279D934E4AFA018980
:101780002110A28391F43B49E7A4D3A2E4A244C56B
:101790007088C244898AA5929D93CE492725FD0071
:1017A0008A2110A28391F43B49E7A493B26452B614
:1017B000A89A4559A4D4C2348CEC9C744E3A29E9B9
:1017C000078B2210A28391F43B49E7A493A670995A
:1017D00092308AA6301AC2527148169D93CE49277C
:1017E00025FD008C2210A28391F43B49E7A493A627
:1017F000301AA2248CA2298C86B0541C2245E7A45E
:1018000073D249493F8D1F10A28391F43B49E7A44D
:1018100053B7508BEAD0166A4996438D3A279D9369
:101820004E4AFA018E1E10A28391F43B49E7A4D3DD
:10183000A6E59803998B1626E974D839E99C745269
:10184000D20F8F1D10A28391F43B49E7A4D3A6E5E4
:101850009803998B16965E744E3A279D94F40390E4
:101860002210A28391F43B49E7A493B66998923081
:101870008D925499921C88B665D139E99C7452D2E4
:101880000F912110A28391F43B49E7A493A65A3209
:101890002551A44DB5648CB2AA36E89C744E3A2901
:1018A000E907922110A28391F43B49E7A493A6CAC9
:1018B0002989C2682A296394A4A934EC9C744E3AFD
:1018C00029E907932110A28391F43B49E7A4D39619
:1018D0006959A31CD032498BD26C8B269D93CE497B
:1018E0002725FD00942010A28391F43B49E7A4D35F
:1018F000A6251AC252311C86B0944D4BB473D2390E
:10190000E9A4A41F952110A28391F43B49E7A4D335
:101910002A59A458B234E949C9126B966491CE4948
:10192000E7A493927E962110A28391F43B49E7A409
:10193000D3964D19A324CAA4C39684513485D1CE1D
:1019400049E7A493927E972410A28391F43B49E740
:10195000A493866453C62889A2219986212C4543E5
:1019600012463B279D934E4AFA01982110A283917B
:10197000F43B49E7A4D3266D18A324964A8A9644DB
:1019800061B4498BCE49E7A493927E992310A28338
:1019900091F43B49E7A4D3A44919B2302B254A3628
:1019A00025519245DAA4EC9C744E3A29E9079A1F16
:1019B00010A28391F43B49E7A4D3A6E598A6521A56
:1019C00069491A6ECBA273D239E9A4A41F9B1F10D8
:1019D000A28391F43B49E7A4D3A6E59886A916ED26
:1019E00040942ED3A273D239E9A4A41F9C1F10A245
:1019F0008391F43B49E7A453974192E21C1243358B
:101A0000CB9131D439E99C7452D20F9D2110A2831D
:101A100091F43B49E7A4D3B4699892308D22299B75
:101A2000C22496B641E7A473D249493F9E2010A232
:101A30008391F43B49E7A413A72C922AE62929496C
:101A400061168759A473D239E9A4A41F9F2310A259
:101A50008391F43B49E7A4D3A46D98922849876405
:101A6000CAA6244CA3241D744E3A279D94F403A0C7
:101A70000600A04701A109413144A10C4300A21274
:101A80004725441787831245521665516510E30CAC
:101A9000A30E472544B7C5C5418CAB832206A410CD
:101AA0000665441126435409C5248A86240CA512D0
:101AB00047254491265925CD8621CB86218B6B0065
:101AC000A60941314431444300A71246254433243A
:101AD000A13C24A1980CB1980C0900A808442847FF
:101AE000114901A9174821443564611259A24409DA
:101AF00095508912494AC26C8800AA0CE56845B322
:101B00002683960CE920AB0D262544D5256A89B29B
:101B1000A82D6AAC07862444716DAD2310A2839171
:101B2000F43B49A72D9136845152948628D292A82D
:101B30003835E99C748621D539E9A4A41FAE18482C
:101B40002144356461924C4A942851A24C4A4989F7
:101B50009262364400AF0626E44671B00A84A84576
:101B6000A34452A200B10E27654417D786218BEB00
:101B7000D83004B20CE52445B364612465E120B398
:101B80000CE52445B36461B26AC902B40863AC468B
:101B9000959400B51448A143134661144661144658
:101BA00061644AA424CE01B61867E543331C9264ED
:101BB000489221899630099330099330099304B7EC
:101BC00007422C453104B80743A843B500B90BE5DB
:101BD0002445954949D83408BA0BE56845B364B63D
:101BE000641E04BB0F26254411B5456D5112B54442
:101BF0004D00BC12462544936D4954C99230AA2821
:101C000015690803BD12462544936D4954C99230A5
:101C1000C9949A964403BE12462544A1459528933B
:101C20009430AA2815690803BF0F46254495E6603D
:101C30001A564331191200C010C6254423EB142D47
:101C40006A09C561101D03C110C6254427E9342D5A
:101C50006A09C561101D03C211C62544A545394551
:101C60008B5A42711844C700C310C6254423D92992
:101C70005AD4128AC3203A06C410C6254413B55359
:101C8000B4A825148741740CC511C62544A54599EF
:101C90008E69514B280E83E818C615472544352810
:101CA000B5288BB26190B2288BB2288B8600C70F03
:101CB00086A5433324A1B5A3980C61A601C810C61C
:101CC000254423EBF030A4D541495B8701C910C6F8
:101CD000254427E9946148AB8392B60E03CA10C627
:101CE0002544A545393C0C697550D2D661CB10C648
:101CF000254413B5C3C3905607256D1D06CC0DC5ED
:101D00002944A3EAD82085FD3408CD0DC52944A572
:101D1000E8F02085FD3408CE0DC5294423D5C14106
:101D20000AFB6910CF0FC529441125510E0E52D858
:101D30004F8300D0154721443364A5300907290992
:101D4000933009932C1A2200D113C6254423D9E1DC
:101D500070DB944889A4444AB46300D20FC625447A
:101D600023EB842109FD31191200D30FC625442726
:101D7000E9A42109FD31191200D40FC62544A54557
:101D8000396148427F4C8604D50FC6254423D909C2
:101D90004312FA63322400D60FC6254413B51386C6
:101DA00024F4C7644800D70CA6A444112651A645C4
:101DB0004918D81586E5439B2C5A924D8994289151
:101DC000126D49A62C2900D90DC6254423EB70E8D5
:101DD0001F932101DA0DC6254427E994D03F2643FD
:101DE00002DB0EC62544A545391CFAC7644800DC51
:101DF0000DC6254413B5C3A17F4C8604DD10C7254D
:101E0000446727A66A924559258DBB01DE106625D9
:101E10004491A6439425A12D19A2B40ADF114625A9
:101E200044336549964415294B424B6401E01086C2
:101E3000254423EB842109D364186DCA12E110866E
:101E4000254427E9A42109D364186DCA12E211863A
:101E50002544A545396148C23419469BB204E310B4
:101E600086254423D9094312A6C930DA9425E41102
:101E700086254413B51386244C9361B4294B00E5A1
:101E800012A62544A545994E1992304D86D1A62C0F
:101E900001E6130725443328512D4A8621CAA22C76
:101EA000AA0C0A00E70E46A5433324A1DA3119C271
:101EB0004C03E81186254423EB842109C561508B2E
:101EC000C99000E91186254427E9A42109C561507C
:101ED0008BC99000EA12862544A5453961484271B4
:101EE00018D462322400EB1186254413B5138624DE
:101EF0001487412D264302EC0B852944A1EAA8D87A
:101F0000A741ED0C852944A5E804B14F8300EE0CF0
:101F100085294423D551B14F8300EF0D8529441104
:101F200025518E8A7D1A04F01186254423655A12A4
:101F30006569328C1E932101F10D86254423D9E178
:101F400064D1441F03F20E86254423EB8421097DCE
:101F50004C8604F30E86254427E9A421097D4C868E
:101F600004F40F862544A545396148421F93210199
:101F7000F50F86254423D9094312FA980C0900F677
:101F80000F86254413B5138624F431191200F70A7D
:101F9000E66444A513EE0409F81346E5439B0C4997
:101FA000362552A2444AB425439202F90C862544B0
:101FB00023EB70E8376509FA0C86254427E994D0AD
:101FC0006FCA12FB0D862544A545391CFA4D5902EE
:101FD000FC0C86254413B5C3A1DF9425FD10C6A5CE
:101FE0004327E994D0631259D2CA9000FE0FA6A5E8
:101FF0004391B62C9AE8B8294B9A02FF10C6A54324
:1020000013B5C3A1C724B2A49521010000000C237D
:10201000F0071025DA05CCFFFF20A0124625443337
:1020200024696550B2241CB2341D0220A113462538
:10203000449724C39428BD2891124DCA960120A22A
:10204000134625443565A29A248B94644928450B90
:102050000020A315482144354C39900339306839A4
:10206000900E630EA40020A411472544B7C5E1B02B
:1020700085C316A783220620A5154725441D0F8971
:10208000122992224552A4484BB4440120A6174776
:1020900025449345592425C390B40C431249919487
:1020A00045590220A716472544A16489960CCBA464
:1020B000489552244552242D0020A8164725443126
:1020C0004659944CD21225A5244AA2488AA4052038
:1020D000A9174765449345599425C390B40C4362AE
:1020E00052A42CCA120020AA1507214431445AA236
:1020F00054948A52512A4AA60C090020AB18A7A56D
:10210000431B0E69B4D4943009933009934C5A722E
:1021100064580020AC12462544A745493848E120C0
:10212000A57194290020AD14472144132659544B1E
:1021300042711892629495C20020AE0E47254471F8
:10214000C8E2789AA7B90D20AF1687A54331465942
:1021500094455994454BA4488AB42C710920B01475
:1021600086A543336549966451124A49454A34B1BC
:102170000920B11A882144336861320C4A980C83D3
:10218000124683960339900339100320B219C6A56D
:1021900043958643525222254BB22459222552128E
:1021A0006589D20C20B317482144A74661140D83DA
:1021B0001226C3A08451188551980020B4174821D5
:1021C000443564610EE440320C92380C4A0E84D9D6
:1021D000100120B519C6A543958643525222254BBE
:1021E000B2244BB22452A264C8D20C20B6164725A2
:1021F00044534CC2241BA6244CC2244CC2244A2261
:102200000520B71987A143354461124639A003510F
:10221000122915A5320C4953520220B80D0721444A
:1022200071C8814316770320B91AAAAD83F1108AC9
:10223000C321D5117988776047722CC7722CC712D9
:102240000020BA116721441557426352B4295954EA
:102250009B0020BB134721449326E1B055C2A465DF
:10226000C9E22C9B0020BC0EE5244415664B454971
:1022700094442920BD124625443344599225D9302F
:10228000858394160120BE15872144956483D2A2CC
:1022900054948ADC0EE440380C0120BF1CC7A143D3
:1022A000958449344C6112266132486112266112CC
:1022B0000E4396844904210317C721449326619253
:1022C000E6C010854998C41D93301A1200210912E6
:1022D000C7214493266192C6C312970729EE0A21AB
:1022E00026104725443328A9D724AB8449B40C21B0
:1022F000900DA7244595A6C390E4400821910CC5F4
:10230000A943952D4D61FF0921920DA72045990301
:10231000C930A4250021930DC5294415F69F92CA02
:10232000160121940FA82045550B936150C22C8AA9
:102330000021950F852944952D4D614F49658B00EE
:1023400021960DC6E4443144629245710121970DF6
:10235000C6E44435845A1255C21421980DC6E4448B
:102360001197B22494860021990DC6A4441B2651CE
:1023700025138708219A1227A5441987491645C3B2
:10238000904461129700219B1127A1441557C22840
:102390001986A896847108219C11AE6885B1833A8C
:1023A000302569166669B803219D11AE60850F4E10
:1023B0003BA06469A266393602219E0FA8204555CC
:1023C0008BB26150A2348A00219F0FC5A943952D7D
:1023D0004DD9D214F6130021A00FA82045558D9297
:1023E00061D0A22C8A0021A110E5E94315F6A7A42B
:1023F000B24549658B0021A20CA724459525593289
:10240000681D21A30EA7204591B50D4A96641100C1
:1024100021A40DA6244555C98621C9A20221A50DD6
:10242000852944952D4D613F0D0221A60EA6244518
:1024300011D59261C892280221A70E8529443148FE
:10244000613F25952D0221A810852944952D4D61C8
:10245000A7A4B245830021A90EC724459B55C2619C
:102460008872200421AA0DC72445936651180D6B6C
:102470000921AB0FC724459B254DC93044C5240213
:1024800021AC10C724459326A5248A86A99644002A
:1024900021AD0FA82045554B94645AC22C8A0021C7
:1024A000AE1628A144990369A24549320C4A9464A6
:1024B000899C03190021AF118625449136552425A6
:1024C000AAD692D2180121B00D65A543956543D4D3
:1024D00012F60121B10E65A9439546839494C21E5C
:1024E0000121B20D452545D953521AA4340221B316
:1024F0000D45294511F6129586AC0421B40DA8A00E
:10250000447107D2A438470021B50D452545D9535C
:10251000521A96340221B60EA8A0443764A1524A3A
:10252000B6280521B70EA8A0443364615449B439D4
:102530000221B80E06E544711E2231C9A2B800215D
:10254000B9136625449164E23088498E26E13088CB
:102550005A1221BA10C66444930C911225A2980C09
:10256000090021BB0EC66444B1449648149321016E
:1025700021D00CA62445150EF320650021D1178526
:102580002944952589A594444994444994444994FF
:1025900044490221D20CA62445170DF230460021F1
:1025A000D317852944534AA2244AA2244AA2244A82
:1025B000A224B1D4220021D40EA82045551B963860
:1025C00019B6280221D515852944952589A5944455
:1025D000499444499424965A0421D610C6E44431BF
:1025E0004449A644493109130021D70FC6E44435B4
:1025F0006449942815250C0121D80FC6E4441326FC
:1026000061524AB4241A0221D90EC6E44459512A0F
:102610004A9464430421E610E8E04417ABC930272C
:10262000C920E9400821E717872544972659E594F2
:1026300084499884499884499884130021E810E8D3
:10264000E0449903D2A094872595330021E91787A8
:1026500025443526611226611226611226D1B26404
:1026600095340323E9172B29849186B6D3100DC91D
:10267000A00CA721D926514B430023EA172B29840C
:102680009966A2B42D43345C0665888668DB4431C4
:102690000D23EB17692D849903EBA00D4332DCE188
:1026A0001C58076D1892E10023EC1769ED83F13295
:1026B0000CD9A0EE400E0F9761C8067507420023A3
:1026C000ED182D258491A6A3386407698886655086
:1026D00006698886EC682D23EE192D258491A6A223
:1026E000B81DA2211A944119A6211AB44328AE0597
:1026F00023EF192A2D849146633464D12045C312F7
:102700000D523464D118A9510023F020CBE9831B6A
:102710004B91A20CCA9226B54A188AA1186AA9142C
:10272000273990A5E13064170023F11DAB2984A956
:10273000433A322852BA649530144331D4211D4AA9
:1027400072204BD3410323F2196B298437A8B51C9F
:1027500048A2584BC550877428C9812C4D070D23BA
:10276000F323AD2584F121CA813007C2288952257F
:10277000D1014587921C527420AD15958A98741A20
:102780001E0223F4126631841B6AD3900C076590F5
:10279000866C540323F513663184918ADB100DCACD
:1027A0007050866813530023F611CBA8849B433BDB
:1027B00030A8C3900D97E12023F711CBA884F1A096
:1027C0000CB76148071DD8A11423F817663584217A
:1027D0000DD1100DD1100DD1100DD1100DD110094A
:1027E00023F90C4A2D84F1FFFFFF3F0423FA134A1B
:1027F0002D84356CC3A00CFFFF2FC3A00D13002543
:10280000800B08A145F1FFFF430025810948A04343
:10281000F1430025820988A043F17F10258309C870
:10282000A043F1FF1F25840B08A143F1FFFF4300E4
:1028300025850B48A143F1FFFF7F1025860B88A15A
:1028400043F1FFFFFF1F25870DC8A143F1FFFFFFE5
:10285000FF430025880D08A243F1FFFFFFFF7F1013
:1028600025890D07A243F1FFFFFFFF4300258A0BD7
:1028700006A243F1FFFFFF1F258B0B05A243F1FFCB
:10288000FF7F10258C0B04A243F1FFFF4300258D31
:102890000903A243F1FF1F258E0902A243F17F1015
:1028A000258F0901A243F1430025900B04B243F1A7
:1028B000FFFF430025911907A24391859916665A97
:1028C000986961A6859916665A98696116259222BB
:1028D00008A24391342515A529A9284D4945694ADF
:1028E0002A4A5352519A928AD2945494A6A401250A
:1028F000932008A243B12CC941599283B2240765A1
:10290000490ECA921C942539284B725096641125A1
:102910009409482047F1430025950901BE43F1433E
:102920000025960904A143F17F1025970904B143BE
:10293000F17F1025980904A145F17F10259917080A
:10294000A24331844338844338844338844338FC79
:10295000FF7F08259A1F08A24331844338844338F7
:1029600084433884438E0CE1100EE1100EE1100E0A
:10297000E110259B1608A243F1FFFF07710887703D
:102980000887700887700801259C1708A243F1FF8B
:10299000FF433884433884433884433884430025D4
:1029A0009D0904B145F17F10259E1F08A24339847B
:1029B000433884433884433884C3200EE1100EE149
:1029C000100EE1100E2100259F1608A24339844302
:1029D0003884433884433884C3FFFF0F0225A00A9C
:1029E000E72444F1FF1F0225A10CE764447150BDA8
:1029F0000E830025A20DE764443328A9D764500054
:102A000025A310E76444715095455994451D06016E
:102A100025A40EE76444715087EB701D060125A5BF
:102A200012E7644471502A4A45A92815A5320C02C0
:102A300025A610E7644471502AC3A5325C2AC3203E
:102A400025A711E764447150A2299A12259AA26120
:102A50001025A811E76444F1944891120D512245C4
:102A6000C32025A912E7644471502A4BB2549664DE
:102A7000A90C830025AA0984A844F1430025AB0AC8
:102A80008428453148D22025AC09872445F13F04EC
:102A900025AD0B8724457150D5611025AE09E4A8FA
:102AA00044F13F0425AF0BE4A84431489E060125BC
:102AB000B00C682045352CC3324C0025B10C682081
:102AC00045352C61324C0025B20DC6E444256A43DD
:102AD0003424C30325B30DC6E444256A514B380C96
:102AE0000125B40A66E444A50DC93025B50A66E49B
:102AF00044A545C93025B60DC6E444210ED1F021C8
:102B0000120125B70DC6E4442126527691440025D2
:102B1000B80A842845210D870825B90A842845214B
:102B200025870825BA0DA6E444210ED170884400FB
:102B300025BB0DA6E444212652B648220025BC0D33
:102B4000C6E444F16588864C940025BD0DC6E44476
:102B5000710893A84D940025BE0A66E444711932A9
:102B60000925BF0A66E4447189320925C00CC6E410
:102B700044290D1FA2211425C10DC6E4442929DBD7
:102B80001629A10025C20A842845351C220125C327
:102B90000A84284535244B2425C40CA6E444290D79
:102BA0008768080525C50CA6E44429295BA484028E
:102BB00025C610E7A444976E83320CC9A0AD190056
:102BC00025C70FE7A444972659254DB24A9A0125F7
:102BD000C80FE7A444972659D2B2744BD20C25C92A
:102BE00010E7A444B55512495924A5964D0025CAAD
:102BF00010466544256A514B2826519B280125CB58
:102C00000EE7A444B555526B9265130025CC10E72E
:102C1000A44495E4509A03690E25110025CD10E7D0
:102C2000A444B5294A8B52515A6C130025CE10E7A3
:102C3000A444B555A248A948952C9B0025CF0EE782
:102C4000A444B50DCAF097419B0025D010E7A444D9
:102C5000B549C93664439648D90425D110E7A44440
:102C6000B5454A366443B644DA0425D20FE7A44496
:102C7000B55552751894419B0025D310E7A444B56F
:102C80000DCA30A86A9265130025D410E7A444B594
:102C9000254B3448839A64D90425D510E7A444B55C
:102CA000454A3664C32119B40925D60BE4A444A5CA
:102CB0000C5F260125D70BE4B044212DC31709254D
:102CC000D81108A243F1FF3F0DE2100ED2F0FF1F12
:102CD00025D91708A243F1FF8768509443A20CC975
:102CE000A20CD2F0FF430025DA0E08A145F1FF87C0
:102CF000685094431225DB1008A143910CC9A20C23
:102D0000D2F0FF430025DC0A846445A5445906251A
:102D1000DD0984704521D60225DE0A84B044574A75
:102D2000240025DF0A84A4449185A10025E00A87B8
:102D30006445B555523525E10C87A44491AA4996BE
:102D40004D0025E20DC6E4431B6AD3900C07012514
:102D5000E30DC6E443918ADB100DCA3025E40DC6AD
:102D6000A445F1A00CD126A60025E50DC6A4457109
:102D700019A4211BD50025E60BA5A444B364B664B1
:102D80000125E70EC6E444F13444433444C310251E
:102D9000E80EC6E444718886688886683825E90E9E
:102DA000C6E444F1900CD1260E430025EA0EC6E499
:102DB000447108B5694886430025EB10C7E44471A7
:102DC0009022299222291A060125EC0FE7A44497A4
:102DD0002661929592D6611025ED0EC6A444256A0F
:102DE0004AA424D3300425EE0FE6A444256A89942E
:102DF00028D1100D0725EF1FADE983BB239A9A0355
:102E0000590ED5A12407755007931CAA43590EA447
:102E10009A8EAC0025F00EC624447148A22112C53A
:102E2000610825F10EC624447108C52152A261082B
:102E300025F20EC6244471084D43940C430025F33B
:102E40000EC624447188126908C5610825F4130868
:102E500021443564499444D9A0C9721266430425BB
:102E6000F51308214435646112CB83266549291B7B
:102E7000220025F61308214435646112DB062D4A31
:102E8000A2241B220025F713082144356451528BDC
:102E9000B4419693301B220025F80EC6A44571C894
:102EA00092A89289290025F90DC6A44571C9A25A94
:102EB00012AA0125FA0DC6E443918A4916D59261FA
:102EC00025FB0BC6E44371081D872125FC09C62498
:102ED00044F1FF0125FD0A8428443148D22025FE13
:102EE00009A56444F11F0225FF0DC6E4431B6A498E
:102EF00054C9862126001387254457AA6439769041
:102F0000066DC72A512D0326010D88A045152FCA2D
:102F10003028C30226020E07A544B50DCA306471DD
:102F20006B0826033410A2839125439443438E24D7
:102F3000C3A0A561544BA2244EE2284DA2248D22A9
:102F400029C981B0920D3B14E7409885433C84B574
:102F50001C88736858012604166725449345595404
:102F60008BB2244CA23412A32C0A450026050FC7AD
:102F7000E4441767C3106D8A942500260610E7E421
:102F8000441767CB9245494991B20426070C25297D
:102F9000449975AD64D2002608100625447108B521
:102FA00024AA6451A24D0326091108214435646105
:102FB000124B9E93301B2200260A10C8A044A7463D
:102FC0006194494A29292600260B10C8A0441326DB
:102FD000A52491B4288C520D260C0DC5A444994506
:102FE00052258A2400260D11272544294659148A82
:102FF000A11865512802260E0EC7644433289A8E04
:10300000B468C301260F11E764443328A9B22483AE
:103010001245EA30082610188B2984F11DD2211D93
:10302000D2211DD2211DD2211DD2A1E10126111BC9
:103030008B2984F11DD2211D1892505132498934B7
:10304000251195559175687826121B8C2984F121DC
:10305000C7744C1115C96DC844DB90492EA2A263F8
:10306000C3430026131145294491694929C9C22C3B
:1030700089929A1626141487A54499283912A5D145
:103080003628C390C5AD2100261520AC2984D5185B
:1030900055A372548D8A519D360C51321C126558BD
:1030A000121D4974601A861026161BAB29849B4397
:1030B000490E64692D07921CD2211DD2211DD221F7
:1030C0001D1A1E261715AB29849B433B30A8C390BD
:1030D0000D97E1FFFFFF4300261823ADE5839BE436
:1030E000D0A023832A4DCA104543321C94218A86DE
:1030F00044CBE41CCDD11CCCC11C022619228D2549
:10310000848FC6536D506AC3521A8624192ED2304A
:1031100028DB3044E130A583146F399800261A0C5F
:1031200087A444711BA4415B00261B0C87A4443375
:103130001CA441DB00261C0B87A444712B49D90237
:10314000261D0DE4A844571914494A1400261E0DE3
:1031500087A444330C5914691B00261F0CE428442F
:10316000A344D2926C0526541467254497AED932F5
:10317000248B144995966150874126551447254460
:10318000176751A52969593A0D52160D0A0026569E
:1031900012272544915486AB9A645196A4EA3008CC
:1031A000265714472544972659298BB228AB44CB80
:1031B000900E83002658136625441B0D49268AC9A4
:1031C000125532511C860026590F062544A5456D1F
:1031D0005AD4120E4300265A1267254497AED932AC
:1031E000248B14499596E10F265B144725441767F5
:1031F00051A52969593A0DD2200D0A00265C1027E5
:1032000025449154863F24833428C31F265D1147EB
:103210002544976E8A94458A3468D3F007265E1257
:103220006625441B0D89323C28833424C31F0426A1
:103230005F10062544A50DD19069433424C30326AD
:10324000601047254417A7DBA00C7F19C474022621
:103250006110272544638922D59A649534CE0026CF
:10326000621145294415664994D4B4A49464610458
:10327000266310472544355EB3E1439268713A01F5
:1032800026641147254417A7495649ADC920A613FE
:103290000026650F2725446319FE4332686B9C01A5
:1032A0002666104529441566D3321C92690B23000B
:1032B0002667124725443526E19A2D437249B438D2
:1032C0009D00268014296D84F190033AA0035AA62C
:1032D000033AA0030F01268114296D84F190033A6B
:1032E000A0A43AA0263AA0030F01268214296D84D7
:1032F000F190034AAA035AA6036AA2030F01268388
:1033000015296D84F190034A96E8800EE880922595
:103310003AF010268415296D84F190034A96E880CE
:1033200096E98092253AF010268516296D84F19051
:10333000034A96E88092253AA064890E3C0427133C
:10334000194DE5838FE6600E463992E5405A0E73BB
:1033500024CAA12407730827141C6FE1830FE7F028
:103360009243CB0E4CF378DD7660D99161C7861C11
:10337000D521002715196B69849303C9BA6C977519
:10338000D0811D18D465BBAC4B0E240027162DEF41
:10339000E1839703E96DD006651892614886876CD2
:1033A00038A8C31D38E4C0EB70D0868764189261DA
:1033B00048066DD0D63507320027171DAC2584A1ED
:1033C00023564D5B151DD9A11DB103922A5A251D07
:1033D000507444C93100271821CCE583A123833AD6
:1033E0006943B6CC838EECC8A003CA3A8DE2B42EF2
:1033F0003A30E848946300274F208C6D84F110E543
:10340000489423438E0C3932E4C89023438E0C3900
:10341000327C1A0ED170082750208C6D84351CA286
:10342000E10F3A32E4C89023438E0C3932E4C8905D
:1034300023438E44C321022751208C6D84F110E573
:10344000889223438E0C3932E4C89023438E0C3982
:10345000327C190ED270082752208C6D84351C9254
:10346000E1DF912147861C197264C8912147861CAF
:10347000197244190E11000000BF00030203040377
:103480000504050D00FE09FE0AFF015F02C4086481
:103490002005006E0721074943C7210922079B5ACF
:1034A000476209230E3D464F294906A53228A52427
:1034B00001240F4D4257362851926D49940C5A04FD
:1034C000250D4D424FA474CC8A498B9400260E459D
:1034D000424F9644495689A22952022706195BC7D2
:1034E00000280BDB3E57122551B7280B290CDB3E79
:1034F00047166551972889002A0A2D5257A5B234DC
:1035000045002B0A2D4A57180D5218012C079B3ED7
:103510008F52022D060D52C7202E089B3E4FB2241B
:10352000002F0B4D42672DCC8A591802300B4D42AB
:103530005796D4BC25B508310B4D42572625614F0F
:103540008300320B4D42CF926961D67110330C4D1E
:1035500042C72066B535D49205340F4D425F984975
:1035600049949492410B1300350C4D42C7B1620A45
:10357000432D5900360D4D42CF9289E19064B664D7
:1035800001370C4D42C72066611666610D380D4D3E
:1035900042CF92D99225B3250B00390D4D42CF92DF
:1035A000D992210CB564013A0BC33E4FB2E448B244
:1035B00024003B0AC33E4FB2E48852023C084D420D
:1035C00067D6B5033D09254AC7A06383003E094D70
:1035D0004247DAAD23003F0C4D42CF92696156CC91
:1035E000A108400D4D42CF92999644492CE91041D3
:1035F0000C4D425796D46CC390D90242104D42C72D
:103600001055A2244AA64A94448302430B4D42CF4C
:103610009289BD250B0044124D42C71055A2244A81
:10362000A2244AA2241A1400450B4D42C7B13824E3
:10363000617110460B4D42C7B13824612300470C1D
:103640004D42CF92894D9B962C00480B4D4247E648
:10365000360C995B004908CB42C712F5654A0B4D01
:1036600042D716F6124512004B0D4D4247664A4AA4
:103670005A1255322D4C094D4247D88F83004D0DBB
:103680004D4247A62D4BA2249A5B004E0D4D42475A
:10369000364D4AA224D24D0B4F0A4D42CF92F92DFE
:1036A0005900500C4D42C79064B641091B01510AA4
:1036B000553ECF92F9A5B206520D4D42C79064B661
:1036C000412955322D530C4D42CF9289E91A6AC9CE
:1036D0000254094D42C72085FD0455094D4247E675
:1036E0006FC902560D4D4247E696949228C9C2080A
:1036F000570D4D4247E62551122551BA00580E4D3F
:103700004247A625A524AB44494D0B590C4D4247D1
:10371000A625A5240B3B015A0C4D42C720666156D5
:10372000CCC2415B09DB3EC710F5A7015C0B4D42E3
:1037300047988669310D035D09DB3EC7D49F86003B
:103740005E081D5A5796D4025F060D3EC7206006DC
:1037500012634714610B3542CF9A0C9AA428016278
:103760000C4D4247581C92CC6D5000630A3542CF35
:103770009289B56401640B4D4267CBA0B925430023
:10378000650C3542CF920D4398250B00660C4D42D7
:10379000975409B3210ADB00670C453ACF92D992BE
:1037A00021D49205680A4D4247D862D2DC026908EA
:1037B000C3424F2875196A0B543A5FACB54952A2FF
:1037C000006B0D4D4247D89494B424AA64016C0850
:1037D000CB4287D42F036D0D354287D2A2244AA253
:1037E000245A006E0935424762D2DC026F0A354224
:1037F000CF92B9250B00700C453AC79064B64109C9
:103800008B00710A453ACFA0D992216C72093542DA
:103810004762121B01730C3542CF92256A92250B29
:1038200000740C45424F980D51D814290075093584
:103830004247E6495102760B354247664B4A4916E4
:1038400001770B35424766499444E902780B3542CB
:103850004796D4C22CA905790C453A47E6A428A17D
:10386000962C007A093542C7A0751C047B0B5D3E7F
:103870009F1436A961AB007C064943C7037D0B5DED
:103880003E871AB64A6193067E091D5A4FA42452F8
:1038900002A005006E07A108494347320C01A20EA1
:1038A000454657B65494288992CA1601A30D4D4235
:1038B000975409B32D2C290A00A40C354647964C81
:1038C0004994444B16A50F4D4247A625A52419A49B
:1038D0006890C208A6084943C7900C01A70ED442BD
:1038E0008F12894A2425A2942800A807936247A230
:1038F00004A90F4D46CF9229C9215A96444B160070
:10390000AA0C3D4ACF9A0C5A32A48300AB0B354621
:1039100057D25392255912AC071D4AC72016AD063F
:103920008B52C700AE0E4D46CF920DC92119945B44
:10393000B200AF060D62C720B009A4568F124989A4
:1039400002B10C3D4657180D5298038300B2082B64
:10395000564F53920CB3072B564FB705B40612635C
:103960008F02B50A453A47E66950C410B6124D4277
:10397000CF30244332244392285112255112B706E6
:103980000A538700B806123B8F02B9082B564F2204
:103990005506BA0A3D4ACF92D9927910BB0C3546EA
:1039A0004792255912253D01BC0C55424F26D6E6BB
:1039B0004C4AA231BD0C55424F26D6D62C09B36CC9
:1039C000BE0F55424F9664699464512625D118BFA5
:1039D0000C4D42570E855931D39205C00E55424FBA
:1039E0009A435952D38621D302C10D55425F1DCA55
:1039F000929A360C9916C20E5542975407B2A4A655
:103A00000D43A605C30E554257D28E64494D1B8601
:103A10004C0BC40F55424F29C9912CA969C3906919
:103A200001C50F55425796646196D4B461C8B4007D
:103A3000C6114D424FB24449944489322551122552
:103A400003C70B5D3ACF9289BD255B0DC80D55426A
:103A50004F9A03C77048C27010C90D55425F1D3898
:103A6000864312868300CA0D554297541DC670487E
:103A7000C27010CB0E55424F298987311C92301CE1
:103A800004CC0AD34247162E519701CD0AD3425790
:103A9000122E519701CE0BD4428F128553D6690155
:103AA000CF0AD34247A2644BD465D0114D42C71010
:103AB00055A2241A92521225D1A000D10D55425779
:103AC000D29C699392489B16D20C55424F9A234B35
:103AD000E62D5900D30B55425F1D59326FC902D4F0
:103AE0000B554297545E326FC902D50C554257D2DE
:103AF0000E2C99B76401D60D55424F29C98125F383
:103B0000962C00D70A2D464796D42AB500D8105DCA
:103B10003E67B24497444994649A922504D90B5560
:103B2000424F9A03996FC902DA0B55425F1DC87C58
:103B30004B1600DB0B55429754CD7C4B1600DC0B2B
:103B400055424F298933DF9205DD0C55425F1DC870
:103B5000B4A4163601DE0D4D42473824996D50C28B
:103B60002200DF0E4D428F548992521255328B0241
:103B7000E00D4D424F9A236B326892A204E10C4D46
:103B8000425F1D599341931425E20C4D4297545EB8
:103B90009341931425E30D4D4257D20EACC9A04971
:103BA0008A12E40E4D424F29C98135193449510218
:103BB000E50E55429754D281351934495102E60B2E
:103BC0003542CF96244B29E902E70B453ACF92893B
:103BD000B564AB01E80E4D424F9A234B360C61960B
:103BE0002C00E90D4D425F1D59B26108B36401EA32
:103BF0000D4D4297545EB26108B36401EB0F4D4224
:103C00004F29C981251B86304B1600EC09CB424752
:103C1000164A5D06ED09CB4257124A5D06EE0ACC04
:103C2000428F12855AA705EF0ACB4247A2645297EA
:103C300001F00D55424F2D53A325734B1600F10B88
:103C40004D4257D29C9834B700F20C4D424F9A2304
:103C50004BE6962C00F30B4D425F1D5932B76401C1
:103C6000F40B4D4297545E32B76401F50C4D425748
:103C7000D20E2C995BB200F60D4D424F29C9812519
:103C8000734B1600F70C3D46579803830E841100C2
:103C9000F80E453E67B2444BA22453B28400F90BA0
:103CA0004D424F9A0399274509FA0B4D425F1DC8B3
:103CB0003C294A00FB0B4D429754CD3C294A00FC5D
:103CC0000B4D424F2989334F8A12FD0D5D3A5F1D1E
:103CD000C89C1425D49205FE0D553A47583169DA2F
:103CE000A4286108FF0E5D3A4F298933274509B59D
:103CF000640100000004FFFF000011000606060634
:103D000005040730300000300030000038000005A6
:103D1000B1403830091D0EA80CF51906CF60183CCB
:103D20008361F00C86C1331806CF60183C8361F0C4
:103D3000A4FFF30C86C1331806CF60183C8361F0F2
:103D40000C86C13318EA6700004143300C115E193C
:103D50004EC6E808219FA4A36C16CD2AC360D8776D
:103D6000692CAD8A4371268FE489408FC8113524B0
:103D70000575A80A16C11A5C822BF8013F40F203B0
:103D800067334846A9301527422558004277300C42
:103D9000115E1952048A742A3801A2400451A160AC
:103DA00014850721380444435A4C8A692131A446BA
:103DB000E4881C87D18016CAE259308B66E12C1446
:103DC00006C4281ED0237848DE931EC1037A100D46
:103DD000A8912C9C45B36016CF4259400DA3F188A1
:103DE0001C514362488B493129254611388284632E
:103DF000281845011A200A44C0294CC5894011A938
:103E0000A102004354D8CB139E249CC49370124F3C
:103E1000C2493C0927F1249CC49370124F45A80C59
:103E200015A1325484CA9378104FE24140880701AB
:103E300021A00384800ED1013A2497C032508849D2
:103E4000213920C823712C0C66D1281E0474880CDB
:103E500013811A548208004450AE1A1D6E0956424E
:103E60006A301523237478928D92592CCDC4893CE5
:103E70008E682125264335B002574152C8FF290CD0
:103E800086A1301886C260180A8361280C86A1308A
:103E90001886C260180A8361280C86A1301886C271
:103EA00060180A836114004542EF0B113E0A5882E4
:103EB0006A4011A6A25CBE5271091AC445680C97EB
:103EC000A1215C884670294886E800219E84A36869
:103ED00016EC725DFF8759B28A46D9269CA48B786E
:103EE00090EF013AC286C818014675700A1D3E055A
:103EF000DE803B6887B185B5483DA44749C04B206B
:103F0000012F8108BAC441D81606615B14066D51B1
:103F100018340671C01A030233048621A12C04430D
:103F200070084C8321300DAD8155AC8A45E03814C2
:103F3000C5C25218090C712430C481C8100742331D
:103F40002407CD9018364362E0080BA1232C848E01
:103F5000B0103C4123F8048DE01334810A00476B14
:103F60002A0C112E19C6C3880813A102547C0C8F89
:103F7000D1353AC7F6D8201A249360928B6251AAA1
:103F80004A85301014C2404C092321258C44A430AA
:103F90001490C2503C0B43F12C8C85B330160DC3EA
:103FA00060300C83B1348C86024A428908111D248A
:103FB0008354400C0801312043C4800C1123124863
:103FC0008C4820317EC03F40024853300C11DE192E
:103FD000CE84992895990953512E23994501890139
:103FE0000924C63390180E41623405C9337128CEB6
:103FF000D491BA244FE41575A48E14111054C48BB7
:10400000FE3C0291F806C6011C1886706014C4813B
:1040100041180904A1549C88D47002004915300944
:104020001D0EA80CF57FC60FF8FF8099A1FECF00EA
:10403000004A861F7C118E10B68266C81057C25A7D
:10404000508CA9213D204390780C82020910062251
:10405000610C064391200A82E1480487C0805C908D
:1040600044D0381203A348180B22812884C4920834
:10407000120D046A4C0B8A213920889308128B4256
:1040800048240B2261308A04D1381281038104064E
:1040900024111404C391180683A1481801C24024B6
:1040A0001883A0680C41E279400D89312DA88485E0
:1040B000B80C5941234C004B77300C113E2946482F
:1040C00067C9301667F2441082F1440E4523491245
:1040D000CB644124140681509AC351710E85E53991
:1040E0001096E7405820C370810EC225320897C849
:1040F0001060A28FE4FD4587E01219844B64102EF6
:10410000D061B04006C2F21C08CB73282ACEE1A0D1
:10411000340784C22092C982582449A2891C8A0784
:10412000423022CFC4B13099A5838C8A09004C1E3D
:104130002A0C110EFCFF3FA012A07EE0821FF00FA0
:10414000F81025839C51227EC03FE0004D411E6C3B
:10415000113E11B04395981611036A3C0EC799425F
:10416000081A8A3485211094C6E3709C4F21040DEF
:10417000459AC210084AE371384E0EC48930524D38
:10418000A481FCC010C5C490984D0A05004E822A37
:104190000C112E1948E36F131C864310110C834138
:1041A000780C855173280CC5614910062291240AA8
:1041B0004391381087E1401807C4801C8A43624845
:1041C0000EC421312487E1A018948360580CCA41A1
:1041D000302C46C161310A0C8C816178CCE7190220
:1041E0000367100C9C41307006E1A01D8603762009
:1041F0000ED8A13858070341218E049448124E620C
:1042000059208B86F368220C45C1201E2202004FE4
:104210006D300C113E29468823682ACB80C12004CA
:1042200085531412CF60409882C3A1702246427A0F
:104230001488CA4120AE0671C818C3216B0887CC08
:10424000211CB08760C020C1E18A04864B1218D2BD
:10425000436A508D9F7A508DD4836A500FE9413D57
:104260004A11580042580328211920859380184884
:1042700003F24C1C2B83593AC8A8980050442D0CCB
:10428000110E35B6CBD471428AA948099006122C7A
:104290002A4680D810430124140252F0038F4A802A
:1042A00011AD6265A84C75B10EC9E11A3C831FF8C7
:1042B000A585F35026C685B8BC31511ECE02050037
:1042C00000000004FFFF00000600060606060204C8
:1042D000073030000030003000003F000002364060
:1042E0003F30A9C32F44D910211E65B364982B73A6
:1042F00069AA4DC5993A93E70931A4A5A4989213E8
:10430000823A54068B68092EE115BC821FF0032403
:10431000C13BA145B00AD5814A4C4DC80000415F60
:10432000302CC21744D910211E65B364186CC245E5
:104330003C08E8109B46C682881649E35124902623
:10434000815096C46151100726391C198590681256
:1043500081B2A9385367F23C2186B4941453724257
:104360005087CA60112DC125BC8257F0037E80247E
:104370007827B40856A13A5089A90919004251EE8C
:104380006BC29FC03A480B68E13C988832412A8D45
:104390000B91296C848EEFE98378904EC249B8C99D
:1043A00036D9285A25B360970B63652C0DC5913E0D
:1043B00090C82008AC4145A80A94813A4C0969117B
:1043C00035A0C723692A0C46E91CA4610200437E7C
:1043D000302CC22F44E908211E65B364982B736901
:1043E0002A0EC5993A93E70931A4A5A4989213829D
:1043F0003A54068B68092EE115BC028981524A4C59
:104400002568389480014D02063411080DA1591019
:1044100001C7E02426C373A00C50A1324403CBF0A3
:10442000110EC341980C869164308C248361241949
:104430000C23C960184906C34832184692C130920D
:104440000C869164308C260242D4000044596E7B65
:10445000C22D012BB41254A2D4801A9D0813A95462
:10446000904A23237205AC4155A010D2226A408F96
:1044700047D25498CB9251360927D9281A5566C18C
:104480001482024B10892B61242C0482B00C8CA165
:10449000323806AA00152882449806D640126002D7
:1044A00029A0051200456E302CC22DC26A508DAD78
:1044B000848EA0111A0366600C9881316006C68054
:1044C000191A8246E00C27637484904FD251368BC0
:1044D00066E5100ECC41080C06C6601818836160B2
:1044E0000C8681310C01E1C01C04C7A2596D944EA9
:1044F000F24142C7C8380D1C41233406CCC01830E5
:104500000363C00C8C013334048DD01156836A6C64
:1045100025580000000004FFFF00005F00020203B6
:1045200003030404050700FF06FF06000112022F23
:10453000032C200500BD012106B1B1192922075B1A
:10454000B7495600230A2DB1AB86AA86AA00240AD1
:104550002DB15B35D820A505250934B1C920F60653
:104560000126092CB18B29563105270599B7192841
:104570000772B153CD00290872B189A952002A07E8
:104580006BB149D56A2B0A2DB1CD280E9951042C57
:10459000075BAF5325002D060CB519012E0652B14D
:1045A00019012F0724B307B10D300873B1AB5C15A7
:1045B00000310773B14BB235320A34B153318358ED
:1045C0008E00330B34B11919248D645200340A342F
:1045D000B18DAA1A318304350A34B1191A6C2493A7
:1045E00002360A34B15319AC289302370B34B1198F
:1045F00019C40C620611380A34B15331A928930248
:10460000390A34B15351A60D92023A076AB11971B1
:10461000043B0833AFB3912A013C086BB14D35C858
:10462000203D081CB319198D003E096BB1C92083C8
:1046300054023F0973B16BA60C1300400934B15307
:1046400051DD4801410934B153518E2903420A34E6
:10465000B15971A4284702430B34B15351830C6202
:104660005200440934B159D1391200450B34B11903
:104670001AAC0C321801460B34B1191AAC0C32C802
:1046800000470A34B153518334D300480834B18908
:10469000724C33490773B159B1354A0B34B107191C
:1046A0006490814C0A4B0A34B1892A4999CA004C5A
:1046B0000C34B1C920830C32C860044D0934B1896F
:1046C000E38866004E0834B1896BA9334F0934B1D1
:1046D00053D1991400500A34B159518E9441065166
:1046E0000A3CAF53D15C49A300520934B159518EF1
:1046F000D40C530A34B1533165542605540773B1B1
:1047000059B10B550834B1899E4901560934B18914
:10471000CE241500570934B189E6386200580A34AE
:10472000B1893249156500590873B1495659015A82
:104730000A34B11919C43618015B0773B119B139BC
:104740005C0924B3C928A38C025D0773B199CD110C
:104750005E0553B96B5F060CB11901600652B98949
:1047600001610824B11B51A902620B34B1C9208335
:1047700015E54800630723B19B1908640A34B107A3
:1047800019A411651A650924B1536964A00066096A
:1047900034B1ADCA99410467092CAF1B31A98C060D
:1047A000680A34B1C9208315CD00690873B1CB48BC
:1047B00056036A097BAFCDB05415006B0B34B1C9F9
:1047C000208394642A036C0773B1915D036D082400
:1047D000B1496948196E0724B159D10C6F0824B149
:1047E0005351260570092CAF59518E940171092C33
:1047F000AF1B51A60D02720824B15951830C7308E6
:1048000024B11B1A0D05740A34B1CB20CE0C321220
:10481000750724B189661A760763B149560577078B
:1048200024B189721C780824B18949AA1879092C05
:10483000AF89329525007A0824B119B11C017B0893
:1048400073B14D49D6207C05B1B1397D0A73B1C928
:1048500020AA9822007E0714B94B2A010000000408
:10486000FFFF0000733DF64611241FBECFEFD1E2DB
:10487000DEBFCDBF00E00CBF15E0A0E0B2E0ECEE83
:10488000F1E900E00BBF02C007900D92A236B1071C
:10489000D9F72CE0A2E6B5E001C01D92AA3CB20710
:1048A000E1F714E2C3E3D4E200E006C02197010976
:1048B000802FFE010E94B948C233D10780E008076B
:1048C000A9F70E94223F0C94E4480C940000662350
:1048D00029F06A3019F0862F90E008958FEF9FEF4E
:1048E0000895CF92DF92EF92FF920F931F93CF9391
:1048F000DF93EC01842F8770E1E0F0E0082E01C027
:10490000EE0F0A94EAF73E2F7E0199E7E90EF11CBB
:10491000D7019C9110E0923018F41E2F913029F1AC
:1049200050E0487FE8ADF9ADC880D980D6015096F7
:104930009C91949F6001959FD00C11246C0D7D2D4E
:10494000711DDF01A60FB71F011115C08C91812BBE
:1049500083278D932150D1F7DF91CF911F910F9134
:10496000FF90EF90DF90CF90089530E0D9CF110FF6
:10497000330F222389F39C91912B93279C938F5F74
:10498000877021508111F3CF9CADA90FB11DF701A4
:104990009081923028F4913009F031E011E0E9CFB4
:1049A00031E0E7CF80E0089580E008951F93CF9332
:1049B000DF93182FC091FD06D091FE068A3041F496
:1049C000E881F9810190F081E02D6DE0CE0119952B
:1049D000E881F9810190F081E02D612FCE011995D8
:1049E00021E030E0019711F430E020E0C901DF91CF
:1049F000CF911F910895CF93DF93C091FD06D09181
:104A0000FE06E881F9810084F185E02DCE0119953B
:104A1000892BB9F3E881F9810284F385E02DCE0179
:104A2000DF91CF911994FC01A089B18982E08C9328
:104A3000A485B5851C92A685B7858FEC8C93108EC6
:104A4000A489B58986E08C93A289B3898C91806111
:104A50008C93A289B3898C9188608C93A289B38945
:104A60008C9180688C930288F389E02D80818F7D02
:104A700080830895CF93DF93C2ECDBE08FAFEAAD84
:104A8000FBAD0190F081E02D86EC9BE01995EAAD3D
:104A9000FBAD0280F381E02D86EC9BE0DF91CF91AE
:104AA00019949B01DC011896ED91FC9141E067E1BE
:104AB00019948B589F4FFC0180818F5F0895DC0112
:104AC000ED91FC910190F081E02D1994AF92BF928D
:104AD000CF92DF92EF92FF920F931F93CF93DF93CA
:104AE0006C017B018B01040F151FEB015E01AE18F9
:104AF000BF08C017D10759F06991D601ED91FC911B
:104B00000190F081E02DC6011995892B79F7C50137
:104B1000DF91CF911F910F91FF90EF90DF90CF9099
:104B2000BF90AF900895FC01538D448D252F30E048
:104B3000842F90E0821B930B541710F0CF960895AA
:104B400001970895FC01918D828D981761F0A28DD7
:104B5000AE0FBF2FB11D5D968C91928D9F5F9F739D
:104B6000928F90E008958FEF9FEF0895FC01918D53
:104B7000828D981731F0828DE80FF11D858D90E0C0
:104B800008958FEF9FEF0895FC01918D228D892F5D
:104B900090E0805C9F4F821B91098F739927089545
:104BA00084E596E00E94C42521E0892B09F420E0E9
:104BB000822F089581E097E00E94C42521E0892B8F
:104BC00009F420E0822F0895FC01A48DA80FB92FCD
:104BD000B11DA35ABF4F2C91848D90E001968F7325
:104BE0009927848FA689B7892C93A089B1898C9144
:104BF000837080648C93938D848D981306C0028893
:104C0000F389E02D80818F7D80830895EF92FF925C
:104C10000F931F93CF93DF93EC0181E0888F9B8DDF
:104C20008C8D98131AC0E889F989808185FF15C099
:104C30009FB7F894EE89FF896083E889F9898081BC
:104C40008370806480839FBF81E090E0DF91CF918B
:104C50001F910F91FF90EF900895F62E0B8D10E0AD
:104C60000F5F1F4F0F731127E02E8C8D8E110CC01C
:104C70000FB607FCFACFE889F989808185FFF5CF67
:104C8000CE010E94E425F1CFEB8DEC0FFD2FF11D3D
:104C9000E35AFF4FF0829FB7F8940B8FEA89FB89A4
:104CA00080818062CFCFCF93DF93EC01888D882302
:104CB000B9F0AA89BB89E889F9898C9185FD03C07F
:104CC000808186FD0DC00FB607FCF7CF8C9185FF64
:104CD000F2CF808185FFEDCFCE010E94E425E9CFA0
:104CE000DF91CF91089580E090E0892B29F00E9418
:104CF000DA2581110E94000080E090E0892B49F0C4
:104D000080E090E0892B29F00E94000081110E9430
:104D1000000080E090E0892B49F080E090E0892B52
:104D200029F00E94000081110E94000080E090E0C4
:104D3000892B29F00E94D02581110C940000089540
:104D40008150823108F05AC0E82FF0E08827E455FE
:104D5000F94D8F4F0C94B948CC26D026BE26C426D8
:104D6000C826FE26D326D926DD26E326E726EB260F
:104D7000F126F526FE26F926FF26032780918000DE
:104D80008F77809380000895809180008F7DF9CF88
:104D900080918000877FF5CF84B58F7784BD08959B
:104DA00084B58F7DFBCF8091B0008F778093B0006A
:104DB00008958091B0008F7DF9CF809190008F771A
:104DC000809390000895809190008F7DF9CF80911D
:104DD0009000877FF5CF8091A0008F778093A0000F
:104DE00008958091A0008F7DF9CF8091A000877FEA
:104DF000F5CF809120018F778093200108958091D5
:104E000020018F7DF9CF80912001877FF5CFCF934F
:104E1000DF93282F30E0F901EE59FC4F8491F9011E
:104E2000E45EFC4FD491F901EA52FD4FC491CC23CA
:104E3000A1F081110E94A026EC2FF0E0EE0FFF1FE1
:104E4000E454FD4FA591B491EC91ED2381E090E005
:104E500009F480E0DF91CF91089580E090E0FACFEF
:104E60001F93CF93DF93282F30E0F901EE59FC4FC9
:104E70008491F901E45EFC4FD491F901EA52FD4FAF
:104E8000C491CC23A9F0162F81110E94A026EC2FEB
:104E9000F0E0EE0FFF1FEE55FD4FA591B4918FB7D7
:104EA000F894EC91111108C0D095DE23DC938FBFEC
:104EB000DF91CF911F910895DE2BF8CFCF93DF9331
:104EC00090E0FC01E45EFC4F24918A529D4FFC016E
:104ED00084918823C9F090E0880F991FFC01E8575E
:104EE000FD4FA591B491FC01EE55FD4FC591D491B4
:104EF00061110DC09FB7F8948C91209582238C93FB
:104F00008881282328839FBFDF91CF910895623045
:104F100051F49FB7F8943C91822F809583238C9312
:104F2000E8812E2BEFCF8FB7F894EC912E2B2C939A
:104F30008FBFEACF3FB7F89480913E0690913F062D
:104F4000A0914006B091410626B5A89B05C02F3F11
:104F500019F00196A11DB11D3FBFBA2FA92F982F9F
:104F60008827BC01CD01620F711D811D911D42E09A
:104F7000660F771F881F991F4A95D1F708958F9262
:104F80009F92AF92BF92CF92DF92EF92FF926B010E
:104F90007C010E949A274B015C01C114D104E104F9
:104FA000F104B9F00E949A27681979098A099B09C6
:104FB000683E73408105910580F321E0C21AD10853
:104FC000E108F10888EE880E83E0981EA11CB11C50
:104FD000E4CFFF90EF90DF90CF90BF90AF909F9085
:104FE0008F9008954F925F926F927F92AF92BF928F
:104FF000CF92DF92EF92FF920F931F93CF93DF93A5
:1050000000D01F921F92CDB7DEB719821A821B8281
:105010001C821D8261E085E00E945E2760E085E0E1
:105020000E94302762E170E080E090E00E94BF279C
:1050300061E085E00E9430278BE990E00197F1F76D
:1050400060E085E00E945E2701E117E285E00E94B2
:105050000727892BC9F401501109C1F78EEF9FEF83
:105060000F900F900F900F900F90DF91CF911F91A5
:105070000F91FF90EF90DF90CF90BF90AF907F9017
:105080006F905F904F90089501E117E285E00E94D4
:105090000727019721F401501109C1F7DFCF28E25A
:1050A000E22EF12C17E000E0CC24C394D12C91E146
:1050B000A92E97E2B92E85E00E940727892B29F4B3
:1050C00081E0A81AB108B9F7C9CF0E949A272B012D
:1050D0003C0181E1A82E87E2B82E85E00E940727D7
:1050E000019729F481E0A81AB108B9F7B7CF0E9457
:1050F0009A2764197509860997096932710581052E
:10510000910578F0E1E0F0E0EC0FFD1FE00FF11DFC
:1051100080819601012E01C0220F0A94EAF7822BAA
:105120008083111126C00F5F17E081E0E81AF108B3
:1051300009F0BDCF8981282F30E0309351062093AC
:1051400050069B81292F30E030935306209352065E
:10515000890F9A81890F9C81890F21E030E09D8120
:10516000891302C030E020E088279927821B930B27
:1051700077CF1150DACF089585ED8093BC008091F0
:10518000BC0084FDFCCF1092170608952091F10514
:10519000260F3327331F21323105ECF420911706F7
:1051A000FC0190E080E0243069F082E00895A09155
:1051B000F1052191AC0141535A4FA40FB52FB11DF8
:1051C0002C930196861798F38091F105680F6093F0
:1051D000F10580E0089581E0089508950895089507
:1051E000E091CC058091CB05E81730F4F0E0E5556F
:1051F000FA4F808190E008958FEF9FEF089590918E
:10520000CC058091CB052FEF3FEF981748F4E92F9D
:10521000F0E0E555FA4F208130E09F5F9093CC0598
:10522000C90108958091CB059091CC05891B990BFC
:105230000895CF92DF92EF92FF920F931F93CF9337
:10524000DF937C01CB018A012091AA05222389F0FA
:10525000EB016B01C40ED51ECC15DD0569F069911B
:10526000D701ED91FC910190F081E02DC7011995D6
:10527000F3CF642F0E94C628C801DF91CF911F9100
:105280000F91FF90EF90DF90CF900895CF93DF9331
:105290001F92CDB7DEB769832091AA052223F9F0CA
:1052A0002091CD05203258F021E030E0FC0133831D
:1052B000228390E080E00F90DF91CF91089580915C
:1052C000CE05E82FF0E0E657FA4F998190838F5F83
:1052D0008093CE058093CD0581E090E0ECCF61E036
:1052E000CE0101960E94C628F7CFCB0108954F92B8
:1052F0005F926F927F92BF92CF92DF92EF92FF9276
:105300000F931F93CF93DF93EC0129013A018B0197
:10531000C12CD12C7601C414D504E604F7040CF09A
:105320003FC0F801B1908F018F8580FF0BC0E881ED
:10533000F9810084F185E02D20E144E070E060E037
:10534000CE011995EB85FC858D859E85E817F907BB
:1053500060F4B0828B859C8501969C878B872FEFAC
:10536000C21AD20AE20AF20AD6CF6B2D70E0E881A7
:10537000F981028CF38DE02DCE011995019679F714
:10538000C701B601DF91CF911F910F91FF90EF9070
:10539000DF90CF90BF907F906F905F904F90089577
:1053A00073016201EDCFCF93DF93EC01E881F981C6
:1053B0000288F389E02D19958F3F980731F02D81F0
:1053C0003E812F5F3F4F3E832D83DF91CF91089524
:1053D0008FEF9FEF089560E070E0CB01089590E0BB
:1053E00080E00895FF920F931F93CF93DF938C017A
:1053F000EB016F3F7607B9F0F62EEAE06E1306C0B8
:105400006DE0F801808991890E945F256F2DF80178
:10541000808991890E945F25CE01DF91CF911F91F4
:105420000F91FF900895D0E0C0E0F6CF7F928F9269
:105430009F92AF92BF92CF92DF92EF92FF920F9323
:105440001F93CF93DF938C0149015A01EB01C12CCB
:10545000D12C7601C814D904EA04FB04B4F4799081
:105460008AE0781206C06DE0F801808991890E9477
:105470005F25672DF801808991890E945F25FFEFE4
:10548000CF1ADF0AEF0AFF0AE5CFC501B401DF91A9
:10549000CF911F910F91FF90EF90DF90CF90BF9031
:1054A000AF909F908F907F900895CF93DF93EC0102
:1054B00088899989DC01ED91FC910084F185E02DCA
:1054C0001995892BA9F388899989DC01ED91FC91C3
:1054D0000284F385E02DDF91CF911994CF93DF9370
:1054E000EC0188899989DC01ED91FC910084F185BA
:1054F000E02D1995892BA9F388899989DC01ED9113
:10550000FC910484F585E02DDF91CF9119948F9261
:105510009F92AF92BF92CF92DF92EF92FF920F9342
:105520001F93CF93DF938C0149015A01EB01C12CEA
:10553000D12C7601D80150968D919C91DC01ED9192
:10554000FC910284F385E02D19958F3F61F0C8141A
:10555000D904EA04FB043CF48993BFEFCB1ADB0ABD
:10556000EB0AFB0AE7CFC701B601DF91CF911F918C
:105570000F91FF90EF90DF90CF90BF90AF909F90F2
:105580008F900895DC0150968D919C91DC01ED91F6
:10559000FC910084F185E02D199490E080E008955D
:1055A00090E080E0089590E080E0089508950895E7
:1055B000DC01ED91FC9136970190F081E02DE80F30
:1055C000F91F84E093E0918380838EE093E09783DA
:1055D0008683089524E033E0FC01318320832EE0AC
:1055E00033E0378326830895FB0120813181FC015C
:1055F00031832083FB014281538126503109F90117
:1056000020813181820F931FFC01518340830895D3
:1056100020E233E0FC01318320832AE233E0318F42
:10562000208F64E173E00C94F42ADC01ED91FC918D
:10563000369720813181820F931F0C94082B089597
:10564000DC01ED91FC9136970190F081E02DE80F9F
:10565000F91F80EF92E0918380838AEF92E0938339
:105660008283089520EF32E0FC01318320832AEF0A
:1056700032E0338322830895FB0120813181FC01D4
:1056800031832083FB014281538126503109F90186
:1056900020813181820F931FFC0151834083089543
:1056A0002CE333E0FC013183208326E433E0358BA7
:1056B000248B60E373E00C943C2BDC01ED91FC91B6
:1056C000369720813181820F931F0C94502B0895BF
:1056D000DC011A96ED91FC9130E020E01994DC0198
:1056E0001496ED91FC9130E020E040E060E11994E7
:1056F000DC011696ED91FC9130E020E040E069E19C
:105700001994DC011696ED91FC9130E020E040E028
:1057100068E119949A01DC011696ED91FC91462FEF
:1057200067E11994EF92FF920F931F93CF93DF934A
:105730001F92CDB7DEB77C018B01D8016C91673128
:1057400029F150F46531A0F40F90DF91CF911F91B2
:105750000F91FF90EF9008956A3118F16E3FA1F715
:10576000F8014181498369E2C7010E94682B0BC09F
:10577000F80141814983D7011696ED91FC9130E003
:1057800020E0C70119950E5F1F4FD7CFF801818127
:105790008983AE014F5F5F4F61E0C7010E948A2B92
:1057A000F2CF0F5F1F4FD7011696ED91FC9130E0BD
:1057B00020E040E0C7011995C0CF462FDC011696C6
:1057C000ED91FC9130E020E066E11994462FDC0178
:1057D0001696ED91FC9130E020E065E11994EF928E
:1057E000FF920F931F93CF93DF93EC01042F790166
:1057F0006D3009F446C050F46B30C9F1693009F4DA
:105800009FC06A3009F465C080E046C06E3009F47C
:1058100052C06F3099F70E94812BF7011381110F4D
:10582000110F110F6C89160F60E4CE010E94E62B58
:10583000612F62956F706061CE010E94E62B612F2F
:105840006F70CE010E94DD2BF7016481606BCE0189
:105850000E94DD2BF701408151816281660F660F46
:10586000660FCE010E948A2B0150A1F72EC060E77F
:1058700072E0442311F06BE672E0CE010E94922B9D
:105880000AC0411110C064E672E00E94922BE881C8
:10589000F98182898C8B81E0DF91CF911F910F91EB
:1058A000FF90EF9008956DE572E00E94922BE881E1
:1058B000F9818389EFCF0E94812B61E8CE010E949C
:1058C000E62B602FCE010E94DD2BCE010E94782BAB
:1058D000E2CFEA85FB8530E020E040E068E2CE01DF
:1058E0001995EE81FF8130E020E040E064E1CE01D7
:1058F000199541E06BE4CE010E94682BE881F981A3
:10590000448169E2CE010E94682B40E06BE4CE0145
:105910000E94682BE881F981448169E2CE010E94EE
:10592000682B41E06BE4CE010E94682BE881F9818D
:10593000458169E2CE010E94682B65E772E09DCF48
:105940008AEA92E0998388831C8AA5CFDC011896A5
:10595000ED91FC9130E020E040E069E11994DC0138
:105960001896ED91FC9130E020E040E068E1199458
:10597000CF93DF931F92CDB7DEB76983BE016F5F10
:105980007F4F0E9451250F90DF91CF910895EF92A4
:10599000FF921F93CF93DF93EC01162F7A010E94A1
:1059A000AF2C60E4CE010E94B82CE885F985970100
:1059B000412F67E1CE011995CE01DF91CF911F9163
:1059C000FF90EF900C94A62CEF92FF921F93CF9331
:1059D000DF93EC01142F7901663181F138F46431E1
:1059E00009F44BC0653179F080E022C06831C9F11B
:1059F00050F16931C9F780918905882391F1CE0171
:105A00000E94A62C2EC080918905882319F0CE0112
:105A10000E94A62CCE010E94AF2C60E0CE010E9415
:105A2000B82C612FCE010E94B82C81E080938905AB
:105A3000DF91CF911F91FF90EF900895642F0E9406
:105A4000B82C81E0F5CF80918905882319F0CE012B
:105A50000E94A62CA701193138F4612FCE010E94B3
:105A6000C72C10928905EDCF68E1CE010E94C72CAA
:105A7000185188E1E80EF11CEDCF8E898F3F11F4AB
:105A800088E78E8BE885F9859701412F64E1CE0187
:105A9000DF91CF911F91FF90EF901994FC01662345
:105AA000D9F16A30C9F1808D811125C06C3F48F071
:105AB00085E0808F617070E0738B628B2EEF3FEF1B
:105AC00029C0683F20F084E0808F6370F4CF603F8E
:105AD00020F083E0808F6770EECF603E20F082E0A0
