:100000000C9404200C9435340C940A340C94DF3393
:100010000C94B4330C9489330C945E330C943333C6
:100020000C9408330C9435200C9435200C94352016
:100030000C9435200C9435200C9435200C943520EC
:100040000C9435200C9435200C9435200C943520DC
:100050000C9435200C9435200C9435200C94BE3231
:100060000C9435200C9488320C945E320C9435201C
:100070000C9435200C9435200C9435200C943520AC
:100080000C9435200C9435200C9435200C9435209C
:100090000C9435200C9435200C9435200C9460344D
:1000A0000C9435200C9435200C9435200C9435207C
:1000B0000C9435200C9435200C9435200C9435206C
:1000C0000C9435200C9435200C9435200C9435205C
:1000D0000C9435200C9435200C9435200C9435204C
:1000E0000C9435200C94D5300C949E310C94A521A1
:1000F0000C9402210C945B360C9444320C949422A0
:100100000C944C250C947C220C946F2E0C94802221
:100110000C946B220C946B260C9449250C94A4200F
:100120000C9486220C94D9250C94AE250C9454255D
:100130000C94622F0C949C220C9403250C94952310
:100140000C94F1230C94862F0C9449310C9441208B
:100150000C945F210C9476220C948A220C949822A1
:100160000C94D2270C94A6220C946C2F0C94D124BE
:100170000C9484250C94A1220C9491250C94372086
:100180000C94922F0C94782F0C946F220C948E2246
:100190000C9448280C94F3300C94F2210C944032C7
:1001A0000C9467220C94882F0C9492240C946D214B
:1001B0000C9452250C940F310C94EA240C94383191
:1001C0000C94A2220C944E2F0C9462310C943C2877
:1001D0000C947A2F0C946B240C949C250C94DA3D8F
:1001E0000C94CC250C9473220C943C210C94CB20C1
:1001F0000C94842F0C949B250C946E240C94273122
:100200000C94022F0C944F250C944B210C94B22883
:100210000C94D8310C9461220C943E250C949030AF
:100220000C940F210C94A6200C9437320C94662564
:100230000C94062E0C94582F0C94DE310C94DA2E6C
:100240000C944D2F0C94E32500002100240027007E
:100250002A002D00300033000101000004010701D5
:100260000A0100002200250028002B002E0031008A
:10027000340002010000050108010B01000020000C
:100280002300260029002C002F003200000100006E
:100290000301060109010505050507050808080809
:1002A000020202020A0A080804040404010101010E
:1002B0000101010103030303030303030407070709
:1002C0000C0C0C0C0C0C0C0C0202020206060606AE
:1002D000060606060B0B0B0B0B0B0B0B010210207B
:1002E000200808102040102040800201020108046C
:1002F0000201010204081020408080402010080400
:100300000201800402018040201008040201080458
:10031000020101020408102040800102040810209C
:10032000408000000A0B02090C0D0E0807030401AF
:1003300000000000000000000000000000000000BD
:10034000000000000000000000000000000012118A
:10035000100000000000000000000000000000008D
:1003600000000000000000004D0002030303010331
:1003700004050600FF05FF05FF009501510200205E
:100380000440262106692A53002206D333911426FD
:10039000086C3653AA8A082705D12B022B07DB727B
:1003A000D114012C05512A022D054B33032E05498A
:1003B0002A0130076B32948A0031066A2E520E32BF
:1003C000066B32633933066B32230334076B329189
:1003D000442635066B32E44836066B322445370630
:1003E0006B32630E38066B32544539066B32144952
:1003F0003A06592A51003B06E12991003D06DB32BD
:1004000033303F096B32632443110040096D3A36A3
:100410002051510541076B3294540542066B32540A
:100420004543076B3264720044086B3252A49A0051
:1004300045066B32243946076B3224190247076B95
:100440003264241148076B3291AA0A49076B325370
:10045000981A4A076BB24989004B076B32916A4A76
:100460004C076B3261E6004D076B3251A50A4E070F
:100470006B329456004F076B32948A0050076B32F0
:1004800094540251086B329444450052076B3294E5
:10049000342553066B32E44854076B3253980555A4
:1004A000076B3291160156086B3291560A005707B6
:1004B0006B3291EA0058086B329194250559086B0C
:1004C00032912A19015A066B3263395F054B3203A8
:1004D00061065B72130162076B3261481163065B50
:1004E00032E40064066BB2614565065B32D4046693
:1004F000096B7252348511006707E33114150168E6
:10050000086B32614849016906692AD1006A076AA5
:100510006E31100D6B076B32616A4A6C05692A05F2
:100520006D075D3A5624256E075B325224056F062F
:100530005B3214017006E33154097106E33114197A
:1005400072065B32640873075B7252240174086B95
:1005500072D114860275065B32914476075B329144
:10056000940277085D3A5124E50278065B32510E19
:100570007907E3319144067A065B32533400000078
:1005800004FFFF0000DF0003030404030305080861
:10059000000008000800000E01B109A9400E782CE7
:1005A0005E1D100C5D82A1382056410E782C5E1D18
:1005B00010895E52E380580142085536C6504D01FD
:1005C00043095535D644245303440E782CC6210ED6
:1005D000B2830E71900500450E782CC6210EB1C372
:1005E0000E71880900460D782CC6210EB3430E719A
:1005F000980147118824DE2C329A11C59238403276
:100600008B8800480A85255630A7CA2C04490F88D4
:1006100024164D241999C843894846024A0F882454
:10062000164D321195C5238A6446024B0F88241655
:100630006D22218DC525C94446024C0F8824164DD4
:1006400024118E49A6894846024D0C583456587AD2
:1006500088C80151004E0C58346E1C203944C52105
:10066000004F0A84268E48178A2C02500A483456B6
:10067000F870084501510A4834AEE470088700520A
:100680000A84264E684211E902530A8525566C52A7
:100690000AE604540E58344E301296842292506466
:1006A0002855128724664A301291A4483245922276
:1006B000E11000560B742E8EE410118B240057119C
:1006C0008824162D2609D242A21831228B91005877
:1006D00011782C465012944454222A119538E01077
:1006E000591288249E581A0A1D22A688241491841F
:1006F0002C005A0C682CC6251A89AE462E005B0ABF
:10070000682CC6E5E14172015C0F88248E2D140C23
:10071000C544A260E4F0305D0D88249E94C866391B
:10072000C48132005E0E85255650228A8C26A29006
:100730002C045F108824864DA4C92493C824B28356
:100740000400600B652D56307688054300610A87EA
:100750002406A9E9F0203E6208742EC60752006301
:100760000B8824C6210E191DFE10640E8824163134
:10077000143A3CCC21878300650C8625962C941A6C
:10078000A405A306660C8824C641123C8C351F04C0
:10079000670D88243E202A9D0AA58B5300680B779D
:1007A0002C5E7474A9ACA82C690E772C764CE212DE
:1007B000A18462A120006A0F8724C6212A3D4852E5
:1007C0002C929443006B0E8724C63BE010493948B5
:1007D0002287016C0F8824A6947290882A128AA41A
:1007E00074186D08363D868526026E09632F56E41F
:1007F0001011056F0A632E46487288840070073610
:1008000035968C62710D682CC61C6023D2A1A1089C
:1008100000720A6834464D2CB9D41A730C682C76D1
:1008200078129AD8A84200740C58344E30329AD8B4
:10083000A832007509642E964449A600760A8525DB
:100840004E6CD3642D0677094635968C221A0678AD
:100850000E882416CD5231D10E141B0900790E8852
:100860002416CDA2523255546C24007A0B87245E94
:10087000CA447AF821007B0F8824162D1809AB850D
:10088000C491608C047C0B682CDEB064391C240796
:100890007D0E8824DEB064995522C2F038067E0EA3
:1008A0008824DEB064A1D884E1710C007F0E882416
:1008B000CE702A19962C8783E4008010682C6E2C49
:1008C00014490B896291A4581400810E88249ED08B
:1008D0006419992626A30C00820B8824C6831C2841
:1008E000C77C08830C882446745B641699AE0A841E
:1008F0000C882486744B6C129BAE06850C8824C62B
:10090000218E590E3C1C048610772CC684927208E6
:10091000454287480A65008709782CC63FD80101FF
:1009200088118824162D18094644BA0423C11809D1
:1009300000890E8824166D14A1758B8C6224008AA0
:100940000E8824C6210EA9A31EE2104B008B0D6851
:100950002CC6210E391C269143018C1288244EF49A
:10096000108A895242915048163A47008D118824C6
:10097000162D18094B421191A6483046028E0B885D
:10098000249E58952A473D048F0C8824C6218E2A20
:10099000A58AD500900C682C9645A56492A8840C75
:1009A000910E682C162D1809A95042541900920F67
:1009B0008724C670128A4424C3C8C17810930B855B
:1009C0002556C846A4994200940B5834C6C8A92697
:1009D000098600950A582C5630222B390D960C6842
:1009E0002C8E8C260986464E03970D682CC6C86946
:1009F000148CC8681200980C7625968C72B0582614
:100A00001400990D78249E946639C4218783009A36
:100A10000A642E8E840EA148009B08283C8644421E
:100A2000519C0D682CC621620989488743019D0F9E
:100A300088249E5024094B282211E970289E0D8796
:100A4000241E291AAD458B7100019F0D782CC61DFF
:100A500054071EE2906C00A00C8824C6210E9463FB
:100A60003E1C04A10C882446744B6C129BAE0AA257
:100A70000C882486745B641699AE06A30B8824C682
:100A8000831CB31C7808A40E8824868CC8960E8814
:100A900003C20701A50E682C164D249184289A6480
:100AA0002400A61188245E64488B8C62A1586414CB
:100AB000234E01A70C8724C670129A4886870FA878
:100AC0000E87245658B81219554A930801A90F8762
:100AD00024466414B150229418391900AA0C742EBB
:100AE0008E28448A45262200AB0B8824C6F4108742
:100AF0001C7E28AC0D8724C6C465120B55868B005E
:100B0000AD098824C6741DEB06AE09662DC66C7946
:100B1000B600AF0F8824164D2491116946892C46E2
:100B200002B00B782476E2301C473904B10F772CE1
:100B300046243B20921D10C90E8864B2108824867A
:100B400044425187A850D4212A1405B30B8824C6E7
:100B5000C8698E34721AB40A8724C6EF8043E51040
:100B6000B50F772CC664120BC542A558281659B686
:100B70000E782C164D240A86821121A300B70D6829
:100B80002C8E487238486C541900B80B762D968C10
:100B90007238984802B90B8824C641AC4C733A08A5
:100BA000BA0B8824C6C35879783810BB0C48348EE9
:100BB0004812D214114900BC0A842696E22C148BE8
:100BC0000DBD0D8724566D28154A85B31200BE0E43
:100BD000782CC6210E39C4218738C802BF0E782C64
:100BE000C6210E39C4218738C404C00E782CC62112
:100BF0000E39C4218738CC00C10E8824E650141366
:100C0000852C26DA740AC20E682C8E29180A868270
:100C100091D18100C31088240691254489032221A3
:100C20004A1C1024C40C85259664689CCC212100A4
:100C3000C515882456482514078462A158280E0833
:100C40004544A21000C6118824AE1C1213A585626B
:100C5000A1902C0E9102C70E782C46C40E89D82183
:100C6000113B2462C80E782CC6E43A998326D7C972
:100C70000400C90B662DA6E820A2494300CA0A76E3
:100C80002D962C94E5F030CB0B8625962C144D39FF
:100C90003C0CCC0E782C76E4208DC3A207491800BA
:100CA000CD0E682C9654168AD94231A90800CE116F
:100CB00088248E2918078462B6501C100C5900CF66
:100CC000108824D630168A46A291682826330BD085
:100CD000108824C6412C194992242351847C10D1B8
:100CE0000D762D0E4534148E24341100D208662D55
:100CF00086884F02D30A652D467074300501D40AE8
:100D0000662D0EE5F030A100D50E672D562C22AAD7
:100D1000582622512C00D60E672C462CA432B194B2
:100D200024B11000D70A672C867046712306D80BB1
:100D3000672C469066B1D08602D907662DC61F0281
:100D4000DA0C8824169174F840229200DB0C782487
:100D5000C6218E7488231D02DC0E8625965014D180
:100D6000329210631400DD07283CC68300DE0C8835
:100D700024C641ACF920135A00DF0B77248E709102
:100D800076B18900E00A772C5E38ED164E03E10D4E
:100D900088245EC9140C054321AF00E2118724A604
:100DA0003094168945324564A2D80C00E30B7724B1
:100DB000761C269C2D4A01E40F88246E30249A88E4
:100DC00026C1A02CF206E50D88249E94C82A8C49E1
:100DD0000E0701E6098525864DB70301E70F882434
:100DE0009658128DA8994A34E20800E80B772C4EE9
:100DF0006D38BA85D300E90D882416CD3239B95043
:100E00006C2400EA0C88249E58ED709089D500EB84
:100E10001087245E3818C914924A23B1D80800EC10
:100E20000E882416910E3B882594109104ED0E78BF
:100E30002C465822138B9465127100EE0C58345EC8
:100E4000584C9A50243100EF0D8824965868321D72
:100E50000E244D00F00E8526CE24168CC5647150EC
:100E60000800F10F8824DEB06439CC6629D9224904
:100E700000F210882476443691A489A59214D938BA
:100E800002F3108824162D38A403E28038240E21A2
:100E900001F40B8824EEC65828385D05F50D85252C
:100EA000566C520A862AB31000F60E5834569A48E9
:100EB00072888864A11000F7138824CE1C20144582
:100EC0002521494424894C52C600F80F8824C6B411
:100ED0004A124D283209494251F911882496294273
:100EE0008A90E2804AA412A95C00FA0D68346E1C54
:100EF00020B35864A13800FB0F782CC63456A2C426
:100F0000017140306402FC1088249E6C52AB514247
:100F1000A3D02C229501FD1387247630128C8422D5
:100F200049918824459222C900FE0B8525566854B4
:100F30001A053301FF0F87254E44168E8CC2114AC5
:100F4000741A0500000004FFFF01001087254E847D
:100F5000128E8CC21159741A0501010F782CC641EA
:100F6000123C4C828749F02001020B562D96C84254
:100F700022A50001030D662D46302423D144C10073
:100F800001040B8724C621AAEBE11001050E772C82
:100F9000C630140BC9DA88120001060D473C8628BA
:100FA00025141A8544010107158824162D1809A94E
:100FB0008422925044248A0463240001080F772C71
:100FC00046292A8C844451E9210001090E8824C64F
:100FD0004172885864870F05010A0D8824C6412490
:100FE0008A89752501010B0F772C468412A1442CA8
:100FF00035A93804010C0D772C665429E24289503A
:1010000000010D118724D670168D454421692416E0
:101010001B01010E0F782C76E4108EC3C28748188E
:1010200000010F118724D6E80EC914498A2445927D
:101030002A0001101187248E28240A8942A29028B0
:1010400036071D01110F782C869045429150D4210E
:10105000870001120F782C8690A20E39C4212A44F1
:1010600001011310782CC6210E51A14828122251DB
:101070000001140C583486C97238444E0001151111
:1010800088245E58222159229548494518040116A2
:101090000C86255E50C4D2280D0101170B84265EF4
:1010A000E87020C90201180F87245E743893C424A5
:1010B000A2CAE43001190D87244E251A07CD519597
:1010C00000011A0D88246658B9541A4EC500011B38
:1010D0001188244E30329AD88834CB68128C0001A3
:1010E0001C1087244634124B09DD62B7700C0001D6
:1010F0001D108824D63016CA1299246593990501CB
:101100001E118824D630168A462293D4504C661677
:1011100000005F0002020303030404050700FF064A
:10112000FF06000112022F032C200500BD0121063D
:10113000B1B1192922075BB7495600230A2DB1AB7B
:1011400086AA86AA00240A2DB15B35D820A50525DC
:101150000934B1C920F6060126092CB18B29563174
:1011600005270599B719280772B153CD00290872D0
:10117000B189A952002A076BB149D56A2B0A2DB152
:10118000CD280E9951042C075BAF5325002D060C7A
:10119000B519012E0652B119012F0724B307B10D5D
:1011A000300873B1AB5C1500310773B14BB2353207
:1011B0000A34B1533183588E00330B34B1191924DA
:1011C0008D645200340A34B18DAA1A318304350A71
:1011D00034B1191A6C249302360A34B15319AC286D
:1011E0009302370B34B11919C40C620611380A3452
:1011F000B15331A9289302390A34B15351A60D9243
:10120000023A076AB11971043B0833AFB3912A015E
:101210003C086BB14D35C8203D081CB319198D0031
:101220003E096BB1C9208354023F0973B16BA60C10
:101230001300400934B15351DD4801410934B15321
:10124000518E2903420A34B15971A4284702430B35
:1012500034B15351830C625200440934B159D1392D
:101260001200450B34B1191AAC0C321801460B347C
:10127000B1191AAC0C32C800470A34B15351833447
:10128000D300480834B189724C33490773B159B15E
:10129000354A0B34B107196490814C0A4B0A34B1BA
:1012A000892A4999CA004C0C34B1C920830C32C830
:1012B00060044D0934B189E38866004E0834B18971
:1012C0006BA9334F0934B153D1991400500A34B18A
:1012D00059518E944106510A3CAF53D15C49A30049
:1012E000520934B159518ED40C530A34B15331657B
:1012F000542605540773B159B10B550834B1899E72
:101300004901560934B189CE241500570934B189F1
:10131000E6386200580A34B1893249156500590827
:1013200073B1495659015A0A34B11919C436180112
:101330005B0773B119B1395C0924B3C928A38C02C6
:101340005D0773B199CD115E0553B96B5F060CB1A2
:101350001901600652B98901610824B11B51A90223
:10136000620B34B1C9208315E54800630723B19BA4
:101370001908640A34B10719A411651A650924B162
:10138000536964A000660934B1ADCA994104670984
:101390002CAF1B31A98C06680A34B1C9208315CD46
:1013A00000690873B1CB4856036A097BAFCDB054CE
:1013B00015006B0B34B1C9208394642A036C077346
:1013C000B1915D036D0824B1496948196E0724B1D4
:1013D00059D10C6F0824B15351260570092CAF590F
:1013E000518E940171092CAF1B51A60D0272082475
:1013F000B15951830C730824B11B1A0D05740A34BA
:10140000B1CB20CE0C3212750724B189661A76074B
:1014100063B1495605770724B189721C780824B155
:101420008949AA1879092CAF89329525007A0824B0
:10143000B119B11C017B0873B14D49D6207C05B1AF
:10144000B1397D0A73B1C920AA9822007E0714B968
:101450004B2A0100000004FFFF00001300030205F7
:1014600005040506101000FE0AFE0BFF019B033465
:101470000EA4200600A04701210841314471480410
:10148000220885284691B905230F462544D5D33037
:101490002451CB30443D012412472544170E4A14F1
:1014A00049E13C4652651033002514472544A349C1
:1014B00049298994344E1329899292A6002612470D
:1014C0002544B595B24A282691968849264D01278C
:1014D000078130463104280C83ED43954449D45BA1
:1014E0009405290D83E943914559D44B9444002A2E
:1014F0000DE7644457AAB46D49532D032B0CE764E0
:101500004417D786218B6B002C0982AC43A1240A97
:10151000002D0724284531042E07422C4431042F86
:101520000C4625445BAC8669584D01301246254473
:10153000A54549A84D89126D6212651200310B450F
:101540002944954949D8A741320F4625443324A15F
:1015500098665A584D870133104625443324A19884
:1015600046732A8AC990003410462544196A4954A2
:10157000C9922C19C6B402350F4625447148AB8375
:101580009CA662322400360F4625443585693A28E8
:10159000A163322400370B462544712DA6C5B4093A
:1015A00038104625443324A1311992D03119120044
:1015B000390E4625443324A13119D4C668023A09AC
:1015C000E26C4431C443003B0A22ED4331C44AA2D9
:1015D000003C092529449975ED003D09A6A44471F4
:1015E000270E033E092525449176EB083F0F46253B
:1015F000443324A19886D51C4C2300401246254430
:10160000356552A2244BA4444A242DF110410E46C4
:101610002544A5452DA1380CA26300420E46254461
:101620003128A1715842C76101430E462544332435
:10163000A1B5A3980C0900440E4625443144591223
:10164000FA2D192200450D4625447148AB8392B608
:101650000E03460C4625447148AB83927605470E2F
:101660004625443324A1B53484366509480B462504
:1016700044113A0E83E831490B4529443148613F12
:101680000D024A0E4725443588714F5994651B0059
:101690004B11462544116A4954C94431C9A25A1212
:1016A000064C0946254491F6D7614D0D4625441157
:1016B0008AD3102D1E1D034E10462544116E9B1219
:1016C0002991944889760C4F0C4625443324A13F38
:1016D000264302500D4625443128A17158D2AE0050
:1016E000511767E5433344611226611226611226C1
:1016F000899248D290030252104625443128A171A4
:1017000058A25A9225A118530D4625443324A1D935
:10171000514C8604540A47254471C8E2FE06550B15
:1017200046254411FAC76448005611472544915A8A
:10173000932CCAA2AC1226699C01570D4625441170
:101740007A719986681403580F462544118A49D442
:10175000266A514B2806590E47254491AA49166519
:101760009534EE065A0B462544712DF69A0E035B0E
:101770000A83F1433144FDD3005C0C46254491C6F5
:10178000D5388DAB015D0A83E54331F54F43005EEB
:1017900009666446A54549185F0727E44371086058
:1017A0000763A8469115610E0625443324619A0CFF
:1017B000A34D5902620E66254491B62C9AE8B829C9
:1017C0000B00630D0625443324A1DA31191200649D
:1017D0000C662544DBB268A3376509650F0625440E
:1017E0003324A1380C6A31191200660C6525442790
:1017F00085A5410A7B02671366A5439B2C5A922557
:1018000059B4A543128AC99000680C66254491B664
:101810002C9AE86300690B65294415E688D8A7412E
:101820006A0CA5A5435947C43E4A91046B1166252D
:101830004491B625512513932CAA2561006C0A65A5
:10184000294423F64F83006D12072544B128512403
:101850004552244552244552016E0B062544912CD5
:101860009AE863006F0C0625443324A18FC99000C9
:10187000700E46A543912C9AE8B8294B9A02710C38
:1018800046A543B368A33765490B720B06254491FF
:101890002C9AA87605730D0625443324A1EC980CE8
:1018A0000900740B45254415960629EC2A750A068D
:1018B000254411FA4D5902760C062544111A93A8B5
:1018C0003751027711072544914A911449911449DF
:1018D0009154B100780F062544118A4994895A948D
:1018E000846200790E46A543117A4C224B5A191294
:1018F000007A0A062544710D7B1D067B0EA4A943C0
:10190000A5646116156B51160A7C07C1B143F141FC
:101910007D0FA4A94321665116966A619648007E00
:101920000A672446A34991A6007F2310A28391F45D
:101930003B49E7A4930E493625611A2543924D4948
:10194000984E4332EC9C744E3A29E907802410A249
:101950008391F43B49E7A493366999922889A2437D
:10196000120D619444C52859744E3A279D94F4038E
:10197000812510A28391F43B49E7A4934AD23225F2
:10198000511245431225A7244AD22892329D93CE64
:10199000492725FD00822210A28391F43B49E7A448
:1019A000934ED110255112450F439484513485D163
:1019B000CE49E7A493927E832410A28391F43B49FD
:1019C000E7A4932A533428A524AA28D33044499461
:1019D000442D53B473D239E9A4A41F842510A283E3
:1019E00091F43B49E7A4939628999448298551A2FC
:1019F00044891255A26C899249E7A473D249493FA0
:101A0000852510A28391F43B49E7A4932A43920DC4
:101A100049314D9421C9A6244CA36448869D93CE98
:101A2000492725FD00861F10A28391F43B49E7A4B6
:101A3000D3A649194B9969D8C2248A4ED1CE49E719
:101A4000A493927E872410A28391F43B49E7A49348
:101A5000866852C6523444D230E44012454332457F
:101A60003B279D934E4AFA01882010A28391F43BB4
:101A700049E7A4932AD332350F51264DD52C2A4D50
:101A80003A279D934E4AFA01892110A28391F43B93
:101A900049E7A4D3A2E4A244C57088C244898AA5B8
:101AA000929D93CE492725FD008A2110A28391F4AF
:101AB0003B49E7A493B26452B6A89A4559A4D4C24C
:101AC000348CEC9C744E3A29E9078B2210A2839146
:101AD000F43B49E7A493A6709992308AA6301AC2C3
:101AE000527148169D93CE492725FD008C2210A2E5
:101AF0008391F43B49E7A493A6301AA2248CA2292F
:101B00008C86B0541C2245E7A473D249493F8D1FEF
:101B100010A28391F43B49E7A453B7508BEAD01647
:101B20006A4996438D3A279D934E4AFA018E1E10BC
:101B3000A28391F43B49E7A4D3A6E59803998B16B9
:101B400026E974D839E99C7452D20F8F1D10A283F4
:101B500091F43B49E7A4D3A6E59803998B16965ECA
:101B6000744E3A279D94F403902210A28391F43B83
:101B700049E7A493B6699892308D925499921C8843
:101B8000B665D139E99C7452D20F912110A283918C
:101B9000F43B49E7A493A65A322551A44DB5648C71
:101BA000B2AA36E89C744E3A29E907922110A28322
:101BB00091F43B49E7A493A6CA2989C2682A2963FC
:101BC00094A4A934EC9C744E3A29E907932110A2FD
:101BD0008391F43B49E7A4D3966959A31CD03249B9
:101BE0008BD26C8B269D93CE492725FD0094201027
:101BF000A28391F43B49E7A4D3A6251AC252311C13
:101C000086B0944D4BB473D239E9A4A41F9521102A
:101C1000A28391F43B49E7A4D32A59A458B234E9EA
:101C200049C9126B966491CE49E7A493927E96219E
:101C300010A28391F43B49E7A4D3964D19A324CA7B
:101C4000A4C39684513485D1CE49E7A493927E975C
:101C50002410A28391F43B49E7A493866453C628D9
:101C600089A2219986212C454312463B279D934EFC
:101C70004AFA01982110A28391F43B49E7A4D326A4
:101C80006D18A324964A8A964461B4498BCE49E7DD
:101C9000A493927E992310A28391F43B49E7A4D3A5
:101CA000A44919B2302B254A3625519245DAA4ECC5
:101CB0009C744E3A29E9079A1F10A28391F43B497C
:101CC000E7A4D3A6E598A6521A69491A6ECBA27367
:101CD000D239E9A4A41F9B1F10A28391F43B49E7CA
:101CE000A4D3A6E59886A916ED40942ED3A273D26C
:101CF00039E9A4A41F9C1F10A28391F43B49E7A4D7
:101D000053974192E21C124335CB9131D439E99C6F
:101D10007452D20F9D2110A28391F43B49E7A4D3C2
:101D2000B4699892308D22299BC22496B641E7A4CB
:101D300073D249493F9E2010A28391F43B49E7A406
:101D400013A72C922AE629294961168759A473D230
:101D500039E9A4A41F9F2310A28391F43B49E7A46F
:101D6000D3A46D989228498764CAA6244CA3241D45
:101D7000744E3A279D94F403A00600A04701A109E0
:101D8000413144A10C4300A2124725441787831216
:101D900045521665516510E30CA30E472544B7C59F
:101DA000C5418CAB832206A410066544112643541A
:101DB00009C5248A86240CA5124725449126592555
:101DC000CD8621CB86218B6B00A60941314431445D
:101DD0004300A7124625443324A13C24A1980CB10A
:101DE000980C0900A808442847114901A91748215F
:101DF000443564611259A2440995508912494AC276
:101E00006C8800AA0CE56845B32683960CE920ABE4
:101E10000D262544D5256A89B2A82D6AAC078624EB
:101E200044716DAD2310A28391F43B49A72D9136E7
:101E3000845152948628D292A83835E99C74862120
:101E4000D539E9A4A41FAE18482144356461924CE9
:101E50004A942851A24C4A49899262364400AF06FE
:101E600026E44671B00A84A845A34452A200B10EEC
:101E700027654417D786218BEBD83004B20CE524B4
:101E800045B364612465E120B30CE52445B3646186
:101E9000B26AC902B40863AC46959400B51448A16F
:101EA00043134661144661144661644AA424CE017A
:101EB000B61867E543331C9264489221899630092D
:101EC0009330099330099304B707422C453104B885
:101ED0000743A843B500B90BE52445954949D834D3
:101EE00008BA0BE56845B364B6641E04BB0F26252B
:101EF0004411B5456D5112B5444D00BC1246254400
:101F0000936D4954C99230AA2815690803BD124639
:101F10002544936D4954C99230C9949A964403BE9E
:101F200012462544A1459528939430AA281569089E
:101F300003BF0F46254495E6601A56433119120037
:101F4000C010C6254423EB142D6A09C561101D037A
:101F5000C110C6254427E9342D6A09C561101D0347
:101F6000C211C62544A54539458B5A42711844C74C
:101F700000C310C6254423D9295AD4128AC3203A53
:101F800006C410C6254413B553B4A825148741745C
:101F90000CC511C62544A545998E69514B280E8361
:101FA000E818C6154725443528B5288BB26190B28C
:101FB000288BB2288B8600C70F86A5433324A1B592
:101FC000A3980C61A601C810C6254423EBF030A4E9
:101FD000D541495B8701C910C6254427E99461486A
:101FE000AB8392B60E03CA10C62544A545393C0CF6
:101FF000697550D2D661CB10C6254413B5C3C390C2
:102000005607256D1D06CC0DC52944A3EAD82085A9
:10201000FD3408CD0DC52944A5E8F02085FD340820
:10202000CE0DC5294423D5C1410AFB6910CF0FC588
:1020300029441125510E0E52D84F8300D015472147
:10204000443364A53009072909933009932C1A22D7
:1020500000D113C6254423D9E170DB944889A444F8
:102060004AB46300D20FC6254423EB842109FD3115
:10207000191200D30FC6254427E9A42109FD3119FF
:102080001200D40FC62544A545396148427F4C86CD
:1020900004D50FC6254423D9094312FA633224001C
:1020A000D60FC6254413B5138624F4C7644800D759
:1020B0000CA6A444112651A6454918D81586E54317
:1020C0009B2C5A924D89942891126D49A62C290077
:1020D000D90DC6254423EB70E81F932101DA0DC604
:1020E000254427E994D03F264302DB0EC62544A5AC
:1020F00045391CFAC7644800DC0DC6254413B5C336
:10210000A17F4C8604DD10C725446727A66A924547
:1021100059258DBB01DE1066254491A6439425A167
:102120002D19A2B40ADF114625443365499644159A
:10213000294B424B6401E01086254423EB8421099E
:10214000D364186DCA12E11086254427E9A4210939
:10215000D364186DCA12E211862544A54539614839
:10216000C23419469BB204E31086254423D909439F
:1021700012A6C930DA9425E41186254413B51386D6
:10218000244C9361B4294B00E512A62544A545993A
:102190004E1992304D86D1A62C01E6130725443303
:1021A00028512D4A8621CAA22CAA0C0A00E70E4605
:1021B000A5433324A1DA3119C24C03E81186254422
:1021C00023EB842109C561508BC99000E911862554
:1021D0004427E9A42109C561508BC99000EA128601
:1021E0002544A545396148427118D462322400EB78
:1021F0001186254413B51386241487412D264302E6
:10220000EC0B852944A1EAA8D8A741ED0C85294407
:10221000A5E804B14F8300EE0C85294423D551B1C4
:102220004F8300EF0D8529441125518E8A7D1A04B4
:10223000F01186254423655A126569328C1E93215C
:1022400001F10D86254423D9E164D1441F03F20E28
:1022500086254423EB8421097D4C8604F30E8625D4
:102260004427E9A421097D4C8604F40F862544A562
:1022700045396148421F932101F50F86254423D932
:10228000094312FA980C0900F60F86254413B5137A
:102290008624F431191200F70AE66444A513EE040B
:1022A00009F81346E5439B0C49362552A2444AB42B
:1022B00025439202F90C86254423EB70E837650923
:1022C000FA0C86254427E994D06FCA12FB0D8625A7
:1022D00044A545391CFA4D5902FC0C86254413B51A
:1022E000C3A1DF9425FD10C6A54327E994D063124E
:1022F00059D2CA9000FE0FA6A54391B62C9AE8B811
:10230000294B9A02FF10C6A54313B5C3A1C724B237
:10231000A49521010000000C23F0071025DA05CC5C
:10232000FFFF20A0124625443324696550B2241CC7
:10233000B2341D0220A1134625449724C39428BD1E
:102340002891124DCA960120A2134625443565A254
:102350009A248B94644928450B0020A315482144F6
:10236000354C39900339306839900E630EA4002043
:10237000A411472544B7C5E1B085C316A78322063B
:1023800020A5154725441D0F89122992224552A4E4
:10239000484BB4440120A6174725449345592425AA
:1023A000C390B40C431249919445590220A7164793
:1023B0002544A16489960CCBA44895522445522407
:1023C0002D0020A816472544314659944CD2122599
:1023D000A5244AA2488AA40520A917476544934525
:1023E000599425C390B40C436252A42CCA12002005
:1023F000AA1507214431445AA254948A52512A4AB8
:10240000A60C090020AB18A7A5431B0E69B4D494F1
:102410003009933009934C5A7264580020AC12462C
:102420002544A745493848E120A57194290020ADED
:1024300014472144132659544B42711892629495C3
:10244000C20020AE0E47254471C8E2789AA7B90DA4
:1024500020AF1687A54331465994455994454BA45E
:10246000488AB42C710920B01486A5433365499677
:102470006451124A49454A34B10920B11A882144AD
:10248000336861320C4A980C831246839603399064
:102490000339100320B219C6A54395864352522230
:1024A000254BB22459222552126589D20C20B3172C
:1024B000482144A74661140D831226C3A0845118F5
:1024C0008551980020B4174821443564610EE440DA
:1024D000320C92380C4A0E84D9100120B519C6A5C9
:1024E00043958643525222254BB2244BB22452A22A
:1024F00064C8D20C20B616472544534CC2241BA6F0
:10250000244CC2244CC2244A220520B71987A14377
:10251000354461124639A00351122915A5320C49E0
:1025200053520220B80D07214471C8814316770326
:1025300020B91AAAAD83F1108AC321D51179887701
:102540006047722CC7722CC7120020BA1167214451
:102550001557426352B42959549B0020BB1347219D
:10256000449326E1B055C2A465C9E22C9B0020BC6F
:102570000EE5244415664B454994442920BD124676
:1025800025443344599225D930858394160120BEC1
:1025900015872144956483D2A254948ADC0EE440CA
:1025A000380C0120BF1CC7A143958449344C6112EB
:1025B0002661324861122661120E43968449042135
:1025C0000317C7214493266192E6C010854998C439
:1025D0001D93301A1200210912C7214493266192DB
:1025E000C6C312970729EE0A21261047254433282F
:1025F000A9D724AB8449B40C21900DA7244595A6F6
:10260000C390E4400821910CC5A943952D4D61FF6D
:102610000921920DA720459903C930A425002193D3
:102620000DC5294415F69F92CA160121940FA820C2
:1026300045550B936150C22C8A0021950F85294482
:10264000952D4D614F49658B0021960DC6E44431AF
:1026500044629245710121970DC6E44435845A12B3
:1026600055C21421980DC6E4441197B224948600F3
:1026700021990DC6A4441B265125138708219A12BF
:1026800027A5441987491645C39044611297002134
:102690009B1127A1441557C2281986A89684710852
:1026A000219C11AE6885B1833A302569166669B8F8
:1026B00003219D11AE60850F4E3BA06469A266396F
:1026C0003602219E0FA82045558BB26150A2348A54
:1026D00000219F0FC5A943952D4DD9D214F61300A3
:1026E00021A00FA82045558D9261D0A22C8A0021EF
:1026F000A110E5E94315F6A7A4B24549658B002171
:10270000A20CA7244595255932681D21A30EA720A8
:102710004591B50D4A9664110021A40DA624455596
:10272000C98621C9A20221A50D852944952D4D6197
:102730003F0D0221A60EA6244511D59261C892280C
:102740000221A70E8529443148613F25952D02219C
:10275000A810852944952D4D61A7A4B24583002179
:10276000A90EC724459B55C2618872200421AA0D79
:10277000C72445936651180D6B0921AB0FC724453B
:102780009B254DC93044C5240221AC10C724459374
:1027900026A5248A86A996440021AD0FA820455578
:1027A0004B94645AC22C8A0021AE1628A144990386
:1027B00069A24549320C4A9464899C03190021AFEF
:1027C000118625449136552425AAD692D218012186
:1027D000B00D65A543956543D412F60121B10E6590
:1027E000A9439546839494C21E0121B20D45254507
:1027F000D953521AA4340221B30D45294511F612BA
:102800009586AC0421B40DA8A0447107D2A4384722
:102810000021B50D452545D953521A96340221B6EB
:102820000EA8A0443764A1524AB6280521B70EA8C5
:10283000A0443364615449B4390221B80E06E5441A
:10284000711E2231C9A2B80021B9136625449164D2
:10285000E23088498E26E130885A1221BA10C664C7
:1028600044930C911225A2980C090021BB0EC6645A
:1028700044B14496481493210121D00CA624451557
:102880000EF320650021D117852944952589A5944B
:1028900044499444499444499444490221D20CA6A1
:1028A0002445170DF230460021D317852944534A99
:1028B000A2244AA2244AA2244AA224B1D42200215A
:1028C000D40EA82045551B963819B6280221D515D7
:1028D000852944952589A59444499444499424968E
:1028E0005A0421D610C6E444314449A6444931096A
:1028F000130021D70FC6E444356449942815250CEC
:102900000121D80FC6E444132661524AB4241A02A6
:1029100021D90EC6E44459512A4A9464430421E65D
:1029200010E8E04417ABC93027C920E9400821E787
:1029300017872544972659E59484499884499884B3
:10294000499884130021E810E8E0449903D2A09448
:10295000872595330021E9178725443526611226FE
:10296000611226611226D1B26495340323E9172B34
:1029700029849186B6D3100DC9A00CA721D9265160
:102980004B430023EA172B29849966A2B42D4334C4
:102990005C0665888668DB44310D23EB17692D845E
:1029A0009903EBA00D4332DCE11C58076D1892E14E
:1029B0000023EC1769ED83F1320CD9A0EE400E0F25
:1029C0009761C8067507420023ED182D258491A64E
:1029D000A3386407698886655006698886EC682D87
:1029E00023EE192D258491A6A2B81DA2211A944187
:1029F00019A6211AB44328AE0523EF192A2D849174
:102A000046633464D12045C3120D523464D118A9F1
:102A1000510023F020CBE9831B4B91A20CCA9226D4
:102A2000B54A188AA1186AA914273990A5E130641B
:102A3000170023F11DAB2984A9433A322852BA6406
:102A40009530144331D4211D4A72204BD3410323C6
:102A5000F2196B298437A8B51C48A2584BC550877A
:102A60007428C9812C4D070D23F323AD2584F12152
:102A7000CA813007C228895225D1014587921C524C
:102A80007420AD15958A98741A1E0223F4126631CB
:102A9000841B6AD3900C076590866C540323F5134E
:102AA000663184918ADB100DCA705086681353001A
:102AB00023F611CBA8849B433B30A8C3900D97E12C
:102AC0002023F711CBA884F1A00CB76148071DD8CB
:102AD000A11423F817663584210DD1100DD1100DE6
:102AE000D1100DD1100DD1100923F90C4A2D84F10C
:102AF000FFFFFF3F0423FA134A2D84356CC3A00C5B
:102B0000FFFF2FC3A00D130025800B08A145F1FF87
:102B1000FF430025810948A043F14300258209882D
:102B2000A043F17F10258309C8A043F1FF1F25842E
:102B30000B08A143F1FFFF430025850B48A143F19A
:102B4000FFFF7F1025860B88A143F1FFFFFF1F25A4
:102B5000870DC8A143F1FFFFFFFF430025880D0843
:102B6000A243F1FFFFFFFF7F1025890D07A243F16C
:102B7000FFFFFFFF4300258A0B06A243F1FFFFFF83
:102B80001F258B0B05A243F1FFFF7F10258C0B0443
:102B9000A243F1FFFF4300258D0903A243F1FF1F6C
:102BA000258E0902A243F17F10258F0901A243F16E
:102BB000430025900B04B243F1FFFF430025911918
:102BC00007A24391859916665A986961A685991658
:102BD000665A9869611625922208A24391342515F8
:102BE000A529A9284D4945694A2A4A5352519A9222
:102BF0008AD2945494A6A40125932008A243B12C10
:102C0000C941599283B2240765490ECA921C942582
:102C100039284B7250966411259409482047F14396
:102C20000025950901BE43F1430025960904A143FF
:102C3000F17F1025970904B143F17F10259809040D
:102C4000A145F17F1025991708A2433184433884A8
:102C50004338844338844338FCFF7F08259A1F0893
:102C6000A2433184433884433884433884438E0CF0
:102C7000E1100EE1100EE1100EE110259B1608A2E6
:102C800043F1FFFF07710887700887700887700895
:102C900001259C1708A243F1FFFF43388443388481
:102CA0004338844338844300259D0904B145F17FAE
:102CB00010259E1F08A24339844338844338844337
:102CC0003884C3200EE1100EE1100EE1100E210039
:102CD000259F1608A24339844338844338844338F7
:102CE00084C3FFFF0F0225A00AE72444F1FF1F025F
:102CF00025A10CE764447150BD0E830025A20DE7A9
:102D000064443328A9D764500025A310E7644471B4
:102D10005095455994451D060125A40EE76444715C
:102D20005087EB701D060125A512E7644471502AF7
:102D30004A45A92815A5320C0225A610E76444715E
:102D4000502AC3A5325C2AC32025A711E764447129
:102D500050A2299A12259AA2611025A811E764446D
:102D6000F1944891120D512245C32025A912E76420
:102D70004471502A4BB2549664A90C830025AA09C9
:102D800084A844F1430025AB0A8428453148D22069
:102D900025AC09872445F13F0425AD0B87244571F7
:102DA00050D5611025AE09E4A844F13F0425AF0BCE
:102DB000E4A84431489E060125B00C682045352C16
:102DC000C3324C0025B10C682045352C61324C00D3
:102DD00025B20DC6E444256A433424C30325B30D4C
:102DE000C6E444256A514B380C0125B40A66E44414
:102DF000A50DC93025B50A66E444A545C93025B6F8
:102E00000DC6E444210ED1F021120125B70DC6E410
:102E1000442126527691440025B80A842845210D84
:102E2000870825B90A8428452125870825BA0DA6D3
:102E3000E444210ED17088440025BB0DA6E4442152
:102E40002652B648220025BC0DC6E444F1658886AA
:102E50004C940025BD0DC6E444710893A84D940020
:102E600025BE0A66E4447119320925BF0A66E444A6
:102E70007189320925C00CC6E444290D1FA2211412
:102E800025C10DC6E4442929DB1629A10025C20A63
:102E9000842845351C220125C30A84284535244B46
:102EA0002425C40CA6E444290D8768080525C50C13
:102EB000A6E44429295BA4840225C610E7A444970C
:102EC0006E83320CC9A0AD190025C70FE7A4449743
:102ED0002659254DB24A9A0125C80FE7A4449726E2
:102EE00059D2B2744BD20C25C910E7A444B555127F
:102EF000495924A5964D0025CA10466544256A51B6
:102F00004B2826519B280125CB0EE7A444B55552EA
:102F10006B9265130025CC10E7A44495E4509A0306
:102F2000690E25110025CD10E7A444B5294A8B521E
:102F3000515A6C130025CE10E7A444B555A248A9F8
:102F400048952C9B0025CF0EE7A444B50DCAF097F9
:102F5000419B0025D010E7A444B549C93664439687
:102F600048D90425D110E7A444B5454A366443B690
:102F700044DA0425D20FE7A444B55552751894419C
:102F80009B0025D310E7A444B50DCA30A86A92650A
:102F9000130025D410E7A444B5254B3448839A6424
:102FA000D90425D510E7A444B5454A3664C3211990
:102FB000B40925D60BE4A444A50C5F260125D70B44
:102FC000E4B044212DC3170925D81108A243F1FF0D
:102FD0003F0DE2100ED2F0FF1F25D91708A243F1D2
:102FE000FF8768509443A20CC9A20CD2F0FF4300A3
:102FF00025DA0E08A145F1FF87685094431225DBBE
:103000001008A143910CC9A20CD2F0FF430025DCAB
:103010000A846445A544590625DD0984704521D6F6
:103020000225DE0A84B044574A240025DF0A84A41E
:10303000449185A10025E00A876445B555523525A0
:10304000E10C87A44491AA49964D0025E20DC6E4FF
:10305000431B6AD3900C070125E30DC6E443918A14
:10306000DB100DCA3025E40DC6A445F1A00CD12615
:10307000A60025E50DC6A4457119A4211BD5002580
:10308000E60BA5A444B364B6640125E70EC6E44488
:10309000F13444433444C31025E80EC6E444718837
:1030A00086688886683825E90EC6E444F1900CD11C
:1030B000260E430025EA0EC6E4447108B569488629
:1030C000430025EB10C7E444719022299222291A6B
:1030D000060125EC0FE7A444972661929592D661EC
:1030E0001025ED0EC6A444256A4AA424D330042535
:1030F000EE0FE6A444256A899428D1100D0725EF28
:103100001FADE983BB239A9A03590ED5A1240775F5
:103110005007931CAA43590EA49A8EAC0025F00EBA
:10312000C624447148A22112C5610825F10EC624A7
:10313000447108C52152A2610825F20EC6244471CB
:10314000084D43940C430025F30EC62444718812A5
:103150006908C5610825F41308214435644994447D
:10316000D9A0C9721266430425F5130821443564B9
:103170006112CB83266549291B220025F6130821FD
:103180004435646112DB062D4AA2241B220025F778
:1031900013082144356451528BB4419693301B225D
:1031A0000025F80EC6A44571C892A8928929002569
:1031B000F90DC6A44571C9A25A12AA0125FA0DC675
:1031C000E443918A4916D5926125FB0BC6E443710D
:1031D000081D872125FC09C62444F1FF0125FD0AAD
:1031E0008428443148D22025FE09A56444F11F02F9
:1031F00025FF0DC6E4431B6A4954C98621260013E6
:1032000087254457AA64397690066DC72A512D0345
:1032100026010D88A045152FCA3028C30226020EAC
:1032200007A544B50DCA3064716B0826033410A29B
:10323000839125439443438E24C3A0A561544BA29C
:10324000244EE2284DA2248D2229C981B0920D3B43
:1032500014E7409885433C84B51C88736858012660
:103260000416672544934559548BB2244CA234125A
:10327000A32C0A450026050FC7E4441767C3106D49
:103280008A942500260610E7E4441767CB92454947
:103290004991B20426070C2529449975AD64D200E2
:1032A0002608100625447108B524AA6451A24D03CE
:1032B000260911082144356461124B9E93301B226C
:1032C00000260A10C8A044A7466194494A29292625
:1032D00000260B10C8A0441326A52491B4288C52B4
:1032E0000D260C0DC5A444994552258A2400260DAF
:1032F00011272544294659148AA118655128022608
:103300000E0EC7644433289A8EB468C301260F1189
:10331000E764443328A9B224831245EA3008261012
:10332000188B2984F11DD2211DD2211DD2211DD23D
:10333000211DD2A1E10126111B8B2984F11DD2216F
:103340001D1892505132498934251195559175684F
:103350007826121B8C2984F121C7744C1115C96D74
:10336000C844DB90492EA2A263C343002613114533
:10337000294491694929C9C22C89929A16261414A4
:1033800087A54499283912A5D13628C390C5AD2107
:1033900000261520AC2984D51855A372548D8A5166
:1033A0009D360C51321C126558121D4974601A86E4
:1033B0001026161BAB29849B43490E64692D079286
:1033C0001CD2211DD2211DD2211D1A1E261715AB7C
:1033D00029849B433B30A8C3900D97E1FFFFFF4337
:1033E00000261823ADE5839BE4D0A023832A4DCA91
:1033F000104543321C94218A8644CBE41CCDD11C59
:10340000CCC11C022619228D25848FC6536D506AAB
:10341000C3521A8624192ED23028DB3044E130A55D
:1034200083146F399800261A0C87A444711BA44199
:103430005B00261B0C87A444331CA441DB00261C24
:103440000B87A444712B49D902261D0DE4A84457CB
:103450001914494A1400261E0D87A444330C59142C
:10346000691B00261F0CE42844A344D2926C052655
:10347000541467254497AED932248B14499596612C
:10348000508741265514472544176751A529695986
:103490003A0D52160D0A00265612272544915486DD
:1034A000AB9A645196A4EA300826571447254497EE
:1034B0002659298BB228AB44CB900E830026581393
:1034C0006625441B0D49268AC9125532511C8600B7
:1034D00026590F062544A5456D5AD4120E430026E1
:1034E0005A1267254497AED932248B14499596E138
:1034F0000F265B14472544176751A52969593A0DD2
:10350000D2200D0A00265C102725449154863F24C2
:10351000833428C31F265D11472544976E8A94453E
:103520008A3468D3F007265E126625441B0D893263
:103530003C28833424C31F04265F10062544A50DB0
:10354000D19069433424C30326601047254417A74C
:10355000DBA00C7F19C474022661102725446389FF
:1035600022D59A649534CE00266211452944156609
:103570004994D4B4A4946461042663104725443567
:103580005EB3E1439268713A0126641147254417FE
:10359000A7495649ADC920A6130026650F27254423
:1035A0006319FE4332686B9C012666104529441559
:1035B00066D3321C92690B230026671247254435D7
:1035C00026E19A2D437249B4389D00268014296D56
:1035D00084F190033AA0035AA6033AA0030F0126F0
:1035E0008114296D84F190033AA0A43AA0263AA050
:1035F000030F01268214296D84F190034AAA035A0D
:10360000A6036AA2030F01268315296D84F1900396
:103610004A96E8800EE88092253AF0102684152913
:103620006D84F190034A96E88096E98092253AF0FD
:1036300010268516296D84F190034A96E88092251C
:103640003AA064890E3C042713194DE5838FE66088
:103650000E463992E5405A0E7324CAA12407730816
:1036600027141C6FE1830FE7F09243CB0E4CF378E5
:10367000DD7660D99161C7861CD521002715196BAD
:1036800069849303C9BA6C9775D0811D18D465BB42
:10369000AC4B0E240027162DEFE1839703E96DD084
:1036A00006651892614886876C38A8C31D38E4C047
:1036B000EB70D086876418926148066DD0D63507C6
:1036C000320027171DAC2584A123564D5B151DD94B
:1036D000A11DB103922A5A251D507444C9310027F7
:1036E0001821CCE583A123833A6943B6CC838EECC1
:1036F000C8A003CA3A8DE2B42E3A30E84894630079
:10370000274F208C6D84F110E5489423438E0C39AB
:1037100032E4C89023438E0C39327C1A0ED17008E3
:103720002750208C6D84351CA2E10F3A32E4C890FA
:1037300023438E0C3932E4C89023438E44C32102C4
:103740002751208C6D84F110E5889223438E0C392B
:1037500032E4C89023438E0C39327C190ED27008A3
:103760002752208C6D84351C92E1DF912147861C05
:10377000197264C8912147861C197244190E1100F0
:103780000000BF0003020304030504050D00FE0949
:10379000FE0AFF015F02C408642005006E072107CE
:1037A0004943C7210922079B5A476209230E3D4618
:1037B0004F294906A53228A52401240F4D4257362A
:1037C0002851926D49940C5A04250D4D424FA47412
:1037D000CC8A498B9400260E45424F96444956891F
:1037E000A22952022706195BC700280BDB3E57129D
:1037F0002551B7280B290CDB3E47166551972889C0
:10380000002A0A2D5257A5B23445002B0A2D4A57DB
:10381000180D5218012C079B3E8F52022D060D5297
:10382000C7202E089B3E4FB224002F0B4D42672D20
:10383000CC8A591802300B4D425796D4BC25B50896
:10384000310B4D42572625614F8300320B4D42CF3D
:10385000926961D67110330C4D42C72066B535D4DC
:103860009205340F4D425F984949949492410B134D
:1038700000350C4D42C7B1620A432D5900360D4D3B
:1038800042CF9289E19064B66401370C4D42C72063
:1038900066611666610D380D4D42CF92D99225B3FF
:1038A000250B00390D4D42CF92D992210CB5640100
:1038B0003A0BC33E4FB2E448B224003B0AC33E4F2A
:1038C000B2E48852023C084D4267D6B5033D092553
:1038D0004AC7A06383003E094D4247DAAD23003F4B
:1038E0000C4D42CF92696156CCA108400D4D42CF9C
:1038F00092999644492CE910410C4D425796D46C4C
:10390000C390D90242104D42C71055A2244AA64A7C
:1039100094448302430B4D42CF9289BD250B004452
:10392000124D42C71055A2244AA2244AA2241A14B6
:1039300000450B4D42C7B13824617110460B4D4212
:10394000C7B13824612300470C4D42CF92894D9B6B
:10395000962C00480B4D4247E6360C995B0049080F
:10396000CB42C712F5654A0B4D42D716F6124512E7
:10397000004B0D4D4247664A4A5A1255322D4C09AA
:103980004D4247D88F83004D0D4D4247A62D4BA287
:10399000249A5B004E0D4D4247364D4AA224D24D2B
:1039A0000B4F0A4D42CF92F92D5900500C4D42C792
:1039B0009064B641091B01510A553ECF92F9A5B258
:1039C00006520D4D42C79064B6412955322D530C15
:1039D0004D42CF9289E91A6AC90254094D42C72063
:1039E00085FD0455094D4247E66FC902560D4D420B
:1039F00047E696949228C9C208570D4D4247E625DE
:103A000051122551BA00580E4D4247A625A524ABA8
:103A100044494D0B590C4D4247A625A5240B3B01AB
:103A20005A0C4D42C720666156CCC2415B09DB3E51
:103A3000C710F5A7015C0B4D4247988669310D030D
:103A40005D09DB3EC7D49F86005E081D5A5796D499
:103A5000025F060D3EC720600612634714610B35F6
:103A600042CF9A0C9AA42801620C4D4247581C92EE
:103A7000CC6D5000630A3542CF9289B56401640B66
:103A80004D4267CBA0B9254300650C3542CF920D5E
:103A90004398250B00660C4D42975409B3210ADB6D
:103AA00000670C453ACF92D99221D49205680A4D0D
:103AB0004247D862D2DC026908C3424F2875196AAE
:103AC0000B543A5FACB54952A2006B0D4D4247D83A
:103AD0009494B424AA64016C08CB4287D42F036D5C
:103AE0000D354287D2A2244AA2245A006E093542DB
:103AF0004762D2DC026F0A3542CF92B9250B0070C3
:103B00000C453AC79064B641098B00710A453ACF1B
:103B1000A0D992216C720935424762121B01730CC5
:103B20003542CF92256A92250B00740C45424F987E
:103B30000D51D81429007509354247E649510276DE
:103B40000B354247664B4A491601770B35424766AB
:103B5000499444E902780B35424796D4C22CA90512
:103B6000790C453A47E6A428A1962C007A093542FB
:103B7000C7A0751C047B0B5D3E9F1436A961AB008A
:103B80007C064943C7037D0B5D3E871AB64A6193A5
:103B9000067E091D5A4FA4245202A005006E07A1FB
:103BA00008494347320C01A20E454657B6549428A3
:103BB0008992CA1601A30D4D42975409B32D2C29A1
:103BC0000A00A40C354647964C4994444B16A50F61
:103BD0004D4247A625A52419A46890C208A6084905
:103BE00043C7900C01A70ED4428F12894A2425A204
:103BF000942800A807936247A204A90F4D46CF92CC
:103C000029C9215A96444B1600AA0C3D4ACF9A0C5A
:103C10005A32A48300AB0B354657D2539225591222
:103C2000AC071D4AC72016AD068B52C700AE0E4D1D
:103C300046CF920DC92119945BB200AF060D62C741
:103C400020B009A4568F12498902B10C3D4657187D
:103C50000D5298038300B2082B564F53920CB307B2
:103C60002B564FB705B40612638F02B50A453A4783
:103C7000E66950C410B6124D42CF3024433224437B
:103C800092285112255112B7060A538700B806121E
:103C90003B8F02B9082B564F225506BA0A3D4ACF30
:103CA00092D9927910BB0C35464792255912253D81
:103CB00001BC0C55424F26D6E64C4AA231BD0C55EC
:103CC000424F26D6D62C09B36CBE0F55424F966490
:103CD000699464512625D118BF0C4D42570E855961
:103CE00031D39205C00E55424F9A435952D3862183
:103CF000D302C10D55425F1DCA929A360C9916C265
:103D00000E5542975407B2A4A60D43A605C30E55FF
:103D10004257D28E64494D1B864C0BC40F55424FFF
:103D200029C9912CA969C3906901C50F55425796BD
:103D3000646196D4B461C8B400C6114D424FB24418
:103D400049944489322551122503C70B5D3ACF921D
:103D500089BD255B0DC80D55424F9A03C77048C2F7
:103D60007010C90D55425F1D38864312868300CA04
:103D70000D554297541DC67048C27010CB0E554267
:103D80004F298987311C92301C04CC0AD342471634
:103D90002E519701CD0AD34257122E519701CE0BC7
:103DA000D4428F128553D66901CF0AD34247A26409
:103DB0004BD465D0114D42C71055A2241A9252120D
:103DC00025D1A000D10D554257D29C699392489BB2
:103DD00016D20C55424F9A234BE62D5900D30B5562
:103DE000425F1D59326FC902D40B554297545E325F
:103DF0006FC902D50C554257D20E2C99B76401D623
:103E00000D55424F29C98125F3962C00D70A2D461E
:103E10004796D42AB500D8105D3E67B2449744490E
:103E200094649A922504D90B55424F9A03996FC90D
:103E300002DA0B55425F1DC87C4B1600DB0B554266
:103E40009754CD7C4B1600DC0B55424F298933DF4C
:103E50009205DD0C55425F1DC8B4A4163601DE0D77
:103E60004D42473824996D50C22200DF0E4D428FDB
:103E7000548992521255328B02E00D4D424F9A23D3
:103E80006B326892A204E10C4D425F1D599341933D
:103E90001425E20C4D4297545E9341931425E30D93
:103EA0004D4257D20EACC9A0498A12E40E4D424F82
:103EB00029C981351934495102E50E55429754D22A
:103EC00081351934495102E60B3542CF96244B29EE
:103ED000E902E70B453ACF9289B564AB01E80E4D94
:103EE000424F9A234B360C61962C00E90D4D425FF0
:103EF0001D59B26108B36401EA0D4D4297545EB298
:103F00006108B36401EB0F4D424F29C981251B861F
:103F1000304B1600EC09CB4247164A5D06ED09CB43
:103F20004257124A5D06EE0ACC428F12855AA70507
:103F3000EF0ACB4247A264529701F00D55424F2D34
:103F400053A325734B1600F10B4D4257D29C983466
:103F5000B700F20C4D424F9A234BE6962C00F30B20
:103F60004D425F1D5932B76401F40B4D4297545EC8
:103F700032B76401F50C4D4257D20E2C995BB2005A
:103F8000F60D4D424F29C98125734B1600F70C3DA4
:103F900046579803830E841100F80E453E67B244DD
:103FA0004BA22453B28400F90B4D424F9A03992738
:103FB0004509FA0B4D425F1DC83C294A00FB0B4DD9
:103FC000429754CD3C294A00FC0B4D424F2989337E
:103FD0004F8A12FD0D5D3A5F1DC89C1425D49205D1
:103FE000FE0D553A47583169DAA4286108FF0E5D85
:103FF0003A4F298933274509B5640100000004FFC1
:10400000FF0000005B36DA3D11241FBECFEFD1E286
:10401000DEBFCDBF00E00CBF14E0A0E0B2E0EEE6F2
:10402000FFE700E00BBF02C007900D92A23AB10774
:10403000D9F72AE0A2EAB4E001C01D92A23FB2077C
:10404000E1F710E2C3E0D0E200E006C021970109E9
:10405000802FFE010E949D3FC230D10780E00807FB
:10406000A9F70E94AA370C94A53F0C940000662380
:1040700029F06A3019F0862F90E008958FEF9FEFB6
:104080000895CF92DF92EF92FF920F931F93CF93F9
:10409000DF93EC01842F8770E1E0F0E0082E01C08F
:1040A000EE0F0A94EAF73E2F7E0199E7E90EF11C24
:1040B000D7019C9110E0923018F41E2F913029F115
:1040C00050E0487FE8ADF9ADC880D980D601509660
:1040D0009C91949F6001959FD00C11246C0D7D2DB7
:1040E000711DDF01A60FB71F011115C08C91812B27
:1040F00083278D932150D1F7DF91CF911F910F919D
:10410000FF90EF90DF90CF90089530E0D9CF110F5E
:10411000330F222389F39C91912B93279C938F5FDC
:10412000877021508111F3CF9CADA90FB11DF7010C
:104130009081923028F4913009F031E011E0E9CF1C
:1041400031E0E7CF80E0089580E008951F93CF939A
:10415000DF93182FC0914905D0914A058A3041F468
:10416000E881F9810190F081E02D6DE0CE01199593
:10417000E881F9810190F081E02D612FCE01199540
:1041800021E030E0019711F430E020E0C901DF9137
:10419000CF911F910895CF93DF93C0914905D0919E
:1041A0004A05E881F9810084F185E02DCE01199559
:1041B000892BB9F3E881F9810284F385E02DCE01E2
:1041C000DF91CF911994CF93DF93CAEED9E08FAFEF
:1041D000EAADFBAD0190F081E02D8EEE99E01995EE
:1041E000EAADFBAD0280F381E02D8EEE99E0DF9128
:1041F000CF9119949B01DC011896ED91FC9141E05F
:1042000067E119948B589F4FFC0180818F5F08955F
:10421000DC01ED91FC910190F081E02D1994AF92B9
:10422000BF92CF92DF92EF92FF920F931F93CF93A3
:10423000DF936C017B018B01040F151FEB015E0105
:10424000AE18BF08C017D10759F06991D601ED919A
:10425000FC910190F081E02DC6011995892B79F729
:10426000C501DF91CF911F910F91FF90EF90DF90EB
:10427000CF90BF90AF900895FC01538D448D252FB2
:1042800030E0842F90E0821B930B541710F0CF96F0
:10429000089501970895FC01918D828D981761F022
:1042A000A28DAE0FBF2FB11D5D968C91928D9F5F39
:1042B0009F73928F90E008958FEF9FEF0895FC0118
:1042C000918D828D981731F0828DE80FF11D858DCB
:1042D00090E008958FEF9FEF0895FC01918D228D5E
:1042E000892F90E0805C9F4F821B91098F739927E3
:1042F00008958DE495E00E946D2121E0892B09F459
:1043000020E0822F0895FC01A48DA80FB92FB11DC4
:10431000A35ABF4F2C91848D90E001968F739927FB
:10432000848FA689B7892C93A089B1898C918370D9
:1043300080648C93938D848D981306C00288F389D2
:10434000E02D80818F7D80830895EF92FF920F93FF
:104350001F93CF93DF93EC0181E0888F9B8D8C8D31
:1043600098131AC0E889F989808185FF15C09FB725
:10437000F894EE89FF896083E889F98980818370E8
:10438000806480839FBF81E090E0DF91CF911F9197
:104390000F91FF90EF900895F62E0B8D10E00F5FB8
:1043A0001F4F0F731127E02E8C8D8E110CC00FB68E
:1043B00007FCFACFE889F989808185FFF5CFCE0126
:1043C0000E948321F1CFEB8DEC0FFD2FF11DE35AFD
:1043D000FF4FF0829FB7F8940B8FEA89FB898081A9
:1043E0008062CFCFCF93DF93EC01888D8823B9F023
:1043F000AA89BB89E889F9898C9185FD03C08081F0
:1044000086FD0DC00FB607FCF7CF8C9185FFF2CF6C
:10441000808185FFEDCFCE010E948321E9CFDF911E
:10442000CF91089580E090E0892B29F00E947921B6
:1044300081110E94000080E090E0892B49F080E02B
:1044400090E0892B29F00E94000081110E94000059
:1044500080E090E0892B49F080E090E0892B29F002
:104460000E94000081110E94000080E090E0892BF2
:1044700049F080E090E0892B29F00E940000811132
:104480000C94000008958150823108F05AC0E82F42
:10449000F0E08827E15BFD4D8F4F0C949D3F6F222C
:1044A0007322612267226B22A12276227C22802243
:1044B00086228A228E2294229822A1229C22A22243
:1044C000A622809180008F7780938000089580914C
:1044D00080008F7DF9CF80918000877FF5CF84B5F4
:1044E0008F7784BD089584B58F7DFBCF8091B00018
:1044F0008F778093B00008958091B0008F7DF9CFC1
:10450000809190008F778093900008958091900023
:104510008F7DF9CF80919000877FF5CF8091A000AB
:104520008F778093A00008958091A0008F7DF9CFB0
:104530008091A000877FF5CF809120018F778093B5
:1045400020010895809120018F7DF9CF8091200175
:10455000877FF5CFCF93DF93282F30E0F901EE5D11
:10456000FC4F8491F901E452FD4FD491F901EA56D0
:10457000FD4FC491CC23A1F081110E944322EC2F66
:10458000F0E0EE0FFF1FE458FD4FA591B491EC91C0
:10459000ED2381E090E009F480E0DF91CF91089570
:1045A00080E090E0FACF1F93CF93DF93282F30E085
:1045B000F901EE5DFC4F8491F901E452FD4FD49175
:1045C000F901EA56FD4FC491CC23A9F0162F8111B1
:1045D0000E944322EC2FF0E0EE0FFF1FEE59FD4F3B
:1045E000A591B4918FB7F894EC91111108C0D095B2
:1045F000DE23DC938FBFDF91CF911F910895DE2BD7
:10460000F8CFCF93DF9390E0FC01E452FD4F24916B
:104610008A569D4FFC0184918823C9F090E0880F51
:10462000991FFC01E85BFD4FA591B491FC01EE5987
:10463000FD4FC591D49161110DC09FB7F8948C9135
:10464000209582238C938881282328839FBFDF9124
:10465000CF910895623051F49FB7F8943C91822F26
:10466000809583238C93E8812E2BEFCF8FB7F8941E
:10467000EC912E2B2C938FBFEACF3FB7F89480910B
:10468000390590913A05A0913B05B0913C0526B5BE
:10469000A89B05C02F3F19F00196A11DB11D3FBF7A
:1046A000BA2FA92F982F8827BC01CD01620F711D49
:1046B000811D911D42E0660F771F881F991F4A9543
:1046C000D1F708958F929F92AF92BF92CF92DF92CF
:1046D000EF92FF926B017C010E943D234B015C0134
:1046E000C114D104E104F104B9F00E943D2368191A
:1046F00079098A099B09683E73408105910580F319
:1047000021E0C21AD108E108F10888EE880E83E0A2
:10471000981EA11CB11CE4CFFF90EF90DF90CF90CA
:10472000BF90AF909F908F900895089585ED8093EE
:10473000BC008091BC0084FDFCCF10920E05089552
:104740002091EA04260F3327331F21323105ECF480
:1047500020910E05FC0190E080E0243069F082E0B9
:104760000895A091EA042191AC0146535B4FA40F38
:10477000B52FB11D2C930196861798F38091EA040A
:10478000680F6093EA0480E0089581E00895089539
:104790008FEF9FEF08958FEF9FEF08958091C904E9
:1047A00090E09195819591090895CF93DF93CB0186
:1047B000EA01642F0E94A023CE01DF91CF910895DA
:1047C000CF93DF931F92CDB7DEB7698361E0CE014F
:1047D00001960E94A02381E090E00F90DF91CF919D
:1047E0000895CB0108954F925F926F927F92BF928E
:1047F000CF92DF92EF92FF920F931F93CF93DF93AD
:10480000EC0129013A018B01C12CD12C7601C41491
:10481000D504E604F7040CF03FC0F801B1908F0115
:104820008F8580FF0BC0E881F9810084F185E02D40
:1048300020E144E070E060E0CE011995EB85FC8555
:104840008D859E85E817F90760F4B0828B859C857D
:1048500001969C878B872FEFC21AD20AE20AF20ACE
:10486000D6CF6B2D70E0E881F981028CF38DE02DBD
:10487000CE011995019679F7C701B601DF91CF9165
:104880001F910F91FF90EF90DF90CF90BF907F909E
:104890006F905F904F90089573016201EDCFCF93B9
:1048A000DF93EC01E881F9810288F389E02D199505
:1048B0008F3F980731F02D813E812F5F3F4F3E8320
:1048C0002D83DF91CF9108958FEF9FEF089560E0E2
:1048D00070E0CB01089590E080E00895FF920F937F
:1048E0001F93CF93DF938C01EB016F3F7607B9F0F5
:1048F000F62EEAE06E1306C06DE0F801808991891A
:104900000E9408216F2DF801808991890E94082159
:10491000CE01DF91CF911F910F91FF900895D0E0CC
:10492000C0E0F6CF7F928F929F92AF92BF92CF92CC
:10493000DF92EF92FF920F931F93CF93DF938C013F
:1049400049015A01EB01C12CD12C7601C814D904BC
:10495000EA04FB04B4F479908AE0781206C06DE0B2
:10496000F801808991890E940821672DF8018089CA
:1049700091890E940821FFEFCF1ADF0AEF0AFF0A90
:10498000E5CFC501B401DF91CF911F910F91FF9049
:10499000EF90DF90CF90BF90AF909F908F907F90DF
:1049A0000895CF93DF93EC0188899989DC01ED911B
:1049B000FC910084F185E02D1995892BA9F3888954
:1049C0009989DC01ED91FC910284F385E02DDF9162
:1049D000CF911994CF93DF93EC0188899989DC01F9
:1049E000ED91FC910084F185E02D1995892BA9F3B7
:1049F00088899989DC01ED91FC910484F585E02D8D
:104A0000DF91CF9119948F929F92AF92BF92CF92E4
:104A1000DF92EF92FF920F931F93CF93DF938C015E
:104A200049015A01EB01C12CD12C7601D8015096D5
:104A30008D919C91DC01ED91FC910284F385E02D38
:104A400019958F3F61F0C814D904EA04FB043CF4C3
:104A50008993BFEFCB1ADB0AEB0AFB0AE7CFC7014A
:104A6000B601DF91CF911F910F91FF90EF90DF90F2
:104A7000CF90BF90AF909F908F900895DC0150969B
:104A80008D919C91DC01ED91FC910084F185E02DEC
:104A9000199490E080E0089590E080E0089590E01F
:104AA00080E0089508950895DC01ED91FC9136971A
:104AB0000190F081E02DE80FF91F82E093E09183EF
:104AC00080838CE093E097838683089522E033E02F
:104AD000FC01318320832CE033E037832683089563
:104AE000FB0120813181FC0131832083FB01428164
:104AF000538126503109F90120813181820F931FA2
:104B0000FC015183408308952EE133E0FC013183A1
:104B1000208328E233E0318F208F62E173E00C9430
:104B20007025DC01ED91FC91369720813181820F57
:104B3000931F0C9484250895DC01ED91FC91369728
:104B40000190F081E02DE80FF91F8EEE92E0918345
:104B5000808388EF92E09383828308952EEE32E083
:104B6000FC013183208328EF32E0338322830895D0
:104B7000FB0120813181FC0131832083FB014281D3
:104B8000538126503109F90120813181820F931F11
:104B9000FC015183408308952AE333E0FC01318313
:104BA000208324E433E0358B248B6EE273E00C9495
:104BB000B825DC01ED91FC91369720813181820F7F
:104BC000931F0C94CC250895DC011A96ED91FC916D
:104BD00030E020E01994DC011496ED91FC9130E076
:104BE00020E040E060E11994DC011696ED91FC9123
:104BF00030E020E040E069E11994DC011696ED9187
:104C0000FC9130E020E040E068E119949A01DC0179
:104C10001696ED91FC91462F67E11994EF92FF9261
:104C20000F931F93CF93DF931F92CDB7DEB77C0115
:104C30008B01D8016C91673129F150F46531A0F4F2
:104C40000F90DF91CF911F910F91FF90EF900895FA
:104C50006A3118F16E3FA1F7F8014181498369E299
:104C6000C7010E94E4250BC0F80141814983D701A7
:104C70001696ED91FC9130E020E0C70119950E5F8A
:104C80001F4FD7CFF80181818983AE014F5F5F4FFE
:104C900061E0C7010E940626F2CF0F5F1F4FD701C8
:104CA0001696ED91FC9130E020E040E0C7011995A7
:104CB000C0CF462FDC011696ED91FC9130E020E04C
:104CC00066E11994462FDC011696ED91FC9130E0D7
:104CD00020E065E11994EF92FF920F931F93CF9319
:104CE000DF93EC01042F79016D3009F446C050F4D4
:104CF0006B30C9F1693009F49FC06A3009F465C0AE
:104D000080E046C06E3009F452C06F3099F70E94BF
:104D1000FD25F7011381110F110F110F6C89160F6B
:104D200060E4CE010E946226612F62956F7060611F
:104D3000CE010E946226612F6F70CE010E9459261B
:104D4000F7016481606BCE010E945926F701408112
:104D500051816281660F660F660FCE010E940626A2
:104D60000150A1F72EC06EE672E0442311F069E60F
:104D700072E0CE010E940E260AC0411110C062E608
:104D800072E00E940E26E881F98182898C8B81E095
:104D9000DF91CF911F910F91FF90EF9008956BE5F8
:104DA00072E00E940E26E881F9818389EFCF0E948C
:104DB000FD2561E8CE010E946226602FCE010E948F
:104DC0005926CE010E94F425E2CFEA85FB8530E02A
:104DD00020E040E068E2CE011995EE81FF8130E0ED
:104DE00020E040E064E1CE01199541E06BE4CE01A2
:104DF0000E94E425E881F981448169E2CE010E94A4
:104E0000E42540E06BE4CE010E94E425E881F981CD
:104E1000448169E2CE010E94E42541E06BE4CE01C9
:104E20000E94E425E881F981458169E2CE010E9472
:104E3000E42563E772E09DCF88EA92E09983888356
:104E40001C8AA5CF41E06DE40C94E425DC01ED91D2
:104E5000FC9145856DE20C94E425CF93DF93EC0142
:104E600041E06CE40E94E425CE01DF91CF910C94E7
:104E70002627CF93DF93EC01662379F00E94222747
:104E8000CE010E942627CE010E942D2740E06CE42F
:104E9000CE01DF91CF910C94E42540E06DE40E94B7
:104EA000E425EECF1F93CF93DF93EC01162F6078AC
:104EB0000E943927612F6074CE010E943927612F2B
:104EC0006072CE010E943927612F6071CE010E946D
:104ED0003927612F6870CE010E943927612F6470D5
:104EE000CE010E943927612F6270CE010E943927BE
:104EF000612F6170CE010E943927CE010E942227C6
:104F0000CE010E942627CE010E942D27CE010E94AD
:104F10002227CE010E94262740E06CE4CE01DF91DB
:104F2000CF911F910C94E425DC011896ED91FC9132
:104F300030E020E040E069E11994DC011896ED9141
:104F4000FC9130E020E040E068E11994CF93DF93DA
:104F50001F92CDB7DEB76983BE016F5F7F4F0E949E
:104F6000FA200F90DF91CF910895EF92FF921F9357
:104F7000CF93DF93EC01162F7A010E949D2760E406
:104F8000CE010E94A627E885F9859701412F67E1A8
:104F9000CE011995CE01DF91CF911F91FF90EF9037
:104FA0000C949427EF92FF921F93CF93DF93EC0121
:104FB000142F7901663181F138F4643109F44BC062
:104FC000653179F080E022C06831C9F150F1693172
:104FD000C9F78091C804882391F1CE010E949427DB
:104FE0002EC08091C804882319F0CE010E94942716
:104FF000CE010E949D2760E0CE010E94A627612F6E
:10500000CE010E94A62781E08093C804DF91CF9152
:105010001F91FF90EF900895642F0E94A62781E0D2
:10502000F5CF8091C804882319F0CE010E949427FF
:10503000A701193138F4612FCE010E94B5271092D3
:10504000C804EDCF68E1CE010E94B527185188E170
:10505000E80EF11CEDCF8E898F3F11F488E78E8B1F
:10506000E885F9859701412F64E1CE01DF91CF9169
:105070001F91FF90EF9019940F93DC01DE963C9105
:10508000DE97431BD496ED91FC9119950F910895ED
:10509000CF93DF93FC01A081B18182AD982F990F4E
:1050A000990F990F95AF50969C915097903208F0B8
:1050B0009FE1990F990F990F94AF23AD922F990FFC
:1050C000990F990F96AF51963C915197682F620FA7
:1050D0007727771F3617170614F4832F821B97AF95
:1050E000EF01C05CDF4F880F880F880F890F88831E
:1050F000219680EF888354968D919C915597813F9E
:10510000910508F48883EE5BFF4F56968C9180835F
:10511000DF91CF9108950F93FC01EB5BFF4F30813E
:1051200031965081451730F4301738F0041728F0C5
:1051300080E013C03017D0F3FBCFFC01ED5BFF4FD5
:1051400030818C5B9F4FFC018081681740F481E0C7
:10515000321718F081E0261758F70F91089532178B
:10516000C8F3E6CF2F923F924F925F926F927F9259
:105170008F929F92AF92BF92CF92DF92EF92FF9267
:105180000F931F93CF93DF93EC014C0183E4880EC0
:10519000911CF4011082329720805E01F4E4AF0E7E
:1051A000B11CF50120823FAC6E01F5E4CF0ED11C9D
:1051B000F6013082359740807E01F6E4EF0EF11C57
:1051C000F70140823496108132976080319670806A
:1051D00032975080012F262D472D652DCE010E943C
:1051E0008B28CD58DF4F811114C01882DF91CF91E9
:1051F0001F910F91FF90EF90DF90CF90BF90AF90F5
:105200009F908F907F906F905F904F903F902F90E6
:10521000089581E08883552011F0F40150826214D2
:1052200010F4F5016082371410F4F6017082141541
:10523000E8F6F7011083DACF0F93DC01802FFD0130
:10524000ED58FF4F90819923E9F12223D9F12230C3
:1052500020F0023079F56F5F621B082F0170FD01AD
:1052600080FD32C0EB5BFF4F8081481758F13196CB
:105270008081481738F53297908131978081260FC9
:105280002617F0F46917D8F42FEF290F8217D0F4FE
:10529000681708F4682F291708F4922F961BD696E2
:1052A000ED91FC91D7970480F581E02D292FCD0158
:1052B000199508C0033089F64F5F421BCECF682F87
:1052C000691720F30F910895ED5BFF4F80816817F8
:1052D000C8F3319680816817A8F73296908131978C
:1052E0008081240F241778F4491760F42FEF290FD9
:1052F000821740F7481708F4482F291708F4922F0F
:10530000941BCDCF482F4917E8F6F2CF0F93909119
:10531000330A6917A0F09091340A691780F49091CC
:10532000310A891760F09091320A891740F4462FAC
:10533000682F00E021E08EEE99E00E941C290F9179
:105340000895CF92DF92EF92FF920F931F93CF9326
:10535000DF93C82F162FD42F082F041B481710F0E7
:10536000042F081B211740F4F12EF21A0F15D8F064
:10537000DC1790F1D12C10C0F22EF11A0F1508F0A5
:1053800042C0802F0F2DF82E8D2FD22F282F8C2F3B
:10539000C12F182FDD24D394E02EE694121718F1B4
:1053A000CC24CA9422C0802F0F2DF82E812F1D2FC0
:1053B000D82F8C2FC22F282FEDCF612F8C2FDD20DF
:1053C00011F06C2F812F0E948629EF18E7FE02C092
:1053D0001C0DE00ECF5F0CC0E02EE6948D2FDC2F6D
:1053E000C82F122FD12CCC24C394DF3F09F4DEEF59
:1053F000DC1718F7DF91CF911F910F91FF90EF907D
:10540000DF90CF900895DC1708F0B4CFE02EE6943B
:105410008D2FDC2FC82F122FD12CC2CF213039F085
:1054200020F0223031F0840F0895860F0895841BF8
:105430000895861B0895213039F020F0223031F094
:10544000861B0895840F0895860F0895841B089580
:105450005F926F927F928F929F92AF92BF92CF9204
:10546000DF92EF92FF920F931F93CF93DF935C0134
:10547000162F642EEC01C15BDF4FDC80ED804C0108
:1054800089E7880E911CFE80FD18C12EF11608F4E4
:10549000CF2C5B800C85202F4E2D6D2D8A810E9494
:1054A0000E2A782E202F4E2D6D2D852D0E941B2A21
:1054B000482F662071F08A85F40180832C2D672D9A
:1054C000C5010E941C291F1548F01F19E394D12C17
:1054D000DACF89858111F7CF8B85EECF1D0D1C8327
:1054E000ED82DF91CF911F910F91FF90EF90DF90B0
:1054F000CF90BF90AF909F908F907F906F905F9074
:105500000895DC0118964C911897ED91FC91119734
:10551000249130E0042E02C0359527950A94E2F7D5
:10552000842F860F883068F031961196FC93EE93A5
:10553000E49198E0941B01C0EE0F9A95EAF72E2BA8
:10554000885018968C938FEF9FEF01C0880F6A9553
:10555000EAF78095822308950F931F93CF93DF93EB
:105560008C01EC01C15BDF4F798368831886FC01F5
:10557000E05AFF4F6081CE010E94812A8E83F8019C
:10558000EF59FF4F6081CE010E94812A8F83F8017D
:10559000E758FF4F90819A8781E0911180E08B87D7
:1055A000DF91CF911F910F910895CF93C62F0E9445
:1055B000812AC15021E030E001C0220FCA95EAF7EC
:1055C000821BCF910895FC01E60FF11D849190E0BC
:1055D000982F88273196E4918E0F911D0895CF93CF
:1055E000DF932091390A30913A0A2817390709F4D4
:1055F00090C0EC0190933A0A8093390AFC0184919F
:1056000080934A0A3196E491E0934B0AFE01329668
:10561000E491E0934C0AFE013396E491E0934D0A45
:10562000FE013496E491E0934E0AFE013596E49132
:10563000E0934F0AFE013696E491E093500AFE0192
:105640003796E491E093510AFE013896E491E09395
:10565000520AFE013996E491E093530AFE013A960C
:10566000E491E093540AFE013B96E491E093550ADD
:10567000FE013C96E491E093560AFE013D96E491CA
:10568000E093570AFE013E96E491E093580AFE012A
:105690003F96E491E093590AFE017096E491E093FD
:1056A0005A0A61E1CE010E94E32A90935C0A80933A
:1056B0005B0A63E1CE010E94E32A90935E0A809325
:1056C0005D0A65E1CE010E94E32A9093600A80930F
:1056D0005F0A8091390A90913A0A892BD1F0809122
:1056E000570A8093630A4091580A4093640A909144
:1056F000620A992371F0913079F49091590A8917CF
:1057000014F49093630A80915A0A841714F48093D6
:10571000640ADF91CF9108953091540A2091560A7E
:10572000082E000C990B622F022E000C770B630FD2
:10573000711D37FD7A95861797071CF4320F309349
:10574000630A241734F72093640AE3CFEF92FF92A1
:105750000F931F93CF93DF93FC01E55BFF4F2081F5
:105760003181295E3F4F6F3F710509F048F5613681
:105770007105D8F081599F4FFC0180819181280FDC
:10578000391FC9010196FC014491442309F447C023
:10579000F90144914617170671F40196DF91CF91F4
:1057A0001F910F91FF90EF9008956134710548F3B8
:1057B00083599F4FE1CFFC018491280F311DE1CF28
:1057C0008B01FC01EF58FF4FC081D181C20FD31F65
:1057D0007E0160E0C7010E94E32AC80FD91F62E082
:1057E000C7010E94E32AF4E0EF0EF11C8017910735
:1057F00080F3FE01849190E0982F88273196E49100
:105800008E2B009761F00817190719F4CE01039643
:10581000C5CFFE013296E491CE0FD11DEACF90E0C4
:1058200080E0BCCF0F931F93CF93DF931092430A76
:105830001092060A8C01D0E0C0E0F80161918F015E
:10584000E091F009F091F1098EEE99E019958F3F02
:10585000980749F18E3F2FEF920779F3BC018EEE46
:1058600099E00E94A62B0097E1F0BC018EEE99E032
:105870000E94AC2A6091500A8DE39AE00E94D52ADA
:105880008093650A6091510A8DE39AE00E94D52ABF
:105890006091520A8DE39AE00E94D52AD82FC80F52
:1058A000CCCF80E0FBCF8091430A882329F09091F0
:1058B000650A890FC80FCD1B8C2FDF91CF911F91E7
:1058C0000F9108958F929F92AF92BF92CF92DF92E5
:1058D000EF92FF920F931F93CF93DF93EC01062F6C
:1058E000142F7901FC01E55AFF4F8081813009F4C2
:1058F0006CC008F460C0823009F471C0833009F4D0
:1059000078C0FE01EF5AFF4F008331961083B70134
:10591000CE010E94A62B009709F4D5C07E012FE48A
:10592000E20EF11CBC01CE010E94AC2AFE01EA5A33
:10593000FF4FC0803C966081C7010E94D52A982EF7
:10594000FE01ED59FF4F6081C7010E94D52AB82E94
:10595000FE01EC59FF4F6081C7010E94D52AA82E95
:10596000F701068110160CF086C0D484BC0CB194EB
:105970002D2D4B2D692D82810E940E2A182FF701A3
:1059800082832D2D4B2D692D83810E941B2A482F48
:10599000F7018383F1E0DF1609F47BC0DF1698F18D
:1059A00022E0D21609F47BC083E0D81609F482C045
:1059B000042F212F2CC0FE01E35BFF4F0190F081EB
:1059C000E02DCE011995180F9CCFFE01E35BFF4F30
:1059D0000190F081E02DCE011995081B92CFFE01B8
:1059E000E35BFF4F0190F081E02DCE011995181B6C
:1059F00088CFFE01E35BFF4F0190F081E02DCE01E7
:105A00001995080F7ECF202F210F0C2D080F612F25
:105A1000CE010E948B28882371F1F7011482158230
:105A20008E01025A1F4F4E01FFE58F0E911CF801A7
:105A30006081C7010E94812AB82EF4016081C701EC
:105A40000E94812AD82E40E06B2DCE010E94282A88
:105A500041E06D2DCE010E94282A61E0C7010E941D
:105A6000812A8111F0CFF70185818C1504F3C75885
:105A7000DF4F828588838A2DDF91CF911F910F910F
:105A8000FF90EF90DF90CF90BF90AF909F908F905E
:105A90000895DC1821E0210F080F1D0DB8CF81E01B
:105AA000982F901B21E0210F8C1901E0040F480F63
:105AB000190FADCF2C2D210F842F801B01E0040F77
:105AC00041E0480FA4CF80E0D7CFFF920F931F9300
:105AD000CF93DF93C82FD62F1092060A8A01F12C9C
